:020000040000FA
:060000005DEF09F01200A3
:020006000000F8
:08000800D9CFE6FFDACFE6FFD5
:10001000E1CFD9FFE2CFDAFFE652F250800B01E0E8
:10002000010EDF6EF29E550EA76EAA0EA76EA68277
:10003000A6B2FED7A66ADF50E8B0F28EE8A0F29E24
:1000400000D0E552E552E5CFDAFFE7CFD9FF120045
:10005000D9CFE6FFDACFE6FFE1CFD9FFE2CFDAFF73
:10006000E652000E146E200E156E000E166EFC0E7B
:10007000DBCFE6FFFD0EDB50050DF350E552E72424
:10008000176E186A196A0A0ED8901736183619367C
:10009000E806FAE114501724F66E15501820F76E92
:1000A00016501920F86E0800F550DF6EFB0EDB507D
:1000B000020A0FE0030A07E0010A01E011D0010E75
:1000C000DF14DF6E0FD0020EDF14E8407F0BDF6E0F
:1000D00009D0040EDF14E840E8403F0BDF6E02D089
:1000E000DF6A00D0DF50146E156A14C0F3FF15C02C
:1000F000F4FF00D0E552E552E5CFDAFFE7CFD9FFB4
:100100001200D9CFE6FFDACFE6FFE1CFD9FFE2CF89
:10011000DAFF000E146E200E156E000E166EFC0E29
:10012000DBCFE6FFFD0EDB50050DF350E552E72473
:10013000176E186A196A0A0ED890173618361936CB
:10014000E806FAE114501724F66E15501820F76EE1
:1001500016501920F86E140EA66E56DF00D0E55228
:10016000E5CFDAFFE7CFD9FF1200D9CFE6FFDACF2C
:10017000E6FFE1CFD9FFE2CFDAFF080EE12402E388
:10018000E168E652E16E050EF6CFDBFF060EF7CF13
:10019000DBFF070EF8CFDBFF020EDB6A030EDB6A24
:1001A000020EDBCF14F0030EDBCF15F0050E145C4E
:1001B000000E15581BE2010EE66E020EDBCFE6FFC5
:1001C000FD0EDBCFE6FF44DFE552E552E552F3CF0B
:1001D00016F0F4CF17F0010E161801E1175006E1E2
:1001E000020EDB2A030E01E3DB2ADAD7000E146EBF
:1001F000200E156E000E166EFD0EDB50050DF35031
:100200001A6E1B6A020EDB501A24176E030EDB50A7
:100210001B20186E196A0A0ED89017361836193630
:10022000E806FAE114501724F66E15501820F76E00
:1002300016501920F86E020EDE6EDD6A020EF626EA
:10024000000EF722000EF822020EDE26000EDD223E
:10025000020EF626000EF722000EF8220800040E09
:10026000F5CFDBFF040EDB50FF0809E0DECF14F012
:10027000DDCF15F0000E145C040E1558E5E3D9CF60
:10028000E9FFDACFEAFFEE5002E1040EED1802E1D9
:10029000DE6ADD6A050EDBCFF6FF060EDBCFF7FF69
:1002A000070EDBCFF8FFDECF14F0DDCF15F014C062
:1002B000F3FF15C0F4FF00D0080EE15C02E2E16A32
:1002C000E552E16EE552E5CFDAFFE7CFD9FF120044
:1002D000D9CFE6FFDACFE6FFE1CFD9FFE2CFDAFFF1
:1002E000140EE12402E3E168E652E16E080EF6CF57
:1002F000DBFF090EF7CFDBFF0A0EF8CFDBFF0B0E9B
:10030000DB6A050EF36E0B0EDBCFF4FFF350F45CEB
:1003100018E2010EE66E0B0EDBCFE6FFFD0EDBCF23
:10032000E6FF96DEE552E552E552F3CF14F0F4CF46
:1003300015F0010E141801E1155003E10B0EDB2A34
:10034000E0D70B0EDB50050810E1080EDBCFF6FFFF
:10035000090EDBCFF7FF0A0EDBCFF8FF0F010A878C
:10036000030EF36EF46A36D23ED00B0EDB28E76E36
:100370000C0EE7CFDBFF0C0EDB50050802E10C0E84
:10038000DB6A020EE66E0C0EDBCFE6FFFD0EDBCF66
:10039000E6FF5EDEE552E552E552F3CF14F0F4CF0E
:1003A00015F0145015101FE10C0EDB2A0C0EDB505B
:1003B000050802E10C0EDB6A0B0EDB50F36E0C0E2F
:1003C000DB50F35C0FE1080EDBCFF6FF090EDBCF4D
:1003D000F7FF0A0EDBCFF8FF0F010A83010EF36E61
:1003E000F46AF8D1CED7000E146E200E156E000EF2
:1003F000166E0C0EDBCFE6FFFD0EDB50050DF35045
:10040000E552E724176E186A196A0A0ED890173653
:1004100018361936E806FAE114501724F66E15500E
:100420001820F76E16501920F86E020EF6CFDBFF7B
:10043000030EF7CFDBFF040EF8CFDBFF000E146EC8
:10044000200E156E000E166E0B0EDBCFE6FFFD0EB6
:10045000DB50050DF350E552E724176E186A196A50
:100460000A0ED890173618361936E806FAE11450F5
:100470001724F66E15501820F76E16501920F86ED6
:10048000050EF6CFDBFF060EF7CFDBFF070EF8CF2A
:10049000DBFFFD0EDBCFE6FF68DEE552F3CF14F0A5
:1004A000F4CF15F01450151002E00F010A85020E6A
:1004B000DBCFF6FF030EDBCFF7FF040EDBCFF8FF39
:1004C000F568DE6ADD6ADECF14F0DDCF15F0040ECC
:1004D000145C000E155806E20D00DF2A010E01E340
:1004E000DB2AF1D70D0EDB6A0F0E0ACFDBFF0F01FF
:1004F0000A910D0EDB50146E156AFF0E141801E1FF
:10050000155059E0DECF16F0DDCF17F0400E165C27
:10051000000E175850E20D0EDB50186E196AFD0ED2
:10052000DB50166E176A0868096A16C00DF017C00E
:100530000EF00AEC09F006501824146E075019202A
:10054000156E14C0E6FF15C0E6FFEDDAE552E55280
:100550000E0EF3CFDBFF0F010AA103D00F010A91AA
:100560000CD00D0EDB50F56E0D000E0EDB50F56E4F
:100570000D00020EDE26000EDD220D0EDB2A0D0E12
:10058000DB50146E156AFF0E141801E1155012E1CC
:10059000DECF16F0DDCF17F0400E165C000E1758B8
:1005A00009E2F5680D00F5680D00020EDE26000E6A
:1005B000DD22E5D79ED7F606000EF75A000EF85A50
:1005C000040EA66E21DDF62A000EF722000EF82298
:1005D000DE6ADD6A0D0EDB50146E156AFF0E14180C
:1005E00001E1155001E085D70F0EDBCF0AFF020EA7
:1005F000DBCFF6FF030EDBCFF7FF040EDBCFF8FFF8
:10060000040EF626000EF722000EF82209000D0E49
:10061000F5CFDBFF09000E0EF5CFDBFF0D0EDB5033
:10062000FF083AE00D0EDB501A6E1B6AFD0EDB5020
:10063000186E196A0868096A18C00DF019C00EF022
:100640000AEC09F006501A24166E07501B20176E8C
:1006500016C0E6FF17C0E6FF66DAE552E552F3CFB3
:1006600014F0F4CF15F00E0EDB501C6E1D6A1C50FA
:10067000141802E11D50151806E00F010A8F070E2D
:10068000F36EF46AA7D009000D0EF5CFDBFF090069
:100690000E0EF5CFDBFFC2D7050EDBCFF6FF060E41
:1006A000DBCFF7FF070EDBCFF8FF0900100EF5CF09
:1006B000DBFF0900110EF5CFDBFF0900120EF5CFAD
:1006C000DBFF0800130EF5CFDBFF0C0EDB5005E15E
:1006D000120EDB2A130E01E3DB2A120EDBCF14F01D
:1006E000130EDBCF15F0E70E145C030E155804E370
:1006F000100EDB940F010A83020EDBCFF6FF030E10
:10070000DBCFF7FF040EDBCFF8FF100EDB50F56EEA
:100710000D00110EDB50F56E0C00240EA66E74DC7D
:10072000F62A000EF722000EF822120EDB50F56EAC
:100730000D00130EDB50F56E0C00240EA66E64DC6B
:100740000A00130EDB50F55C06E00F010A8F070E5E
:10075000F36EF46A3FD00A00120EDB50F55C06E03F
:100760000F010A8F070EF36EF46A34D00A00110EDF
:10077000DB50F55C06E00F010A8F070EF36EF46A9A
:1007800029D00800100EDB50F55C06E00F010A8F3F
:10079000070EF36EF46A1ED00B0EDBCFE6FFFD0EE4
:1007A000DBCFE6FFAEDCE552E552080EDBCFF6FF0D
:1007B000090EDBCFF7FF0A0EDBCFF8FF0F010A515E
:1007C000020B01E0010E146E156A14C0F3FF15C090
:1007D000F4FF00D0140EE15C02E2E16AE552E16E42
:1007E000E552E5CFDAFFE7CFD9FF1200D9CFE6FF18
:1007F000DACFE6FFE1CFD9FFE2CFDAFF090EE1243D
:1008000002E3E168E652E16E020EF6CFDBFF030E73
:10081000F7CFDBFF000EF66E200EF76E000EF86EBF
:10082000080EDB6A020EF36E080EDBCFF4FFF35006
:10083000F45C01E368D1DF6A010EDB6A060EDB6A55
:10084000070EDB6A040EDB6A050EDB6A040EDBCFE3
:1008500014F0050EDBCF15F0050E145C000E1558D4
:100860001AE2020EE66E040EDBCFE6FF080EDBCFC7
:10087000E6FF28EC00F0E552E552E552F3CF16F022
:10088000F4CF17F01650171006E1040EDB2A050E00
:1008900001E3DB2ADBD7D950040FE96E000EDA2022
:1008A000EA6E050EEE1801E1ED500BE1020EDBCF12
:1008B000F6FF030EDBCFF7FFF86A0F010A83010E84
:1008C00024D1040EDB6A050EDB6A040EDBCF14F0C4
:1008D000050EDBCF15F0050E145C000E15581BE25B
:1008E000010EE66E040EDBCFE6FF080EDBCFE6FF5F
:1008F00028EC00F0E552E552E552F3CF14F0F4CFC6
:1009000015F01450151001E1DF2A040EDB2A050E44
:1009100001E3DB2ADAD7DF5044E1E66A080EDBCFD9
:10092000E6FF81EC00F0E552E552000E146E200E59
:10093000156E000E166E080EDB50050DF3CF17F086
:10094000186A196A0A0ED890173618361936E8064A
:10095000FAE114501724F66E15501820F76E165051
:100960001920F86EFC0EF56E0D00F5680C00240ED3
:10097000A66E04EC00F0F62A000EF722000EF82214
:10098000F56A0D00F56A0C00240EA66E04EC00F06A
:10099000020EDBCFF6FF030EDBCFF7FFF86AB0D015
:1009A000AFD0DF0409E1020EDBCFF6FF030EDBCF91
:1009B000F7FFF86AA5D0A4D0020EDF5C01E095D065
:1009C000010EE66E040EE66E080EDBCFE6FF28ECA5
:1009D00000F0E552E552E552F3CF14F0F4CF15F0F4
:1009E000145015101CE1010EE66EE66A080EDBCF0E
:1009F000E6FF28EC00F0E552E552E552F3CF16F0A1
:100A0000F4CF17F0165017100AE1040EF36E040E1F
:100A1000F3CFDBFF050EDB6A010EDB6A40D0040E6C
:100A2000DB6A050EDB6A010EE66E040EDBCFE6FF25
:100A3000080EDBCFE6FF28EC00F0E552E552E55268
:100A4000F3CF14F0F4CF15F0010E141801E1155096
:100A500011E1040EDBCF16F0050EDBCF17F0050E0B
:100A6000165C000E175806E2040EDB2A050E01E3A1
:100A7000DB2AD9D7010EE76E040EDBCF14F0050E8A
:100A8000DBCF15F0E7501426000E1522010E14C01E
:100A9000DBFF010EDB50050802E1010EDB6A010EEF
:100AA000DBCFE6FF080EDBCFE6FF81EC00F0E5527E
:100AB000E552080EDBCFE6FFB5EC00F0E552F3CFD0
:100AC00014F0F4CF15F01450151006E1080EDBCF2A
:100AD000E6FF68EC01F0E552020EDBCFF6FF030EF5
:100AE000DBCFF7FFF86A0CD00BD0020EDBCFF6FF9E
:100AF000030EDBCFF7FFF86A0F010A8D060E05D053
:100B0000080EDB2A8FD6000E00D0146E090EE15CB1
:100B100002E2E16AE552E16E1450E552E5CFDAFFF8
:100B2000E7CFD9FF1200D9CFE6FFDACFE6FFE1CF5A
:100B3000D9FFE2CFDAFF0A0EE12402E3E168E652D0
:100B4000E16E060EF6CFDBFF070EF7CFDBFF080ED8
:100B5000F8CFDBFFFC0EDBCF14F0FD0EDBCF15F082
:100B6000FE0E145C010E155805E30F010A8BF368A5
:100B7000F46AF0D01468156AFC0EDBCF08F0FD0EA5
:100B8000DBCF09F014C00DF015C00EF037EC09F002
:100B9000090E08C0DBFF020EDB6A030EDB6A020EE1
:100BA000DBCF14F0030EDBCF15F0050E145C000E46
:100BB00015581CE2010EE66E020EDBCFE6FF090EB1
:100BC000DBCFE6FF28EC00F0E552E552E552F3CF2B
:100BD00016F0F4CF17F0010E161801E1175006E1D8
:100BE000020EDB2A030E01E3DB2AD9D7D950020F0C
:100BF000E96E000EDA20EA6E050EEE1801E1ED5006
:100C00000EE1060EDBCFF6FF070EDBCFF7FF080E77
:100C1000DBCFF8FF0F010A8DF368F46A9BD0000E5A
:100C2000146E200E156E000E166E010EE76E020E8B
:100C3000DBCF1AF0030EDBCF1BF0E7501A26000EB5
:100C40001B22090EDB50050DF35000011A24176E0C
:100C5000000E1B20186E196A0A0ED8901736183627
:100C60001936E806FAE114501724F66E15501820CC
:100C7000F76E16501920F86E020EF65E000EF75A47
:100C8000000EF85ADE68010EDD6E0800050EF5CF85
:100C9000DBFF020EF65E000EF75A000EF85ADF0672
:100CA000010E01E2DB06D9CFE9FFDACFEAFF000E41
:100CB000D880EE54000EED541CE2050EDB50146E8D
:100CC000156AFC0EDBCF16F0FD0EDBCF17F00D68BA
:100CD0000E6A16C008F017C009F037EC09F004C01E
:100CE00016F005C017F01650141802E11750151829
:100CF000CCE1D9CFE9FFDACFEAFFEE50ED100EE1FB
:100D00000F010A81060EDBCFF6FF070EDBCFF7FFE0
:100D1000080EDBCFF8FFF368F46A1CD0030EF6264A
:100D2000000EF722000EF8220A00040EF5CFDBFFBA
:100D3000060EDBCFF6FF070EDBCFF7FF080EDBCF8B
:100D4000F8FF040EDB50146E156A14C0F3FF15C0D3
:100D5000F4FF00D00A0EE15C02E2E16AE552E16EC6
:100D6000E552E5CFDAFFE7CFD9FF1200D9CFE6FF92
:100D7000DACFE6FFE1CFD9FFE2CFDAFF0B0EE124B5
:100D800002E3E168E652E16EF6CFDFFF010EF7CF36
:100D9000DBFF020EF8CFDBFFFB0EDBCF14F0FC0E07
:100DA000DBCF15F0FE0E145C010E155804E30F01A5
:100DB0000A8B050E52D11468156AFB0EDBCF08F0C2
:100DC000FC0EDBCF09F014C00DF015C00EF037ECAF
:100DD00009F00A0E08C0DBFF030EDB6A040EDB6AB3
:100DE000050EDB6AD950030FE96E000EDA20EA6EB9
:100DF000050EEE5C000EEE58000EEF5822E2010EDA
:100E0000E66E030EDBCFE6FF0A0EDBCFE6FF28EC33
:100E100000F0E552E552E552F3CF14F0F4CF15F0AF
:100E2000010E141801E115500CE1D950030FE96EC1
:100E3000000EDA20EA6EEE2A000EEE22000EEE22FE
:100E4000D1D7D950030FE96E000EDA20EA6E050EF5
:100E5000EE1803E1EE5001E1EE500CE1DFCFF6FFBA
:100E6000010EDBCFF7FF020EDBCFF8FF0F010A8D7B
:100E7000060EF3D0000E146E200E156E000E166EC8
:100E80000A0EDB50050DF3CF1AF01B6A1C6AD9500D
:100E9000030FE96E000EDA20EA6E1A50EE24176E88
:100EA0001B50EE20186E1C50EE20196E0A0ED890C2
:100EB000173618361936E806FAE114501724F66E7C
:100EC00015501820F76E16501920F86E090E0ACF2B
:100ED000DBFFFB0EDBCFE6FFFC0EDBCFE6FF23DE06
:100EE000E552E552F3CF14F0F4CF15F0FD0EDB50D0
:100EF000166E176A1650141802E11750151810E1F3
:100F00000F010AB10DD0DFCFF6FF010EDBCFF7FFE7
:100F1000020EDBCFF8FF090EDBCF0AFF000E9DD0DB
:100F2000090EDBCF0AFF0A0EDBCFE6FFB5EC00F0BF
:100F3000E552060EF3CFDBFF070EF4CFDBFFD950EF
:100F4000060FE96E000EDA20EA6EEE50ED100CE1AD
:100F5000DFCFF6FF010EDBCFF7FF020EDBCFF8FF8E
:100F60000F010A89040E79D0060EDBCF14F0070EAC
:100F7000DBCF15F0166A1450F6261550F7221650DE
:100F8000F822FB0EDBCF14F0FC0EDBCF15F00D6862
:100F90000E6A14C008F015C009F037EC09F004C05F
:100FA00014F005C015F01450F56E0D00060EDB2A86
:100FB000070E01E3DB2AFD0EDB50F56E0C00240E5C
:100FC000A66E04EC00F0060EDB2A070E01E3DB2A16
:100FD0000A00FD0EDB50F55C04E00F010A8F070EDE
:100FE0003CD00800F550146E156AFB0EDBCF16F0EE
:100FF000FC0EDBCF17F00D680E6A16C008F017C0A4
:1010000009F037EC09F004C016F005C017F01650CF
:10101000141802E11750151804E00F010A8F070E8B
:101020001CD0D950060FE96E000EDA20EA6EEE50A1
:1010300002E1040EED1807E100000A0EDBCFE6FF27
:1010400068EC01F0E552DFCFF6FF010EDBCFF7FFD2
:10105000020EDBCFF8FF000E00D0146E0B0EE15C29
:1010600002E2E16AE552E16E1450E552E5CFDAFFA3
:06107000E7CFD9FF1200DA
:0A107600D9CFE6FFDACFE6FFE1CFA5
:10108000D9FFE2CFDAFFE652E652E652E652DE52EE
:10109000250EDD6E040EF36E020EF3CFDBFF030EA2
:1010A000DB6AF6EC03F00F010A6B020EDBCFE6FF02
:1010B000030EDBCFE6FF010EDBCFE6FFB6EC06F05A
:1010C000E552E552E552020EDBCFE6FF030EDBCF21
:1010D000E6FF93EC05F0E552E552F350DF6E0000B9
:1010E000FE0EE66EE66A010EDB50E824E66EB6EC14
:1010F00006F0E552E552E552020EDBCFE6FF030EA5
:10110000DBCFE6FF93EC05F0E552E552F350DF6EDE
:101110000000020EDBCF14F0030EDBCF15F0FE0E45
:101120001426000E152214C0E6FF15C0E6FF010EBE
:10113000DB50030DF350E66EB6EC06F0E552E552D7
:10114000E552020EDBCFE6FF030EDBCFE6FF93ECAA
:1011500005F0E552E552F350DF6E000000D0040EBA
:10116000E15C02E2E16AE552E16EE552E5CFDAFFC9
:06117000E7CFD9FF1200D9
:0A117600060EF66E000EF76E000E76
:10118000F86E0F010900F550056F0900F550066F64
:1011900003E1056701D03DD00900F550006F09005B
:1011A000F550016F0900F550026F09000900F55074
:1011B000E96E0900F550EA6E090009000900F550D2
:1011C000036F0900F550046F09000900F6CF07FF0F
:1011D000F7CF08FFF8CF09FF00CFF6FF01CFF7FFE9
:1011E00002CFF8FF0F01035302E1045307E00900A7
:1011F000F550EE6E0307F8E20407F9D707CFF6FFC4
:1012000008CFF7FF09CFF8FF0F010507000E065BB7
:04121000BFD7120032
:0C12140009C013F008C012F008500D02D1
:10122000F4CF07F0F3CF06F009500E02F4CF09F027
:10123000F3CF08F00D02F3500726F4500822E86AB5
:10124000092212500E02F3500726F4500822E86AD1
:1012500009220EAE30EF09F01250085E1350095A01
:0E12600013AE000C0D50085E0E50095A000C23
:02126E00056A0F
:10127000046A100EE76ED890083609360436053633
:101280000D50045C0E50055805E30D50045E0E50E1
:0A129000055A082AE72EF0D71200D5
:06129A00400EF36E00EEB1
:1012A00000F00F0E01D81200EA6002D0EE6AFCD7FF
:0A12B000F350E9601200EE6AFCD76B
:0612BA001EEE00F02EEE16
:1012C00000F0F86A019CBBEC08F06BEC09F03BEC19
:0612D00008F0FBD712003C
:0212D600120004
:10200000FFFFFFFFFFFFFFFFFFFFFFFFFFFFFFFFE0
:10201000FFFFFFFFFFFFFFFFFFFFFFFFFFFFFFFFD0
:10202000FFFFFFFFFFFFFFFFFFFFFFFFFFFFFFFFC0
:10203000FFFFFFFFFFFFFFFFFFFFFFFFFFFFFFFFB0
:020000040001F9
:01FFF800A068
:01FFFA00C442
:01FFFC00F80C
:00000001FF
