:020000040000FA
:0600000073EF1CF012007A
:020006001027C1
:06000800BDEF16F012002E
:02000E000A00E6
:100010005B3A00002501000003000000573A000091
:100020002101000004000000533A00001D010000FF
:10003000040000003C3A0000C3000000170000006C
:100040002E3A0000000100000E000000043A0000FB
:10005000990000002A000000F5390000EA000000C5
:100060000F000000E5390000DA0000001000000079
:10007000AC3900006000000039000000A639000023
:08008000F90000000600000079
:080088009090909299909992DA
:1000900090968D909996969090948D929994969230
:1000A0008F968F90989698968E9A8E9C979A979CFA
:1000B0008E9E8F98979E989812000001010E646F93
:1000C000666F696B676F656B120045EC06F024E0A4
:1000D000000185C032F086C033F0852B000E8623E8
:1000E000B80E321819E10B0E331816E1FD0EDB5075
:1000F000EA6A6A0FE96E000EEA22FE0EDBCFEFFF1E
:10010000856B866BDB5006E0020E646F6AEC05F0CF
:10011000010E03D0000E01D0000E66EF05F058EC82
:1001200006F0DBCF71F0FD0EDBCF72F0FC0EDBCF03
:1001300073F0FB0EDBCF74F0FA0EDBCF75F066EFD9
:1001400005F038EC06F0FE0EDB50DF5C03E2C4EC99
:1001500005F0F9D7E55266EF05F038EC06F0FC0E35
:10016000DB50DF5C03E2C4EC05F0F9D7E55266EF43
:1001700005F06A0E326E000E32C0F3FFF46E12000C
:1001800058EC06F0DBCF64F066EF05F00001665135
:10019000120058EC06F0DBCF65F066EF05F00001C9
:1001A0006551120000016451120058EC06F0DBCFDB
:1001B00068F066EF05F000016851120061EC05F08F
:1001C000FE0E336ADB34EBEC05F032C0F3FF33C0D4
:1001D000F4FF66EF05F038EC06F0040EDF5C12E287
:1001E000020EE66EE66AE66A336ADF34EBEC05F08F
:1001F00030EC06F0E3EC1BF0346E050EE15E34509B
:10020000DF2AEBD70E0EE66EE66AE66A7B0EE66E36
:10021000000EE66EE3EC1BF04EEC06F0E55266EFE6
:1002200005F000017A51120038EC06F03AEC05F0C6
:10023000D4EC05F003E16AEC05F0E8D00001695167
:10024000030A01E1B1D0010A01E1A8D0030A26E0C6
:10025000010A01E0DBD0FD0EDB5014E0C0EC05F03C
:1002600011E0615103E1010EDF6ED0D06AEC05F0C0
:100270004EEC05F0EF6ACEDA00017B6B7C6B020E70
:10028000696F21D0FE0EDBCFE6FF3CDBE552020EAC
:100290000001615D01E0BAD0BDDA83D091C0E6FF14
:1002A00092C0E6FF0CEC06F0FD0EDB500EE0C0EC59
:1002B00005F00BE00001692B7D6B7E6BEFDBEF6AD5
:1002C0006AEC05F00001936BA1D0C0EC05F022E1CF
:1002D000000187C032F088C033F0872B000E8823DE
:1002E000340E321817E1210E331814E1876B886B36
:1002F0005FEC17F0000905E0E66A62EC17F0E552E2
:1003000009D000017D6B7E6B692BE4DB0001010EDF
:10031000936F7CD000017DC032F07EC033F07D2B26
:10032000000E7E2330EC06F013EC0BF0E552E7CF25
:1003300033F0F3EC05F0F3CF36F0F4CF37F0FE0EE8
:10034000DB50040D3650F324E96E3750F420EA6E8A
:10035000EE52EF50346E356AE80E3502F3CF35F0C9
:10036000030E3402F3503526E80E3402F3CF34F096
:10037000F4503526F350321849E13550331846E130
:100380000001692BE66A62EC17F0E5520001876B09
:10039000886BA0DB00017D6B7E6B38D0A1DB3CEC71
:1003A00006F00001692B32D0FE0EDBCFE6FFFC0E1B
:1003B000DBCFE6FF95DB40DAE552E552E552E55248
:1003C000000924E08DDB3CEC06F00001696BFD0EBA
:1003D000DB5002E0D5DB04E1D3DB04E1935102E121
:1003E000010EDF6EFD0EDB5002E1CADB04E1C8DB6B
:1003F0000DE193510BE0936B020EDF6E4FDB010EAC
:10040000EF6E4CDBEE52FC0EDBCFEFFFDF50E55220
:100410005DD391C0F3FF92C0F4FF120052DBFC0EDB
:10042000DBCFE6FFE5DB95DB2BE038DBEF5024E0AC
:1004300097DBEFCF32F032C0E6FF13EC0BF0D3DBEB
:10044000F3CF33F0F4CF34F0FE0EDB50040D335015
:10045000F324E96E3450F420EA6E030E35EC06F016
:10046000325C04E17DDBEF6A030E0BD079DBEF2A0F
:1004700015DBEF6A020E05D073DBEF6A010E01D0C7
:10048000000E24D3A7EC06F0000901E112000001E0
:100490006451030A01E1B8D0060A01E181D0010AE2
:1004A00054E0050A30E0030A2CE0020A01E01200E1
:1004B00064C07AF06751020A12E0020A01E01200F9
:1004C0005FEC06F0EF50E66EE66A43DB19E00001F0
:1004D00089510EE1696B020E676F10EF06F0010E95
:1004E000BCDB020E44DB35DB0BE000018D5104E088
:1004F000696B020E646F1200696B010E646F676FA7
:100500001200656B120064C07AF0655109E0696BF6
:10051000030E646F070EE66EA3EC06F0E55247DBB0
:10052000E66AE66A010EE66EE66AE66EF8DDB6DBBE
:10053000070EE66E71EC13F0A3DBF3CFE6FFF4CF0A
:10054000E6FF0BDEE552E55229D064C07AF02FDBDE
:1005500018C1E6FF78C0E9FF79C0EAFFCBDA04E012
:100560000001856B866B11D019C1E6FF64EC13F0B6
:100570009ADBEF50E66E020EE66EEBDA01E149D14E
:100580000001856B866B8D5102E0020E38D0050E9E
:10059000646F030E686FE66A96EC06F0E55212008F
:1005A00064C07AF0680512E165DA040EAFDA6E0E07
:1005B000916F360E926F0101030E196FF8DA000188
:1005C000696B58DA020EE9DA020E14D0020E685D89
:1005D00013E150DA020E9ADA23DB0101010E196FE2
:1005E000E66E96EC06F0E5520001696B43DA040E04
:1005F000D4DA040E186F1200685103E1010E646F23
:100600001200030E685D120064C07AF06751020A9E
:1006100001E190D0020A23E0010A01E01200680E15
:10062000916F360E926F01DB040E17DB050E1DDB9A
:10063000E66E010EE66E66DA01E1EBD0010A08E033
:10064000020A01E012000001020E646F696B1200E1
:100650000001696B020E676F040E666F120066512F
:10066000030A53E0010A2AE0030A01E01200620EC5
:10067000916F360E926FE66AFDD93CDA01E09DD2A9
:10068000D4DA020EEADAEE52EF50E66EE66A3ADAB1
:1006900001E1BFD0020A0BE0030A05E0020A01E013
:1006A00012008FDA08D00001696B030E03D000013D
:1006B000696B020E666F856B866B120000DBEE5273
:1006C00019DA01E07AD202DBEF50E66EE66A1ADA56
:1006D00001E19FD0020A12E0030A05E0020A01E0EC
:1006E00012006FDA0FD00001010E666F696B965130
:1006F00009E0020E676F966B050E03D00001696B6F
:10070000010E666F856B866B120083C032F084C069
:1007100033F0832B000E8423D00E321801E079D001
:10072000070E331876E1836B846B020E666F010E41
:10073000966F12006651050A32E0010A01E01200CC
:100740006E0E916F360E926F020E87DA020EC9DAC4
:10075000D1D901E032D269DA020E7FDA030E07DA6C
:10076000D1D957E0020A14E0030A05E0020A01E0C9
:10077000120027DA11D00001696B856B866B9751E7
:1007800003E1676B010E02D0976B050E666F1200D6
:100790000001696B050E666F856B866B120040DA8F
:1007A000030E5BDA030E9DDAA5D901E006D28EDADC
:1007B000020EDDD9A7D92DE0020A23E0030A05E0E5
:1007C000020A01E01200FDD919D00001696B040E84
:1007D000666F010E676F656B966BE66A96EC06F0C6
:1007E000E5520001010E646F21EC0BF0020805E1F7
:1007F000030EE66EA3EC06F0E5520001856B866BF6
:1008000012000001696B040E666F856B866B010E2A
:10081000976F12000001616B636BFFEF05F051D918
:100820000EDA02E0A9D9FEE134DA45DA02E0A4D911
:10083000FEE10EDAEF124AD144D900019851010AC3
:1008400037E0010A49E19CD903E1010E986F44D0D9
:10085000FC0EDB0405E16BD9620E3226360E04D0A5
:1008600066D97A0E3226360E3322FAD9D5D900014E
:1008700081C032F082C033F0812B000E82232D0E16
:1008800032182AE1335028E1816B826B010E986F98
:10089000FC0EDB0405E14BD9620E3226360E04D085
:1008A00046D97A0E3226360E3322DAD9E5D914D05B
:1008B0009FD9B2D900017FC032F080C033F07F2BC6
:1008C000000E8023320E321807E1335005E17F6BB2
:1008D000806B986B010E01D0000EF8D0F2D8AFD922
:1008E00002E04AD9FEE1AFD902E046D9FEE1E81CB8
:1008F000AFD9EF16EBD0DCD9DB50CA6EFD0EDB5062
:100900009D6EE4D0DED8020EE12600016151010A9D
:100910005EE0010A01E078D00FD9020EA6D9DE6EA2
:10092000DD6AD9CFE9FFDACFEAFF640EEE1806E1FF
:10093000ED5004E10001020E616F66D07BD965D9EC
:1009400032C060F077D9640ED8803256000E33562C
:100950005CD932C01AF1F0D8EF50DE6EDD6A0101C9
:100960001A510EE10A0E266E276ADECF2BF0DDCF7C
:100970002CF08BEC1BF024C01BF125C01CF11BD00C
:100980001A51346E356A56D90A0E3302F3CF33F05A
:100990003202F3CF32F0F4503326F3CF26F033C0D7
:1009A00027F01AC12BF035C02CF02CEC1CF026C01F
:1009B0001BF127C01CF10001612B60C062F0020E28
:1009C000E66E0D0EE66E97DFE552E5521DD0010191
:1009D0001A51000816E200017BC032F07CC033F0EF
:1009E0007B2B000E7C2301011B51325C1C513358C0
:1009F0000BE300017B6B7C6B01011A070001602B8C
:100A000003D0FDD80001612B020EE15C02E2E16A35
:100A1000E552E16E5BD039D920E04DD902E0ACD887
:100A2000FEE116D9EF1200016351632B326E190EED
:100A3000325C0FE2625106E102D902E09DD8FEE18C
:100A40004CD915D06207FBD802E096D8FEE121D937
:100A500010D060C062F0636B0CD0F1D802E08CD88B
:100A6000FEE1F1D802E088D8FEE137D9AFD821D82D
:100A7000EF162CD071EC13F053EF06F0FD0EDBCF28
:100A8000F6FFFE0EDBCFF7FF1200F626000EF72270
:100A90000800F550336E010E33521200FE0EEA6A62
:100AA000DB34FE0BEA36E96E890EE926000EEA22F7
:100AB00012000900F5CFE9FF0800F5CFEAFF325038
:100AC0001200D9CFE6FFE1CFD9FF1200E552E7CF00
:100AD000D9FF120091C0E6FF92C0E6FF3CEF06F09E
:100AE000FE0EDB50060DCCD8920E3226360E332287
:100AF00030EF06F0EF50E66E65EC00F0E552E5529F
:100B0000000912008BDCCAD8000A1200EAD8E9CF2B
:100B100032F0EACF33F0E9CFE6FFEACFE6FF69EC47
:100B200013F0E552E5520001040E646F1200FB0E53
:100B3000DB50060D40EF06F013EC0BF0A1D8FE0ED3
:100B4000DB50040D3250F324E96E3350F420EA6E8A
:100B5000120014EC01F0E552E552E55200091200D2
:100B6000FA0EDBCFE9FFFB0EDBCFEAFF12007DD8E8
:100B7000E66E020EE66E1200E846FE0B3306120029
:100B8000FC0EDB5004081200DF50EA6A6A0FE96EBF
:100B9000000EEA22EF6ADF2A1200A3D8E9CF78F02C
:100BA000EACF79F001011200060E35EF06F0010ED2
:100BB000E66E96EC06F0E55212000001020E646F3C
:100BC00012000001696B020E646F1200030EF6261C
:100BD000000EF7221200FE0B3336326E890E3226DB
:100BE000000E33221200E552E7CF32F053EF06F049
:100BF000FD0EDBCFE6FFFE0EDBCFE6FF1200E66A5E
:100C0000E66A79DEE552E5521200D890333232328C
:100C1000D89033323232120002DEE552E552120031
:100C2000860E916F360E926F1200940EE66E000ED5
:100C3000E66E1200DECF32F0DDCF33F012001EDFA1
:100C4000020E45EF05F049D834DFEF165BEF06F0F2
:100C5000326E14DFBBDF59EF05F0E66E3AEF05F0B8
:100C600032C0E6FF33C0E6FF12003BD8EF5012005F
:100C700028DFE652DF6A120031DEE552E55212004B
:100C8000F3CF32F0F4CF33F012001BDFF3DED4EFFA
:100C900005F0326EF3DE0DDFEF121200326E050E3C
:100CA000E15E32501200F3CFE9FFF4CFEAFF120009
:100CB00008DFFE0E1200E2DE050E45EF05F07A0EAB
:100CC000916F360E926F010E2DEF06F0950EE66EC7
:100CD000000EE66E010E2DEF06F0E81C326E3EEFC0
:0A0CE00005F0E926000EEA221200DA
:060CEA008D8C969C8D8E9E
:100CF000969E8C8095908C8295928C8495948C860F
:100D00009596969A9698969696948D9A8D988D9695
:100D10008D94A8C0A4F0A8C0A5F0A8C0A6F0B4C047
:100D2000B0F0B4C0B1F0B4C0B2F0120093EC0AF06D
:100D3000DBCFBFF080D30001BE51120093EC0AF06C
:100D4000DBCFBEF078D3EFDBDBCFBDF074D3000197
:100D5000BD511200C00E8D120F0E8C129EDB070EBD
:100D600050DBE9CF37F0EACF38F0C0510F016CDB30
:100D7000EFCF36F092DB040E44DBE9CF34F0EACF5C
:100D800035F0C0510F0160DBEF50326E336A000165
:100D9000C251E96EEA6AD890E936EA36990EE92638
:100DA000000EEA223250EE24F66E3350EE20F76E3B
:100DB0000800F5503614E66ED8EC1AF0E552000142
:100DC000C151050A14E0010A10E0070A0CE0010A0B
:100DD00008E0030A04E0010A0BE18D9C09D08D9E16
:100DE00007D08C9005D08C9203D08C9401D08C9637
:100DF000C12BC02B030EC05D07E1C06BC22B020EDE
:100E0000C25D02E1C26BC16B120019DB020EE1266A
:100E1000DF6A860EF66E370EF76E0800010EF5CF0C
:100E2000DBFFA0DBEF500AE055DB99DB190EEF6E1C
:100E3000AADB190EEF6E96DB040E55D04BDB8FDB71
:100E4000EF6AA1DBEF6A46DBEF6E030EDF5C40E288
:100E50005DDBEFCF32F0336A32BE33680A0E325CAC
:100E6000000E335808E352DBEF50E66E33DBDF5001
:100E7000EBDA16DB21D0FD0EDBCF32F0FE0EDBCF3E
:100E800033F0010EDB50356AE850325C3550335890
:100E900013E3010EDB50326E336AD950FD0FE96E59
:100EA000FF0EDA20EA6E3250EE5E3350ED5A12DB5E
:100EB000DF50CADAEF2ADFD7DF2ADF50F76A860F62
:100EC000F66E370EF7220800010EF5CFDBFFBDD717
:100ED00001DBEF500BE1FEDA190EEF6E54DBEF5041
:100EE00005E1F8DA010E8DDA190EEF6E020EE15C03
:100EF00002E2E16AE552E16E9ED20CEC0BF0040ACC
:100F00000FE0050A0BE0020A09E0010A07E0070A00
:100F100005E0050A01E012008D9612008D86120090
:100F2000D2EC0AF0010A09E0010A01E01200010E08
:100F3000E66E040EE66E82EF0AF08D861200000166
:100F4000BD51080A01E1A6D00F0A01E17FD0010AD4
:100F500066E0030A5BE00C0A4CE00D0A42E0070A77
:100F60001AE0010A10E0030A07E0010A01E096D046
:100F7000C6D98D9A8D9866D0010EBE6FE66A030EB3
:100F80007ADA54D906D0020EBE6FE66A030E73DA1F
:100F900060D926D983D0030EBE6F7DD921EC0BF02A
:100FA000020A08E0020A01E079D0E66A020E63DA7A
:100FB0008D9874D00CEC0BF0050A0FE0010A0DE0DF
:100FC000050A08E0030A06E0010A04E0030A07E153
:100FD0008D9801D08D888D9A02D08D988D8A8DDF65
:100FE0005DD0040EBE6F23DA270ED1DAE66E0A0E4C
:100FF00008D0090EBE6FCDEC0AF07CDAEF04E66E85
:101000000B0EE66ED3D8E552E55239D0E66A010EF2
:10101000E66E0C0EE66E0A0EE66E0B0E10D0060E95
:10102000BE6FE66ABFC0E6FF0D0EE66E0F0EE66EFF
:101030000E0E7FDA180EE66E170EE66E0E0EF0D963
:101040008D8A8D888D96E66AE66A1CD0070EBE6F83
:10105000E66ABFC0E6FF0B0EE66E0C0EE66E100EE3
:1010600068DA0D0EE66E0C0EE66E150ED9D9C6ECDA
:1010700000F0030804E0C6EC00F0060805E1E66AAB
:10108000030EE66E3FDA0AD0E66AE66A3BDA8D8A3C
:101090008D8804D033D8E66A010EEDD9AAEF06F0A8
:1010A000CED9E65201DA02E011DA26D0FA0EA7D93B
:1010B000EE52FE0E44DA010EA4D9FD0E40DA4FDAEC
:1010C000FC0EDBCFEFFF0ADAEBD908DA010E99D973
:1010D000E7D904DA44DAE4D9FA0EDBCFE6FFFB0EF7
:1010E000DBCFE6FFE66A23D8E552E552E552FA0E79
:1010F000DBCFE6FF0A0E89D9E5529DD1D5D903E1B0
:10110000BEC0BDF0120000010D0E9E6FA06BA0C00E
:101110009FF0A7C0A4F0A8C0A5F0A8C0A6F0E66AFA
:10112000010EB4D9E66A24EC0BF005EF0AF0FBD906
:10113000DB5012E00ADAE9CF32F0EACF33F012DA0C
:10114000EFCF34F0356A34BE356832503424E96E5E
:1011500033503520EA6E05D0F8D9010EE926000E8D
:10116000EA22EF50E66EFED9070E4BD999D9FD0E53
:10117000DB5019E00001B7C032F0B8C033F0B72B34
:10118000000EB8237CD911E1355033180EE1B76B4E
:10119000B86BE8D9EF5002E0000E01D0010EE66E08
:1011A000E1D97ED902D0DED9EF6A45D148D97CD9C0
:1011B00002E08CD90ED0FE0EDBCF32F00A0E3224C4
:1011C000000176D963D9010EE66EFD0EDBCFE6FF96
:1011D000C0D931D1A8D9DB500001B96FBA6B2BD17E
:1011E0000001B9C032F0BAC033F0B92B000EBA23F7
:1011F00032C0E6FF33C0E6FF13EC0BF060D97AD9BA
:101200002A0EC5D9346E356A25D90FE13550331809
:101210000CE10001B96BBA6B78EC13F06BD99FD974
:10122000EF5003E10001030EBD6F12003DD904E051
:101230004DD9B96BBA6B120000010B0E9E6FA06BFB
:10124000A0C09FF0E66A87EC0EF0DFD8A7C0A4F03C
:1012500012002AD902E066EF0AF00001B069AC6B17
:10126000ACC0ABF0ACC0AAF0010EE66EE0D8F3CF94
:1012700032F0F4CF33F0F3CFE6FFF4CFE6FF87ECA4
:101280000EF01DD90F013224E96E000E3320EA6EF4
:10129000EF5005EF0AF008D902E066EF0AF000010E
:1012A000A06BA0C09FF084EC0EF0000907E00001E5
:1012B000160E9E6FE66AE66A58D913D0E66A010EEA
:1012C000E66E53D9B4D8280E62D9326E336A1A0E3C
:1012D0003226000E3322090E325E000E335A32C01F
:1012E0009EF0A7C0B0F0A7C0A4F00001A96BA9C0F0
:1012F0009DF0140EDDD89BD8270E7FEF0AF0000179
:10130000B5C032F0B6C033F0B52B000EB6238A0E4E
:10131000F66E370E00D99ED80AE13550331807E132
:10132000B56BB66B9D6BA469030EBD6F1200E66AC8
:10133000010EACD8E66A7BD8340EE1D8010EE66E19
:10134000E66A0F0EE66E150EE66E100E69D8000105
:10135000BD6B1200E8D8DB504CE00001BBC032F09E
:10136000BCC033F0BB2B000EBC2389D80FE1355035
:1013700033180CE1BB6BBC6BD9D802E0000E01D076
:10138000010EE66E45D8E552E750EF6EFE0EDB50DB
:10139000050A28E0010A21E0070A13E0010A09E032
:1013A000030A2CE1C3D8E8B08D88E8B008D08D9846
:1013B00006D08D98BBD8E8B08D8AE8B01FD08D9A42
:1013C0001DD0B4D8E8B08D8AE8A08D9A8D50200B3E
:1013D00002E08D8813D08D9811D0A8D8E8B08D8602
:1013E000E8A08D96A3D8E8B08D84E8B007D08D949E
:1013F00005D00ED8EF6A0001BB6BBC6B1CD0DB5074
:10140000BBD0E926000EEA221200E66EA9EF0AF030
:10141000FD0EDB50EA6A3D0FE96E0F0EEA22120064
:10142000E66E3EDE326E050EE15E3250120013ECC7
:101430000BF07AEF0AF0E552E7CFD9FF1200D9CFCF
:10144000E6FFE1CFD9FF1200E924E96E000EEA20A1
:10145000EA6E1200E80E3502F3CF35F0030E3402C7
:10146000F3503526E80E3402F3CF34F0F45035262D
:10147000F35032181200E66E45D88D9612008C0E8D
:10148000F66E370E48D8345032181200E66EE66E0B
:101490004EDEE552E552E55212000001C2516CD019
:1014A000E552E750EF6E120024EC0BF00009120039
:1014B000AA6FAC6BACC0ABF0010EE66E1200E55249
:1014C000E7CF33F0E552E7CF32F012000001080E0B
:1014D000BD6F120047D8040E01EF0AF0FA0E8FDF3D
:1014E0000A0E8FDF010E53D8E66EFA0E88DF070E64
:1014F00001EF0AF0F3CFE9FFF4CFEAFF120047D87B
:1015000005EF0AF027DFE552E55212002BD8EE5224
:10151000DF5024EF0AF0F76E0900F5CF34F0080031
:10152000F5CF35F012008BDFFE0E120071DFEF50A9
:10153000120076DF010EE66EBFC0E6FF1200DBCFC1
:10154000EFFFFA0E5CDFEE5212000CD80A0E01EF2C
:101550000AF0E66A5ADCE552E552E5521200020E44
:1015600001EF0AF0FC0EFFEF09F0A9EC11F0E552D3
:10157000C1DF050E7FEF0AF00C0DBCDF9D0EE926E2
:10158000000EEA221200A6DF010E01EF0AF039DF99
:04159000EF50120006
:0C1594000001E7511200E8C0F3FFE9C0BD
:1015A000F4FF12000001E6511200020E0001DD5DA1
:1015B00003E0050EDD5D1DE1D2EC00F0010818E14D
:1015C0000001E2C032F0E3C033F0E22B000EE3236F
:1015D000500E325C460E33580AE3E26BE36B86DB57
:1015E0000F010051325C01E2010C84DB000C000CA5
:1015F000000CE26BE36B000C76DBDBCF00FFFDD26F
:10160000000E0F01386F396B0001E26FE36BE06F82
:10161000E16BDE6FDF6B12000001DD51120063DB56
:10162000DBCFDDF0EAD2010E326E0F0E32C0F3FFD7
:10163000F46E120058DBDBCFDAF0DFD20001DC51B0
:1016400012000001DA5112000001DB5112004BDBE5
:10165000DBCFDBF0D2D247DBDBCFE4F0CED2D2EC73
:1016600000F001081AE10001E0C032F0E1C033F0FF
:10167000E02B000EE123700E32180FE1170E331825
:101680000CE1E06BE16BE66A87DAEFCF32F0060E31
:10169000325C03E20001E46BE5DA12000F01335122
:1016A00001E07BD00001E45101E1100CE66A74DA3C
:1016B000EF50FA0801E1010CE66A6EDAEF50FB0820
:1016C00001E1020CE6DAEF50FA0801E1030CE1DA7D
:1016D000EF50FB0801E1040C010EE66E73DAEF50E7
:1016E00005E0010EF6DA040801E10F0CE66A6ADA99
:1016F000EF500DE0E66A66DAEE52EF0401E1050C08
:10170000E66A60DAEE52EF50020801E1060C020EC2
:10171000E66E58DAEF5011E0020EE66E53DAEE5242
:10172000EF0401E1070C020ED4DA020801E1080C13
:10173000020ECFDA030801E1090C5BDAEF5001E099
:101740000A0C57DA010EA9DA01E00B0C52DA020E8C
:10175000A4DA01E00C0C4DDA030E9FDA01E00D0C67
:1017600048DA040E9ADA01E00E0C71EC13F09ADA02
:10177000070E93DA01E0130CE66A320EE66EE66AB3
:1017800049EC15F0E552E552E66E320EE66EB0EC2D
:101790000EF0E552E552E552000C33511200A7EC71
:1017A00006F0000901E11200030E0001DA5D03E01A
:1017B00075DF0001DB6FDA51050A1AE0010A14E057
:1017C000070A10E0010A0AE0030A06E0010A01E044
:1017D0001200DC6B0CEF0CF015EF0CF0020EDC6F5E
:1017E00035EF0CF0DFEF0CF0040EDC6FEBEF0CF0DC
:1017F000F1EF0CF006DA30DA0EE1A7EC06F0E66E57
:101800009EEC06F0E552050E3ADAFE0EDBCFDCF078
:101810000001030EDA6FF1D1000136DA5E0EE76FD8
:10182000E66A28DA01E0C1D91200010EE66EE2DFB5
:10183000E55218DA0001DB5104E0010EDC6FD5EF50
:101840000DF0D2EC00F001080FE1020E0001DC5DAA
:1018500006E0DC0509E181EC0EF0000905E100017C
:10186000020EDA6F030E0BDA1200CBD9020EE1265C
:10187000E66E00DA05E0C4DE000197D9F3D998D00E
:1018800094DE000906E0EED90001DA6BDD6BB8DE0C
:101890008FD00001010EE46FE80401E089D0DD5132
:1018A000050A6BE0010A61E0070A48E0010A36E038
:1018B000030A1FE0010A01E07BD00F012951EA6A07
:1018C0002C0FE96E0F0EEA22EF50366F376BE80EE1
:1018D0003703F3CF37FF030E3603F3503727E80EF5
:1018E0003603F3CF36FFF45037270001010EDD6FCA
:1018F0005FD004DA09E287D800095AE00001020E3D
:10190000DD6FF8D974D854D00001030EDD6F6FD8A5
:101910007DD9ADD9E552010EE66E3AD0EFD905E298
:10192000010EDCD98BD944E33AD00001030EDD6F00
:10193000A6D90001DE6BDF6B69D915D0D7D90F01AD
:101940002851325C05E30001040EDD6FB0D91FD0D1
:10195000D5D92EE20001020EDD6F36CFDEF037CF93
:10196000DFF092D95E0E83D922D0B5D8000920E0ED
:101970000001050EDD6FBED91BD0B8D90F0128516B
:10198000325C09E30001040EDD6FDE6BDF6BE66A9B
:1019900077EC17F00CD0010E1AD950D909E30001E9
:1019A000DE6BDF6B010EDA6FE66EC9EC00F0E5521C
:1019B000020EE15C02E2E16AE552E16E1ED14CD911
:1019C00005E0DCC0DAF09BEC06F059D90001DB51F0
:1019D00001E0EBD81200040EE66E4CD901E0E5D828
:1019E00012000001DB5102E1DCC0DAF0120000015C
:1019F000E56B0F01386B396B12000001E66B0F01CC
:101A0000386B396B1200FDD8E6520001E551010A2E
:101A100038E0010A5DE10F011151125D010FDF6E27
:101A2000DF50346E356A2951EA6A1C0FE96E0F0ED9
:101A3000EA22EF50640DF3CF32F0F4CF33F0F3CF5E
:101A400026F0F4CF27F034C02BF035C02CF02CEC6E
:101A50001CF026C03BFF27C03CFF0001110EE86FC1
:101A60000F0EE96FE8C0E9FFEA6EEFCF3AFF3ACF19
:101A7000E6FF73EC17F0E552010E30D90001E52BBB
:101A800027D0D3D83B51321823E13C51331820E101
:101A9000386B396B3A513A2B125D10E10001E56B5E
:101AA000F3D8E8C0E9FFEA6EEF50E66E73EC17F08A
:101AB000E55200015E0EE76F010E0BD000013A0EF9
:101AC000E86F0F0EE96F3ACFE6FF73EC17F0E552BF
:101AD000000EE55292D00AD90F012951EA6A190F76
:101AE000E96E0F0EEA22EF50285DD88032540AE3E7
:101AF0000001E66B36CFDEF037CFDFF00F01386B39
:101B0000396B010C0001E651010A2DE0010A43E1A5
:101B10008CD82951EA6A160FE96E0F0EEA22EF50AF
:101B2000346E356AE80E3502F3CF35F0030E340219
:101B3000F3503526E80E3402F3CF34F0F450352656
:101B4000F350321828E13550331825E1386B396BE2
:101B50000001010EE66F3BD80F012951E824480F20
:101B60000001E76F000C61D82951EA6A130FE96E92
:101B70000F0EEA22EF500A0DF3CF34F0F4CF35F018
:101B8000F350321808E13550331805E1386B396BE2
:101B90000001E66B67D8000CA9EC11F0E55282D881
:101BA000050EE926000EEA221200050EDA6F320E4B
:101BB000E66EDB51E66EE66A5EEC15F0E552E55244
:101BC000E5521200DEEC00F0E55252EF0EF086D83E
:101BD0006ED877D8E5521200EFCF32F00F012951BD
:101BE000EA6A1F0FE96E0F0EEA22EF50285D325CA1
:101BF0001200B9EC00F052EF0EF0E552E7CFD9FF3A
:101C00001200D9CFE6FFE1CFD9FF12000F01295111
:101C10000001E86FE96B220EE8270F0EE9230F01A0
:101C20002951E824420F000112000F0138CF32F091
:101C300039CF33F0382B000E392312000001DEC0FB
:101C400032F0DFC033F0DE2B000EDF230F01365100
:101C5000325C37513358120071EC13F023D8060E62
:101C60004DEF0EF0E66A77EC17F0E5521200E76FE1
:101C700061EF0EF0BFDDE5520001DB511200E66EB0
:101C8000A3EC06F0E5521200300EE86F0F0EE96F7C
:101C90001200010EE66ECCEF0DF0E926000EEA22EE
:101CA000EF501200F3CFE9FFF4CFEAFF12000F016B
:101CB00029510001E86FE96B250EE8270F0EE92393
:101CC0001200E8C0E9FFE9C0EAFFEF50E66E73EFEB
:101CD00017F0E66E77DFEE52EF501200E66E77EC0B
:101CE00017F0E55212008DDFFE0E1200D2DFEFCFAB
:101CF00032F01200CEDFEFCF00FF1200CADFECEFB0
:021D00000DF0E4
:0E1D020001012051120001011F5112000101C8
:101D10001D511200F3DA325C02E263DAEF2A91D24B
:101D2000EDDAD880325402E25CDAEF068AD284DA45
:101D3000FB0EDB5007E0FC0EDB50E824010F69DAF4
:101D4000E9DF05D0FC0EDB50E82463DAE9DFE55279
:101D5000E552E55276D2D9DAEBDAEFCF1EF171D245
:101D60006BDAFC0EDB50F36EFD0EDB50F35C09E02A
:101D7000FE0EDBCFE6FFFC0EDBCFE6FF7EDA010EC8
:101D800001D0000E5ED2C1DA38DA01011E5D02E137
:101D9000000E01D0010E55D24FDAFC0EDBCFE6FF6C
:101DA00085DAF1DFE552E552E55200090AE0FC0E62
:101DB000DBCFE6FFDB50E76E14DAE7501EDAE66EA3
:101DC0005CDA3FD261DA060E40DA040E64DA050E00
:101DD000E66EC0EC00F0E552030EE66ED5EC00F0C6
:101DE000E552120029DA7FDA010B010840E121EC0B
:101DF0000BF0000908E021EC0BF0020838E173DA7F
:101E00001E0B0E0834E16FDA1E0B0E0A13E0180ADF
:101E100008E00C0A27E138DA010E17DA01011D6B20
:101E200021D032DA070E11DA010E35DA0101010E86
:101E3000206F18D021EC0BF0020808E101011F51BE
:101E400002E0000E01D0010E1F6F0CD0E66A64DACA
:101E5000040808E37ADAEF5005E02FDA03E031DA1C
:101E600001E1B0DFBED9020E63DAEF6AB9D13BDA25
:101E7000800B800801E0B4D136DA1E0B0E0A01E1B6
:101E800067D1180A01E1FED00C0A01E09ED1A7EC4F
:101E900006F0060A14E0070A07E0030A1DE1010E36
:101EA000D4D913DA79DF04D0020ECFD90EDA53DF9A
:101EB000E552E552E552E66AEAEC08F00CD0DBECBC
:101EC00000F0030809E1F9D907E0FBD905E1030EA9
:101ED000E66EA3EC06F0E55221EC0BF0050A01E1F9
:101EE000A9D0010A01E18DD0060A4AE0030A3AE0CE
:101EF000010A01E06AD1A7EC06F0040819E0A7EC9A
:101F000006F0090815E0A7EC06F0020811E0A7ECBE
:101F100006F001080DE0CFEC00F0000909E1020E27
:101F200002DA010EE66EF8D9E66EFCEC0AF0E55234
:101F3000A7EC06F0020801E148D1A7EC06F0010881
:101F400001E143D1A7EC06F004083CE0A7EC06F061
:101F500009086EE1F1D92F0E50D9E66E2F0E85D902
:101F60002F0E4AD0D2EC00F0010801E02ED1020E73
:101F7000DAD9030E6AD95DEC00F00101206B25D19E
:101F8000A7EC06F004081AE0A7EC06F0090816E032
:101F9000D2EC00F0010812E1E66A77EC17F0E552A6
:101FA000E66A1AEC0BF0E55200EC0BF0F7EC0CF0E3
:101FB000FDEC0CF0E66A0FEC0BF0C8D0A7EC06F0D5
:101FC000040808E1B9D9270E18D9E66E270E4DD9B5
:101FD000270E12D0A7EC06F009082AE1CDEC0AF092
:101FE00007D9EF50E66ECAEC0AF0E8407F0B3DD906
:101FF000CAEC0AF0E8407F0BE66EB2DEE552E5522D
:1020000016D05BD901E1E1D05CD901E0DED0E66A0F
:102010001AEC0BF0E552E66AD5EC00F0E552E66A00
:1020200096EC06F0E552010EE66EC0EC00F0E552CB
:10203000030E3AD0E66A27EC0BF0E5527DD9320E5A
:1020400077D9EF6A320EE66E000EE66E16D99BEC7B
:1020500006F0FBD8EBEC00F0070EE66EA1EC00F00A
:10206000E552010EE66E2BEC0BF0E55211EC01F09F
:10207000040802E1040E02D011EC01F0E66EC0EC9F
:1020800000F064D0A7EC06F0060A54E00F0A46E020
:102090000E0A3AE0030A33E0060A2AE0030A08E0DF
:1020A000020A01E092D0040EE66EA3EC06F04ED0D8
:1020B000F8D8FE0EF66E350EF76E0800F550346E49
:1020C000356A640E266E276A34C02BF035C02CF0BA
:1020D0002CEC1CF026C032F027C033F03206000E84
:1020E000335A3250E66E1D0EE66E010EE66E1ED0BD
:1020F000D8D8010EE66EE9D81ADEE55218D04D0E9A
:10210000F66E360EF4D812D0010EE66EC9EC00F071
:10211000E552010EE66E96EC06F018D021EC0BF0BD
:10212000020853E1CAEC0AF0010F0AD9F3DDE552C7
:10213000E5520CD0DBEC00F0030847E1BED845E0E7
:10214000C0D843E1010EE66ED5EC00F0E5523DD07B
:10215000A7EC06F0060A2CE00F0A1FE00A0A18E0B6
:10216000070A11E0060A09E0030A2FE19AD8E66A95
:102170001D0EE66E010EE66E17D093D8E66AA5D85E
:10218000D6DDE55212D04C0EF66E360EB0D80CD01D
:10219000090EE66EA3EC06F017D021EC0BF0020856
:1021A00014E1CAEC0AF0CCD8BBDDE552E5520CD004
:1021B000DBEC00F0030809E180D807E182D805E0F4
:1021C000020EE66ED5EC00F0E552030EE66EE66A0E
:1021D000E66A6CD8E3EC1BF0326E050EE15E32501D
:1021E00030D0FD0EDBCFE9FFFE0EDBCFEAFF1200A1
:1021F000F3CFE9FFF4CFEAFF12009AD8EF501200B4
:10220000F3CF32F0F4CF33F0F3CFE6FFF4CFE6FFB5
:10221000120060D8FC0EDB50E76EFD0EDBCF32F013
:10222000FE0EDBCF33F0E7503226000E332232C0F1
:10223000E6FF33C0E6FF1200D9CFE6FFE1CFD9FFBA
:102240001200E552E7CFD9FF1200E66EA3EC06F0CC
:10225000E5521200270E6CD8E9CF32F0EACF33F006
:10226000E9CFE6FFEACFE6FF1200E66EE66A49EC48
:1022700015F0E552E552E66E1200E66A5EEC15F0E6
:10228000E552E552E5521200A7EC06F0E66E9EEC30
:1022900006F0E552120047D8E66A96EC06F0E552E1
:1022A0001200E66AEAEC08F0E5521200FD0EDBCF00
:1022B000E6FFFE0EDBCFE6FF120047D8020EFDEF71
:1022C00010F043D8040EFDEF10F01DC1E6FF34D826
:1022D00000EF11F0F76AFE0FF66E350EF7220800D8
:1022E000F550E66E12007DDF020EFDEF10F0F76E86
:1022F0000800F550E66E20D82AEF11F09DDF71DF5F
:10230000EFCF32F0FC0EDB50120096DFFC0EDB50FC
:10231000E76E67DFE7501200A9EC11F0E55268DFC5
:10232000050EFDEF10F0E66E1AEC0BF0E552120010
:10233000E926000EEA22120013EC0BF0F8EF10F081
:10234000C9DFCDEC0AF000EF11F071EC13F0F8EFFB
:0223500010F08B
:0E23520069D9FE0EDB50060DF3CF32F0F4CF4A
:1023600033F0C70E3226000E332232C0F3FF33C0E3
:10237000F4FF5ED1E00EE66EEF0EE66E040EE66E42
:10238000EB0EE66E76EC1AF0E552E552E552E552B8
:102390009280928292849286928A9988120043D97E
:1023A000030EE126FA0EDB50DF6E010EDB6A010E32
:1023B000DB50DF24FE0BE842E76E020EE7CFDBFFC7
:1023C000F90EDB5006E0F9D837D905E34ED911E212
:1023D00009D04BD904E2020EDB50DF6E0CD0EDD8F1
:1023E0002BD907E2020EDB50E76E010EE7CFDBFFD1
:1023F00002D0020E06D0010EDB50DF5C0108D7E1EF
:10240000010EDB50326E030EE15C02E2E16AE5523E
:10241000E16E32500DD1D9C0E6FF12D8E55200016D
:10242000D92B030ED95D01E1D96BD951F76A740F2D
:10243000F66E2D0EF4D8E66EFDEC1BF0E5521200A0
:10244000F2D819D9EF50EF2A326E400E325C12E208
:10245000CFEC1CF0C9EC1CF00009FCE1C0EC1CF056
:10246000F3CF32F0F4CF33F09CD83250EE26335015
:10247000ED2296D096D802D9060ED8903332323259
:10248000E804FBE10AD98DD8EE6AED6AF4D8EF6A68
:10249000FE0EDB50020A01E183D0020A03E0010ACA
:1024A00001E07ED0D0D8B5D803E2EDD8FB0E77D0CE
:1024B000EDD803E2E8D8FA0E72D0C5D8AAD820E346
:1024C000C2D8EECF34F0EFCF35F08CD8EECF38F065
:1024D000EFCF39F092D8A3D8020D3850F324F66E1E
:1024E0003950F420F76E0900F5CF36F00800F5CF2B
:1024F00037F03650345C3750355802E2A7D81DD03B
:10250000C5D82AE3A0D8BAD86DD8EECF36F0EFCF31
:1025100037F073D8F722010EF626000E80D8020D90
:102520003650F324F66E3750F42097D885D814E24D
:102530008DD8F722010EF626000E71D8020D345008
:10254000F324F66E3550F420F76E0900F5CF32F023
:102550000800F5CF33F0A1D8FE0EDB50F76A6E0FFE
:10256000F66E2D0E5CD8E66EFE0EDB50F76A770F26
:10257000F66E2D0E54D8E66E35D8EECFE6FFEFCFCF
:10258000E6FF61D8EECFE6FFEFCFE6FF08DF326E61
:10259000060EE15E3250E66E76D8E552E750EF6EF9
:1025A00047D0FE0EDB50060DF3CFE9FFF4CFEAFF74
:1025B000C70EE926000EEA221200FD0EDBCF32F034
:1025C000FE0EDBCF33F0020E376ADB34FE0B3736FC
:1025D000366EFB0EDB503624F66EFC0EDB503720D9
:1025E0002DEF13F0FE0EEA6ADB34FE0BEA36E96EDD
:1025F000C30EE926000EEA221200FE0EF76ADB3453
:10260000FE0BF736F66E700EF6262D0E1200030E38
:102610004AD034D80A0E325C000E33581200F7222A
:102620000800F5501200D9CFE6FFE1CFD9FF120024
:10263000E552E7CFD9FF12003250345C33503558A1
:102640001200050E30D0ADDF07EF13F0CBDFEECF79
:1026500034F0EFCF35F0FDEF12F0F76E0900F5CF53
:1026600034F00800F5CF35F01200A7DF3450325CAB
:1026700035503358120095DF020E15D0EECF32F0F0
:10268000EFCF33F012008DDF21EF13F0DCDFD40E3B
:10269000D880EE54030EED541200D5DF32C0EEFFA9
:0E26A00033C0EDFF1200E926000EEA22120000
:0226AE00938A0D
:1026B0009A8E94809A88938893829A8C94829A8630
:1026C00093809A849A821200F5C0F3FFF6C0F4FF5B
:1026D0001200DAD8FD0EDBCFF5F0FE0EDBCFF6F000
:1026E000CFD0ED0E326E000E32C0F3FFF46E12004A
:1026F000EA0E326E000E32C0F3FFF46E1200C4D840
:10270000FD0EDBCFE6FFFE0EDB50E552E718B8D03A
:10271000F19E868A010EE66E8150200B01E0010ECB
:10272000A2D80001ED6F010EE66E8850800B01E02B
:10273000010E99D80001EE6F010EE66E8250010B7A
:1027400092D80001EF6F010EE66E8850100B01E089
:10275000010E89D80001F06F010EE66E8150020B68
:1027600001E0010E80D80001F26F010EE66E81508B
:10277000100B01E0010E77D80001F36F010EE66E39
:102780008850400B01E0010E6ED80001F16FF18E10
:10279000869A010EE66E8250020B01E0010E63D8AC
:1027A0000001F46F120070D8020EE126F19E868AB5
:1027B000010E8114DF6E0E0E8814E76E010EE7CF56
:1027C000DBFFF18E869ADB50DF26DF9EDF460001BD
:1027D000EA5111E11E0EDF5C30E04AD80A0E3218D1
:1027E0002CE133502AE1DFCFECF0010EEA6FEB6F02
:1027F000F76BF86B1ED01E0EDF5C0BE1EB5104E0B3
:102800007E0EEC17800EEC27EA6BF76BF86BEB6B28
:1028100014D0EB5112E02CD8880E325C130E3358D2
:102820000CE3F76BF86BEB6B7E0EEC17EC2B010EE9
:10283000EA6FE66E30EC19F0E552020EE15C02E25E
:10284000E16AE552E16E1CD021EC0BF0030809E0CF
:10285000AADFEA0EE66E000EE66EF2EC0EF0E5522E
:10286000E55288EF13F0E66E4ADFE552E5521200BA
:10287000F7C032F0F8C033F0F72B000EF823120047
:10288000E552E7CFD9FF1200D9CFE6FFE1CFD9FF5C
:02289000120034
:0E289200030E39D8EF5004E0D950E76EE1286C
:1028A000D96EE1503C6EED50E126ED50FA6EED50E0
:1028B000F96E1200030E28D83C50E15CED6EFE501C
:1028C000ED6EFD50ED6EEF86060012000600120060
:1028D0003B6A70EF14F012003B6870EF14F01200C6
:1028E0003A90030E11D83C50E15CED6EFE50ED6E57
:1028F000FD50ED6EEF96EFA8EF9A3BB0EF8A120015
:10290000000E84EF14F012003D24E96EEA6A120012
:10291000D9CFE6FFE1CFD9FFE652DF6AFE0EDB50EA
:1029200002E0010EDF6EECDFEF9AEF98DFA011D02E
:10293000FE0EDB1EDB2A3DC0E9FF3EC0EAFF040EAF
:10294000E926000EEA22FE0EDBCFEFFFD9DFEF888B
:10295000EF86E552E552E7CFD9FF1200F250C00BE7
:10296000F29ED0BEF29C1200E8BEF28ED0BEE8AC61
:1029700001D0F28C12003A9AC3DF3B5006E0EFA67A
:1029800002D0EF980DD0EF8601D0EF96EF50100BEC
:1029900006E1EF50200B03E0EF863A8A01D00600F3
:1029A00012003A6A190E026E000E036E059C0A9C14
:1029B0000F9C149C199C1200000105A902D0094B20
:1029C00005990AA902D00E4B0A990FA902D0134B00
:1029D0000F9914A902D0184B149919A902D01D4BB4
:1029E00019991200D9CFE6FFE1CFD9FF020EE126F7
:1029F0003A92050EDE6E000EDD6E3B6A2FD8EF5068
:102A0000400B15E1FE0EDB8CDB8628D8EE52FC0E67
:102A1000DBCFEEFFFD0EDBCFEDFF20D8040E23D879
:102A2000030E21D8FE0EDBCFEFFF3A920DD0D9CFA7
:102A3000E9FFDACFEAFF050EEE26000EEF223B2A71
:102A4000050E3B5CDBE33A82020EE15C02E2E16AE6
:102A5000E552E16EE552E7CFD9FF1200DECFE9FF84
:102A6000DDCFEAFF1200E926000EEA22EF6A2EEF20
:022A700015F05F
:0E2A7200E4EC19F013EC0BF0F3CF32F0F4CFDC
:102A800033F0F3CFE6FFF4CFE6FF41D8E552E5524D
:102A90001200A2D86FD8010EE66EF6EC19F0E552DE
:102AA000A10EA6D820EC1AF0DF6E010EE66E17EC30
:102AB0001AF0E55206EC1AF0DF507FD0D9CFE6FFCE
:102AC000E1CFD9FF57D8FC0EDBCFE6FF0FEC1AF0B1
:102AD000E55206EC1AF0C30EF66E370EF76E0800DC
:102AE000F550E66E53EC1CF068D076D8DF6AFB0E2A
:102AF000DB50DF5C0BE2FE0EDB50DF2473D8E66EAA
:102B0000FC0EDBCFE9FFFD0E46D8F1D756D064D8D6
:102B10000101255167D80101265D0DE125C1E6FFC0
:102B2000FD0EDBCFE6FFFE0EDBCFE6FF27C1E6FFA3
:102B3000DCDFE5521BD0DF6A01012551DF5C10E2CA
:102B400041D8DF502725E66EE66AB8DFE552E55248
:102B5000E55238D8FD0EDBCFE9FFFE0E1CD8ECD7CE
:102B600026C1E6FF2551E66EE66AA8DFE552E5528A
:102B7000E55223D0E66AF6EC19F0E552A00E38D8FB
:102B8000FF0EE76EFD0EDBCF32F0E7503216336AF0
:102B90003250F8EF15F0DBCFEAFFE9CF32F0EACFA1
:102BA00033F0DF500F01E924E96E000EEA20EA6EEF
:102BB000E552E750EF6EDF2A1200E552E552E7CF0B
:102BC000D9FF1200DF50F76A8E0FF66E370EF7222C
:102BD0000800F550E66E1200D9CFE6FFE1CFD9FF2D
:102BE000E6521200E66EE66A54DFE552E552120044
:0A2BF000E66E0FEC1AF0E552120039
:062BFA0015030C030203A9
:102C0000F802ED02E302D802CE02C302B802AD021E
:102C1000A10296028B027F02740268025C025102DA
:102C200045023A022E02220217020B020002F501AF
:102C3000E901DE01D301C801BD01B301A8019E0174
:102C400094018A01800176016C0163015A015001EF
:102C500048013F0136012E0126011E0116010E0119
:102C600007010001F900F200EB00E400DE00D800EB
:102C7000D200CC00C600C100BB00B600B100AC0061
:102C8000A700A2009E009900950091008D00890088
:102C9000850081007E007A007700730070006D006F
:102CA0006A006700640062005F005C005A00570021
:102CB0005500530051004E004C004A0048004600A9
:102CC00045003B00470053005F006B007700830026
:102CD0008F009B00A700B200BE00CA00D500E10033
:102CE000EC00F70003010E01190124012F013A0144
:102CF000450150015B01660171017C018601910172
:102D00009C01A601B101BB01C501D001DA01E401BA
:102D1000EF01F90103020D02170221022B02350215
:102D20003E02480252025C0265026F027802820291
:102D30008B0295029E02A702B102BA02C302CC0224
:102D4000D502DE02E702F002F90202030B031403CC
:102D50001C0325032E0336033F0347035003580388
:102D60006103690371037A0382038A0392030001FA
:092D7000005563009F8FE75664D3
:062D7A00DACFE4FFE2CF16
:102D8000DAFFE9CFE4FFEACFE4FFF6CFE4FFF7CFC5
:102D9000E4FFF5CFE4FFF3CFE4FFF4CFE4FFFACF95
:102DA000E4FF00EE1EF0140EE80403E3EECFE4FFB0
:102DB000FBD700EE32F0080EE80403E3EECFE4FFA9
:102DC000FBD7E652F2A405D0480ED66EF294DCECA6
:102DD00014F0F050020B0AE0F050100B07E0F092F4
:102DE0000101010E236F212B000E2223F050010B55
:102DF00007E0F050080B04E00101010E246FF09091
:102E00009E50020B12E09D50020B0FE09E9209ECC7
:102E100002F0F3CF3FF0F4CF40F0F3CFE6FFF4CF72
:102E2000E6FF0BEC05F0E552E552E55200EE39F015
:102E3000080EE80403E3E5CFEDFFFBD700EE31F029
:102E4000140EE80403E3E5CFEDFFFBD7E5CFFAFF6F
:102E5000E5CFF4FFE5CFF3FFE5CFF5FFE5CFF7FFD3
:102E6000E5CFF6FFE5CFEAFFE5CFE9FFE5CFDAFFF3
:102E70001100200EF26E840EF16ED80EF06ED08E20
:102E8000D76AD66AC50ED56EF28E020EA26ECA6AD7
:102E90009D6AA06A9F6E9384120018D8DB500101CE
:102EA000216F226B19D021C1F3FF22C1F4FF120060
:102EB0000DD8DBCF23F110D0010123511200010105
:102EC0002451120003D8DBCF24F106D0D9CFE6FF7E
:102ED000E1CFD9FFFE0E1200E552E7CFD9FF120075
:102EE00097948E94120092D8DBCF04F195D08ED8AF
:102EF000DBCF01F191D0010101511200010100511C
:102F000012000101010E006FE8501200000E0101D5
:102F1000066F076B056F0A6F0B6B1200A7EC06F0CC
:102F2000000901E11200EDDF21EC0BF0030802E1E2
:102F30008E94120001010251030A17E0010A0EE00B
:102F4000030A01E0120002C103F1005102E1020E86
:102F500003D0015120E0030E026F1200005103E084
:102F600003C102F112008E94120002C103F100515C
:102F700007E1020E026FE66A58EC17F0E55205D041
:102F8000015105E1010E026F8E9486EF17F004C126
:102F9000E6FF02D8E552120039D8DB50080802E1FA
:102FA0008E8433D0FE0EDB0402E18E942ED05CECD6
:102FB00017F0000928E001010C51010A1DE0010A87
:102FC00024E10AC132F00BC133F00A2B000E0B23AF
:102FD000FE0EDBCFE6FF0A0EE552D880E754FF0F66
:102FE000FF0F356AE850325C355033580EE30A6BF8
:102FF0000B6B8E840C2B09D08E940C6BE66A58EC0C
:1030000017F0E55202D001010D6B06D0D9CFE6FFD3
:10301000E1CFD9FFFE0E1200E552E7CFD9FF120033
:103020009B8CBAEC11F070EC17F075EC06F044ECE8
:1030300000F02DEC19F031EC1AF057EC13F0E668C3
:1030400015EC1CF0E55239EC15F039EF17F0E8DF1C
:10305000D1EC14F0360EE66E390E7BD8840EE66E97
:10306000380EE66E010EE66E6ED81C0EE66E390E58
:10307000E66E010EE66E67D8500EE66E390E69D820
:10308000020EE66E390E65D83A983A86080E046E3E
:1030900002C03DF003C03EF0190E3D5C000E3E58EC
:1030A00005E3050E3D6E000E3E6E04D0050E3D2676
:1030B000000E3E2280EC14F0EF50400B2AE0EF505F
:1030C000800B27E1EF50070B3B6ED880045421E2C0
:1030D000EFB60DD049EC14F03C50E15C04E03C50FC
:1030E000E16EE750D96E3AA6CFD780EC14F0EF50DE
:1030F000100B03E0EF50200B0CE0EFA60AD03A884B
:103100003DC000F03EC001F0EF50070B046EE850E8
:1031100006E002503D18C0E103503E18BDE13AA858
:10312000B3D73A9600C03DF001C03EF000C002F0B7
:1031300001C003F080EC14F0EF50400BA5E0EF501D
:10314000800BA2E1C7D7F2EC14F0E552E552E5524C
:0A3150001200E66EE66AA3EF18F025
:06315A0000858F0A9B1E98
:103160001491B3363CB928ADA722E3666CE978FD2B
:10317000F77250D5DF5ACB4E44C143C6CC49D85D17
:1031800057D2F0757FFA6BEEE461A0252FAA3BBE03
:10319000B43113969C19880D07828603098C1D98FB
:1031A000921735B0BA3FAE2B21A465E0EA6FFE7BE3
:1031B00071F4D65359DC4DC8C247C5404ACF5EDBD7
:1031C000D15476F3F97CED6862E726A3A92CBD38CB
:1031D00032B795101A9F0E8B8104890C06831297C3
:1031E0009D183ABFB530A1242EAB6AEFE560F174AB
:1031F0007EFBD95C56D342C7CD48CA4F45C051D497
:10320000DE5B79FCF673E2676DE829ACA623B23782
:103210003DB89A1F159001848E0B0F8A800594117A
:103220001B9EBC3933B627A2A82DEC6963E677F262
:10323000F87D5FDAD055C4414BCE4CC9C346D75256
:1032400058DDFF7A70F564E1EB6EAF2A20A534B14A
:0A325000BB3E1C9993168702088DFF
:06325A00949A8B9A120009
:10326000D9CFE6FFE1CFD9FFFE0EDBCFFEF0E5526E
:10327000E7CFD9FF120013EC0BF0F3CFE9FFF4CF47
:10328000EAFF290EE926000EEA22EF5047E021EC82
:103290000BF0030843E00001FE5111E08B7AFCC003
:1032A00032F0FDC033F0FC2B000EFD234B0E321824
:1032B00006E1335004E1FC6BFD6B8B9AFE6B21EC55
:1032C0000BF0050825E10001FB5102E0000E05D0DE
:1032D0008B50200B200A01E0010EE8B08B8AE8A099
:1032E0008B9AF9C032F0FAC033F0F92B000EFA23B2
:1032F000F40E321819E1010E33180FE1F96BFA6B75
:10330000FB5102E0000E01D0010EFB6F8B7A120020
:103310000001FE5109E18B9AFB6B12008B9A0001B0
:0A332000FE6BFC6BFD6BFB6B1200F3
:06332A000E0EF66E000E0F
:10333000F76E000EF86E01010900F550136F0900D9
:10334000F550146F03E1136701D03DD00900F5502B
:103350000E6F0900F5500F6F0900F550106F09004E
:103360000900F550E96E0900F550EA6E0900090000
:103370000900F550116F0900F550126F090009009E
:10338000F6CF15F1F7CF16F1F8CF17F10EC1F6FF12
:103390000FC1F7FF10C1F8FF0101115302E11253F1
:1033A00007E00900F550EE6E1107F8E21207F9D7B1
:1033B00015C1F6FF16C1F7FF17C1F8FF010113078A
:0833C000000E145BBFD71200E0
:0833C80094889486800EC76E04
:1033D000280EC66EC56A270EC86E9E9612001F0E76
:1033E000C514FDE1C750040BFAE11200D9CFE6FF86
:1033F000E1CFD9FFF4DFFE0EDB5004E1C580C5A0AC
:1034000004D0FDD7C582C5B2FED727D0C584C5B4C8
:10341000FED71200C550400B01E0010E120016D875
:10342000C96EC6BE03D0C7B0FED7D9DF16D00ED83E
:10343000E8B0C58AE8A0C59AC588C5B8FED70DD042
:10344000CEDFC586C7A0FED7C9501200D9CFE6FF90
:10345000E1CFD9FFFE0EDB501200E552E7CFD9FFD6
:02346000120058
:0E346200BBEC1AF0959A8C8A909A999A8A96E9
:10347000939612008C8A00008C9A1200D9CFE6FF36
:10348000E1CFD9FFF7DFFD0EDBCFE6FF26D8E5520F
:10349000E7CFD9FF1200D9CFE6FFE1CFD9FFE6523F
:1034A000E9DFDF6AFC0EDB50DF5C12E2336ADF34F7
:1034B000FE0B3336326EFD0EDB503224E96EFE0E0B
:1034C000DB503320EA6EEF50E66E07D8DF2AEAD7EA
:1034D000E552E552E7CFD9FF1200C6EC1AF0E552EB
:0C34E000030EE66EB5EC1CF0E552120085
:0434EC00D9CFE6FF4F
:1034F000DACFE6FFE1CFD9FFE2CFDAFFC098C26AA8
:10350000C16AFC0EDB50400DF350C00B326EFC0E56
:10351000DB407F0B3C0B3210C26EFD0EDB50040D06
:10352000F350380B336EFD0EDB380F0B070B326E8A
:10353000FD0EDB50800B32103310C16EC088FA0EC6
:10354000DB50C16EFA0EDBCF32F0FB0EDBCF33F077
:1035500033C032F0336A3250C26EC098FC0EDBAE1C
:1035600003D09E9C9D8CF28CC280E552E5CFDAFFA1
:06357000E7CFD9FF1200B5
:0A357600C00E6D6E200E6C6E95986D
:10358000959C91909A908C9E959E1200D9CFE6FFC3
:10359000E1CFD9FFE6526F50DF6E9E96FE0EDB50F4
:1035A0006F6E9EA6FED7E552E552E7CFD9FF120017
:1035B000D9CFE6FFE1CFD9FFE652DF6ADFCF32F0A5
:1035C000080EE76E3218E8AE02D0E73402D0E750BA
:1035D000325C10E28C9EFE0EDBAE02D0918001D0F8
:1035E00091908C8EDBCFF3FFF39EF346F3CFDBFF9E
:0E35F000DF2AE4D7E552E552E7CFD9FF1200FB
:0235FE000A635E
:10360000013C1C6400030A63013C1C6400000A6363
:10361000013C1C6400070A63013C1C6400000202B8
:103620000408057805780578012401240124010A9D
:10363000010A010A062A062A062A010F01080108C2
:103640000108010801080108010801081E5A0002CA
:103650000001083C013F013F013F020A0108051437
:0236600012D87E
:0E366200900F008F0F00900F008D0F00900F43
:10367000008F0F04900F008E0F068F0F03900F0125
:10368000900F03900F018E0F05900F018E0F079082
:103690000F01900F008F0F03900F00900F03900FFA
:1036A000008E0F05900F008E0F07900F018F0F00F7
:1036B000900F018D0F00900F018F0F04900F018E5E
:0236C0000F06F3
:0E36C200D9CFE6FFE1CFD9FFFB0EDBCFF3FF40
:1036D000DB06F350000919E0FE0EDBCFE6FFFC0E1F
:1036E000DBCFE9FFDB2AFD0EDBCFEAFF01E3DB2ABC
:1036F000EF50E552E718F76A5A0FF66E310EF722CF
:103700000800FE0EF5CFDBFFE0D7FE0EDB50E552E2
:06371000E7CFD9FF120013
:0A37160026C030F026502B02F4CF3D
:1037200025F0F3CF24F027502C02F4CF27F0F3CF6D
:1037300026F02B02F3502526F4502622E86A272291
:1037400030502C02F3502526F4502622E86A272216
:02375000000C6B
:0E375200057D26645CC4846D04440C0E15864F
:103760008797C454840D968E341C7DFF44E72C2526
:10377000871514670405060EC41C5CDC1585144609
:0E3780009C1EA486E7FF640A01000500F40108
:02378E00140322
:1037900048031E0A6400140348071E1E6400020347
:1037A0001428280C06060502020F05050C04060263
:1037B00003030203033201010F06030302030A128B
:0537C0000000C880BB01
:0A37C600FE0EE3CFE9FFFF0EE3CF94
:1037D000EAFFE9CFF3FFEACFF4FFFB0EE35003E18A
:1037E000FC0EE35009E0FB0EE30602E2FC0EE306EA
:0A37F000FD0EE350EE6EF1D712005B
:0637FA00D9CFE6FFDACF93
:10380000E6FFE1CFD9FFE2CFDAFFC098C30EC214C2
:10381000326EFD0EDB407F0B3C0B3210C26EE55268
:0A382000E5CFDAFFE7CFD9FF120071
:06382A00FF0EE350426EA8
:10383000EF0E01D0F30EE76EE72E1CEF1CF00C0E1E
:10384000416EE76AE72E22EF1CF0412E21EF1CF0BB
:08385000422E1AEF1CF01200D9
:08385800236A226A100EE76EDC
:10386000D89026362736223623362B50225C2C5011
:10387000235805E32B50225E2C50235A262AE72E8C
:04388000F0D712006B
:0C3884009FEC07F08EEC17F03BEC19F005
:103890000400010EE66E88EC14F0E5525AEC14F0C8
:0638A0000000F0D7120049
:0A38A600FF0EE350426E480E01D001
:1038B0004C0EE76EE72EFED7E76AE72EFED7422EC4
:0638C000F7D70000120022
:0A38C600400EF36E00EE00F00F0E4E
:1038D00001D81200EA6002D0EE6AFCD7F350E9602A
:0638E0001200EE6AFCD7A5
:0A38E6001EEE00F02EEE00F0F86A6E
:1038F0001F9C95EC19F0D2EC1CF027EC18F0FBD7CC
:023900001200B3
:0E39020042EC02F00400010EE66E88EC14F0B8
:0C391000E5525AEC14F00000F4D712004D
:04391C00CFEC0BF0F1
:103920000400640EE66E88EC14F0E5525AEC14F0D4
:063930000000F4D71200B4
:0A39360024EC14F00400010EE66E0C
:1039400088EC14F0E5525AEC14F00000F4D71200A1
:103950000BEC12F00400010EE66E88EC14F0E55258
:0A3960005AEC14F00000F4D7120036
:06396A00FF0EE350E84EE1
:103970001200000000D000D000D0E82EFAD71200CC
:10398000C450356E346AC3503410F36E35C0F4FF42
:02399000120023
:0C399200C098C250020B01E0010E1200B0
:02399E00C098CF
:0439A000C2821200CD
:0239A40012000F
:0639A6000000000000001B
:0439AC000000000017
:1039B0000000010000000000000000000000000006
:1039C00000000000000000000000000000000000F7
:1039D000000000000000000000000000006236004F
:0539E0000000000000E2
:0B39E5000000000000000000000001D6
:0539F00000005E000074
:0B39F5000000000000000000000000C7
:043A0000F1000000D1
:0C3A040052376C3700000000000000008A
:103A10000000FBFF00000000000000000000FBFFB2
:0E3A2000000000000000000000000000000098
:023A2E00010095
:0C3A300001010200000000000000000086
:043A3C00C22CFA2B73
:103A40000000000000000000000000000000000076
:033A500000000073
:043A5300000000006F
:043A5700000000006B
:033A5B0035AA0089
:020000040001F9
:01FFF800AD5B
:01FFF900F710
:01FFFA000501
:01FFFB00F80D
:01FFFC00F014
:01FFFD00FF04
:00000001FF
