:020000040000FA
:06000000CEEF1AF0120021
:020006001027C1
:06000800D0EF15F012001C
:02000E000A00E6
:1000100001370000FD00000003000000FD36000075
:100020001301000004000000F93600000F01000079
:1000300004000000E2360000B400000017000000D9
:10004000D4360000E90000000E000000B9360000C0
:10005000990000001B000000AB360000DB00000030
:100060000E0000009B360000CB00000010000000D6
:100070006236000060000000390000005C360000BD
:08008000F7000000060000007B
:080088009090909299909992DA
:1000900090968D909996969090948D929994969230
:1000A0008F968F90989698968E9A8E9C979A979CFA
:1000B0008E9E8F98979E989812000001010E646F93
:1000C000666F696B676F656B120045EC06F024E0A4
:1000D000000185C032F086C033F0852B000E8623E8
:1000E000B80E321819E10B0E331816E1FD0EDB5075
:1000F000EA6A6A0FE96E000EEA22FE0EDBCFEFFF1E
:10010000856B866BDB5006E0020E646F6AEC05F0CF
:10011000010E03D0000E01D0000E66EF05F058EC82
:1001200006F0DBCF71F0FD0EDBCF72F0FC0EDBCF03
:1001300073F0FB0EDBCF74F0FA0EDBCF75F066EFD9
:1001400005F038EC06F0FE0EDB50DF5C03E2C4EC99
:1001500005F0F9D7E55266EF05F038EC06F0FC0E35
:10016000DB50DF5C03E2C4EC05F0F9D7E55266EF43
:1001700005F06A0E326E000E32C0F3FFF46E12000C
:1001800058EC06F0DBCF64F066EF05F00001665135
:10019000120058EC06F0DBCF65F066EF05F00001C9
:1001A0006551120000016451120058EC06F0DBCFDB
:1001B00068F066EF05F000016851120061EC05F08F
:1001C000FE0E336ADB34EBEC05F032C0F3FF33C0D4
:1001D000F4FF66EF05F038EC06F0030EDF5C12E288
:1001E000020EE66EE66AE66A336ADF34EBEC05F08F
:1001F00030EC06F02EEC1AF0346E050EE15E345051
:10020000DF2AEBD70E0EE66EE66AE66A7B0EE66E36
:10021000000EE66E2EEC1AF04EEC06F0E55266EF9C
:1002200005F000017A51120038EC06F03AEC05F0C6
:10023000D4EC05F003E16AEC05F0E8D00001695167
:10024000030A01E1B1D0010A01E1A8D0030A26E0C6
:10025000010A01E0DBD0FD0EDB5014E0C0EC05F03C
:1002600011E0615103E1010EDF6ED0D06AEC05F0C0
:100270004EEC05F0EF6ACEDA00017B6B7C6B020E70
:10028000696F21D0FE0EDBCFE6FF3CDBE552020EAC
:100290000001615D01E0BAD0BDDA83D091C0E6FF14
:1002A00092C0E6FF0CEC06F0FD0EDB500EE0C0EC59
:1002B00005F00BE00001692B7D6B7E6BEFDBEF6AD5
:1002C0006AEC05F00001936BA1D0C0EC05F022E1CF
:1002D000000187C032F088C033F0872B000E8823DE
:1002E000340E321817E1210E331814E1876B886B36
:1002F00072EC16F0000905E0E66A75EC16F0E552BE
:1003000009D000017D6B7E6B692BE4DB0001010EDF
:10031000936F7CD000017DC032F07EC033F07D2B26
:10032000000E7E2330EC06F0BEEC06F0E552E7CF7F
:1003300033F0F3EC05F0F3CF36F0F4CF37F0FE0EE8
:10034000DB50040D3650F324E96E3750F420EA6E8A
:10035000EE52EF50346E356AE80E3502F3CF35F0C9
:10036000030E3402F3503526E80E3402F3CF34F096
:10037000F4503526F350321849E13550331846E130
:100380000001692BE66A75EC16F0E5520001876BF7
:10039000886BA0DB00017D6B7E6B38D0A1DB3CEC71
:1003A00006F00001692B32D0FE0EDBCFE6FFFC0E1B
:1003B000DBCFE6FF95DB40DAE552E552E552E55248
:1003C000000924E08DDB3CEC06F00001696BFD0EBA
:1003D000DB5002E0D5DB04E1D3DB04E1935102E121
:1003E000010EDF6EFD0EDB5002E1CADB04E1C8DB6B
:1003F0000DE193510BE0936B020EDF6E4FDB010EAC
:10040000EF6E4CDBEE52FC0EDBCFEFFFDF50E55220
:100410005DD391C0F3FF92C0F4FF120052DBFC0EDB
:10042000DBCFE6FFE5DB95DB2BE038DBEF5024E0AC
:1004300097DBEFCF32F032C0E6FFBEEC06F0D3DB45
:10044000F3CF33F0F4CF34F0FE0EDB50040D335015
:10045000F324E96E3450F420EA6E030E35EC06F016
:10046000325C04E17DDBEF6A030E0BD079DBEF2A0F
:1004700015DBEF6A020E05D073DBEF6A010E01D0C7
:10048000000E24D348EC0AF0000901E1120000013B
:100490006451030A01E1B8D0060A01E181D0010AE2
:1004A00054E0050A30E0030A2CE0020A01E01200E1
:1004B00064C07AF06751020A12E0020A01E01200F9
:1004C0005FEC06F0EF50E66EE66A43DB19E00001F0
:1004D00089510EE1696B020E676F10EF06F0010E95
:1004E000BCDB020E44DB35DB0BE000018D5104E088
:1004F000696B020E646F1200696B010E646F676FA7
:100500001200656B120064C07AF0655109E0696BF6
:10051000030E646F070EE66E44EC0AF0E55247DB0B
:10052000E66AE66A010EE66EE66AE66EF8DDB6DBBE
:10053000070EE66E87EC13F0A3DBF3CFE6FFF4CFF4
:10054000E6FF0BDEE552E55229D064C07AF02FDBDE
:100550000AC1E6FF78C0E9FF79C0EAFFCBDA04E020
:100560000001856B866B11D00BC1E6FF7AEC13F0AE
:100570009ADBEF50E66E020EE66EEBDA01E149D14E
:100580000001856B866B8D5102E0020E38D0050E9E
:10059000646F030E686FE66A39EC0AF0E5521200E8
:1005A00064C07AF0680512E165DA040EAFDA940EE1
:1005B000916F330E926F0101030E0B6FF8DA000199
:1005C000696B58DA020EE9DA020E14D0020E685D89
:1005D00013E150DA020E9ADA23DB0101010E0B6FF0
:1005E000E66E39EC0AF0E5520001696B43DA040E5D
:1005F000D4DA040E0A6F1200685103E1010E646F31
:100600001200030E685D120064C07AF06751020A9E
:1006100001E190D0020A23E0010A01E012008E0EEF
:10062000916F330E926F01DB040E17DB050E1DDB9D
:10063000E66E010EE66E66DA01E1EBD0010A08E033
:10064000020A01E012000001020E646F696B1200E1
:100650000001696B020E676F040E666F120066512F
:10066000030A53E0010A2AE0030A01E01200880E9F
:10067000916F330E926FE66AFDD93CDA01E09DD2AC
:10068000D4DA020EEADAEE52EF50E66EE66A3ADAB1
:1006900001E1BFD0020A0BE0030A05E0020A01E013
:1006A00012008FDA08D00001696B030E03D000013D
:1006B000696B020E666F856B866B120000DBEE5273
:1006C00019DA01E07AD202DBEF50E66EE66A1ADA56
:1006D00001E19FD0020A12E0030A05E0020A01E0EC
:1006E00012006FDA0FD00001010E666F696B965130
:1006F00009E0020E676F966B050E03D00001696B6F
:10070000010E666F856B866B120083C032F084C069
:1007100033F0832B000E8423D00E321801E079D001
:10072000070E331876E1836B846B020E666F010E41
:10073000966F12006651050A32E0010A01E01200CC
:10074000940E916F330E926F020E87DA020EC9DAA1
:10075000D1D901E032D269DA020E7FDA030E07DA6C
:10076000D1D957E0020A14E0030A05E0020A01E0C9
:10077000120027DA11D00001696B856B866B9751E7
:1007800003E1676B010E02D0976B050E666F1200D6
:100790000001696B050E666F856B866B120040DA8F
:1007A000030E5BDA030E9DDAA5D901E006D28EDADC
:1007B000020EDDD9A7D92DE0020A23E0030A05E0E5
:1007C000020A01E01200FDD919D00001696B040E84
:1007D000666F010E676F656B966BE66A39EC0AF01F
:1007E000E5520001010E646FCCEC06F0020805E151
:1007F000030EE66E44EC0AF0E5520001856B866B51
:1008000012000001696B040E666F856B866B010E2A
:10081000976F12000001616B636BFFEF05F051D918
:100820000EDA02E0A9D9FEE134DA45DA02E0A4D911
:10083000FEE10EDAEF124AD144D900019851010AC3
:1008400037E0010A49E19CD903E1010E986F44D0D9
:10085000FC0EDB0405E16BD9880E3226330E04D082
:1008600066D9A00E3226330E3322FAD9D5D900012B
:1008700081C032F082C033F0812B000E82232D0E16
:1008800032182AE1335028E1816B826B010E986F98
:10089000FC0EDB0405E14BD9880E3226330E04D062
:1008A00046D9A00E3226330E3322DAD9E5D914D038
:1008B0009FD9B2D900017FC032F080C033F07F2BC6
:1008C000000E8023320E321807E1335005E17F6BB2
:1008D000806B986B010E01D0000EF8D0F2D8AFD922
:1008E00002E04AD9FEE1AFD902E046D9FEE1E81CB8
:1008F000AFD9EF16EBD0DCD9DB50CA6EFD0EDB5062
:100900009D6EE4D0DED8020EE12600016151010A9D
:100910005EE0010A01E078D00FD9020EA6D9DE6EA2
:10092000DD6AD9CFE9FFDACFEAFF640EEE1806E1FF
:10093000ED5004E10001020E616F66D07BD965D9EC
:1009400032C060F077D9640ED8803256000E33562C
:100950005CD932C00CF1F0D8EF50DE6EDD6A0101D7
:100960000C510EE10A0E266E276ADECF2BF0DDCF8A
:100970002CF0F4EC19F024C00DF125C00EF11BD0C1
:100980000C51346E356A56D90A0E3302F3CF33F068
:100990003202F3CF32F0F4503326F3CF26F033C0D7
:1009A00027F00CC12BF035C02CF077EC1AF026C0E4
:1009B0000DF127C00EF10001612B60C062F0020E44
:1009C000E66E0D0EE66E97DFE552E5521DD0010191
:1009D0000C51000816E200017BC032F07CC033F0FD
:1009E0007B2B000E7C2301010D51325C0E513358DC
:1009F0000BE300017B6B7C6B01010C070001602B9A
:100A000003D0FDD80001612B020EE15C02E2E16A35
:100A1000E552E16E5BD039D920E04DD902E0ACD887
:100A2000FEE116D9EF1200016351632B326E190EED
:100A3000325C0FE2625106E102D902E09DD8FEE18C
:100A40004CD915D06207FBD802E096D8FEE121D937
:100A500010D060C062F0636B0CD0F1D802E08CD88B
:100A6000FEE1F1D802E088D8FEE137D9AFD821D82D
:100A7000EF162CD087EC13F053EF06F0FD0EDBCF12
:100A8000F6FFFE0EDBCFF7FF1200F626000EF72270
:100A90000800F550336E010E33521200FE0EEA6A62
:100AA000DB34FE0BEA36E96E890EE926000EEA22F7
:100AB00012000900F5CFE9FF0800F5CFEAFF325038
:100AC0001200D9CFE6FFE1CFD9FF1200E552E7CF00
:100AD000D9FF120091C0E6FF92C0E6FF3CEF06F09E
:100AE000FE0EDB50060DCCD8B80E3226330E332264
:100AF00030EF06F0EF50E66E65EC00F0E552E5529F
:100B0000000912008BDCCAD8000A1200EAD8E9CF2B
:100B100032F0EACF33F0E9CFE6FFEACFE6FF7FEC31
:100B200013F0E552E5520001040E646F1200FB0E53
:100B3000DB50060D40EF06F0BEEC06F0A1D8FE0E2D
:100B4000DB50040D3250F324E96E3350F420EA6E8A
:100B5000120014EC01F0E552E552E55200091200D2
:100B6000FA0EDBCFE9FFFB0EDBCFEAFF12007DD8E8
:100B7000E66E020EE66E1200E846FE0B3306120029
:100B8000FC0EDB5004081200DF50EA6A6A0FE96EBF
:100B9000000EEA22EF6ADF2A1200A3D8E9CF78F02C
:100BA000EACF79F001011200060E35EF06F0010ED2
:100BB000E66E39EC0AF0E55212000001020E646F95
:100BC00012000001696B020E646F1200030EF6261C
:100BD000000EF7221200FE0B3336326E890E3226DB
:100BE000000E33221200E552E7CF32F053EF06F049
:100BF000FD0EDBCFE6FFFE0EDBCFE6FF1200E66A5E
:100C0000E66A79DEE552E5521200D890333232328C
:100C1000D89033323232120002DEE552E552120031
:100C2000AC0E916F330E926F1200940EE66E000EB2
:100C3000E66E1200DECF32F0DDCF33F012001EDFA1
:100C4000020E45EF05F049D834DFEF165BEF06F0F2
:100C5000326E14DFBBDF59EF05F0E66E3AEF05F0B8
:100C600032C0E6FF33C0E6FF12003BD8EF5012005F
:100C700028DFE652DF6A120031DEE552E55212004B
:100C8000F3CF32F0F4CF33F012001BDFF3DED4EFFA
:100C900005F0326EF3DE0DDFEF121200326E050E3C
:100CA000E15E32501200F3CFE9FFF4CFEAFF120009
:100CB00008DFFE0E1200E2DE050E45EF05F0A00E85
:100CC000916F330E926F010E2DEF06F0950EE66ECA
:100CD000000EE66E010E2DEF06F0E81C326E3EEFC0
:0A0CE00005F0E926000EEA221200DA
:060CEA000001D8511200C8
:100CF000D9C0F3FFDAC0F4FF12000001D75112008F
:100D0000020E0001CE5D03E0050ECE5D1DE1D2ECCA
:100D100000F0010818E10001D3C032F0D4C033F074
:100D2000D32B000ED423500E325C460E33580AE308
:100D3000D36BD46B7EDB0F010051325C01E2010CFE
:100D40007CDB000C000C000CD36BD46B000C6EDB56
:100D5000DBCF00FFF5D2000E0F01386F396B0001B9
:100D6000D36FD46BD16FD26BCF6FD06B12000001F9
:100D7000CE5112005BDBDBCFCEF0E2D2010E326E41
:100D80000F0E32C0F3FFF46E120050DBDBCFCBF05E
:100D9000D7D20001CD5112000001CB511200000149
:100DA000CC51120043DBDBCFCCF0CAD23FDBDBCF30
:100DB000D5F0C6D2D2EC00F001081AE10001D1C092
:100DC00032F0D2C033F0D12B000ED223700E321885
:100DD0000FE1170E33180CE1D16BD26BE66A7FDAA4
:100DE000EFCF32F0060E325C03E20001D56BDDDAA4
:100DF00012000F01335174E10001D55101E1100CD3
:100E0000E66A6DDAEF50FA0801E1010CE66A67DA8A
:100E1000EF50FB0801E1020CDFDAEF50FA0801E1C4
:100E2000030CDADAEF50FB0801E1040C010EE66E68
:100E30006CDAEF5005E0010EEADA040801E10F0C6C
:100E4000E66A63DAEF500DE0E66A5FDAEE52EF042D
:100E500001E1050CE66A59DAEE52EF50020801E1B1
:100E6000060C020EE66E51DAEF5011E0020EE66E4D
:100E70004CDAEE52EF0401E1070C020EC8DA020868
:100E800001E1080C020EC3DA030801E1090C54DA8F
:100E9000EF5001E00A0C50DA010EA2DA01E00B0C6F
:100EA0004BDA020E9DDA01E00C0C46DA030E98DAFA
:100EB00001E00D0C41DA040E93DA01E00E0CE66A53
:100EC000320EE66EE66A5CEC14F0E552E552E66E30
:100ED000320EE66ED7EC0DF0E552E552E552000C0D
:100EE0003351120048EC0AF0000901E11200030E30
:100EF0000001CB5D03E07DDF0001CC6FCB51050A23
:100F00001AE0010A14E0070A10E0010A0AE0030AE5
:100F100006E0010A01E01200CD6BAFEF07F0B8EF79
:100F200007F0020ECD6FD8EF07F082EF08F0040E45
:100F3000CD6F8EEF08F094EF08F006DA30DA0EE1AC
:100F400048EC0AF0E66E40EC0AF0E552050E3ADA9B
:100F5000FE0EDBCFCDF00001030ECB6FF1D100010F
:100F600036DA5E0ED86FE66A28DA01E0C1D91200DF
:100F7000010EE66EE2DFE55218DA0001CC5104E022
:100F8000010ECD6F78EF09F0D2EC00F001080FE10F
:100F9000020E0001CD5D06E0CD0509E1A8EC0DF0E3
:100FA000000905E10001020ECB6F030E0BDA1200FF
:100FB000CBD9020EE126E66E00DA05E0CCDE0001B8
:100FC00097D9F3D998D09CDE000906E0EED900014C
:100FD000CB6BCE6BC0DE8FD00001010ED56FE80465
:100FE00001E089D0CE51050A6BE0010A61E0070AF1
:100FF00048E0010A36E0030A1FE0010A01E07BD065
:101000000F012951EA6A2C0FE96E0F0EEA22EF5008
:10101000366F376BE80E3703F3CF37FF030E360317
:10102000F3503727E80E3603F3CF36FFF450372757
:101030000001010ECE6F5FD004DA09E287D8000903
:101040005AE00001020ECE6FF8D974D854D00001D6
:10105000030ECE6F6FD87DD9ADD9E552010EE66E85
:101060003AD0EFD905E2010EDCD98BD944E33AD06E
:101070000001030ECE6FA6D90001CF6BD06B69D9EA
:1010800015D0D7D90F012851325C05E30001040EB9
:10109000CE6FABD91FD0D5D92EE20001020ECE6F94
:1010A00036CFCFF037CFD0F092D95E0E83D922D091
:1010B000B5D8000920E00001050ECE6FBED91BD0C7
:1010C000B8D90F012851325C09E30001040ECE6F3C
:1010D000CF6BD06BE66A8AEC16F00CD0010E1AD9F1
:1010E00050D909E30001CF6BD06B010ECB6FE66ED8
:1010F000C9EC00F0E552020EE15C02E2E16AE55261
:10110000E16E1ED14CD905E0CDC0CBF03DEC0AF02C
:1011100059D90001CC5101E0EBD81200040EE66E63
:101120004CD901E0E5D812000001CC5102E1CDC05C
:10113000CBF012000001D66B0F01386B396B120037
:101140000001D76B0F01386B396B1200FDD8E652E6
:101150000001D651010A38E0010A5DE10F01115189
:10116000125D010FDF6EDF50346E356A2951EA6A75
:101170001C0FE96E0F0EEA22EF50640DF3CF32F030
:10118000F4CF33F0F3CF26F0F4CF27F034C02BF0B8
:1011900035C02CF077EC1AF026C03BFF27C03CFF8F
:1011A0000001110ED96F0F0EDA6FD9C0E9FFEA6E98
:1011B000EFCF3AFF3ACFE6FF86EC16F0E552010E8C
:1011C00030D90001D62B27D0D3D83B51321823E198
:1011D0003C51331820E1386B396B3A513A2B125D90
:1011E00010E10001D66BF3D8D9C0E9FFEA6EEF50E9
:1011F000E66E86EC16F0E55200015E0ED86F010E29
:101200000BD000013A0ED96F0F0EDA6F3ACFE6FF1E
:1012100086EC16F0E552000EE55292D00AD90F0185
:101220002951EA6A190FE96E0F0EEA22EF50285D84
:10123000D88032540AE30001D76B36CFCFF037CFD6
:10124000D0F00F01386B396B010C0001D751010A46
:101250002DE0010A43E18CD82951EA6A160FE96EA4
:101260000F0EEA22EF50346E356AE80E3502F3CFE6
:1012700035F0030E3402F3503526E80E3402F3CF76
:1012800034F0F4503526F350321828E13550331835
:1012900025E1386B396B0001010ED76F3BD80F0188
:1012A0002951E824480F0001D86F000C61D829515A
:1012B000EA6A130FE96E0F0EEA22EF500A0DF3CF20
:1012C00034F0F4CF35F0F350321808E135503318CC
:1012D00005E1386B396B0001D76B67D8000CD0EC97
:1012E00010F0E55299D8050EE926000EEA22120008
:1012F000050ECB6F320EE66ECC51E66EE66A71ECEF
:1013000014F0E552E552E5521200DEEC00F0E55231
:101310000CEF0AF086D869D872D8E5521200EFCFE8
:1013200032F00F012951EA6A1F0FE96E0F0EEA220F
:10133000EF50285D325C1200B9EC00F00CEF0AF0BF
:10134000E552E7CFD9FF1200D9CFE6FFE1CFD9FFB1
:1013500012000F0129510001D96FDA6B220ED92733
:101360000F0EDA230F012951E824420F0001120069
:101370000F0138CF32F039CF33F0382B000E39233C
:1013800012000001CFC032F0D0C033F0CF2B000EDE
:10139000D0230F013651325C37513358120087EC9D
:1013A00013F03AD8060EF0EF09F0E66A8AEC16F070
:1013B000E5521200D86FFFEF09F0BFDDE5520001E2
:1013C000CC511200E66E44EC0AF0E5521200300EE9
:1013D000D96F0F0EDA6F1200010EE66E6FEF09F093
:1013E000E926000EEA22EF5012000F0129510001F8
:1013F000D96FDA6B250ED9270F0EDA231200D9C068
:10140000E9FFDAC0EAFFEF50E66E86EF16F0E66E0F
:101410007CDFEE52EF501200F3CFE9FFF4CFEAFF8A
:101420001200E66E8AEC16F0E55212008DDFFE0E19
:101430001200D2DFEFCF32F01200CEDFEFCF00FF8D
:081440001200CADF8FEF09F072
:081448008D8C969C8D8E969E02
:101450008C8095908C8295928C8495948C869596B0
:10146000969A9698969696948D9A8D988D968D9438
:10147000120068DBDBCFB2F0E9D20001B1511200FB
:1014800061DBDBCFB1F0E2D25DDBDBCFB0F0DED2EF
:101490000001B0511200C00E8D120F0E8C1200010F
:1014A000B351EA6AA30FE96E000EEA22EFCF32F0E1
:1014B000B35102DBEF50F76A5C0FF66E350EF72280
:1014C0000800F5503214E66E6BEC19F0E55200019D
:1014D000B351050A14E0010A10E0070A0CE0010A02
:1014E00008E0030A04E0010A0BE18D9C09D08D9EFF
:1014F00007D08C9005D08C9203D08C9401D08C9620
:10150000B32B030EB35D01E1B36B1200A3DA020E3D
:10151000E126DF6A740EF66E350EF76E0800010ED6
:10152000F5CFDBFF0001995105E0170EA26FA16F07
:10153000A06F4DD0A26BA2C0A1F0A2C0A0F0030E7C
:10154000DF5C3CE2BFDA326E336A0A0E325C000EB8
:10155000335808E3B7DAE66EDF50AEDAE552E7500B
:10156000EF6E20D0FD0EDBCF32F0FE0EDBCF33F07E
:10157000010EDB50356AE850325C3550335812E3C7
:10158000010EDB50326E336AD950FD0FE96EFF0E4B
:10159000DA20EA6E3250EE5E3350ED5ADF508CDACC
:1015A000EF2AE0D7DF2ADF50F76A740FF66E350EA8
:1015B000F7220800010EF5CFDBFFC1D70001A051D3
:1015C00006E1170EA06FA15102E1170EA16F020EE6
:1015D000E15C02E2E16AE552E16E38D2B7EC06F076
:1015E000040A0FE0050A0BE0020A09E0010A07E01D
:1015F000070A05E0050A01E012008D9612008D86AB
:1016000012007DEC06F0010A09E0010A01E0120077
:10161000010EE66E040EE66E92EF0DF08D8612005E
:101620000001B051080A01E196D00F0A01E176D01D
:10163000010A64E0030A5AE00C0A4BE00D0A41E09B
:10164000070A1AE0010A10E0030A07E0010A01E0B4
:1016500086D078D98D9A8D985DD0010EB16FE66AEB
:10166000030E13DA17D906D0020EB16FE66A030E25
:101670000CDA1FD9E9D873D0030EB16F3AD9CCEC8C
:1016800006F0020A07E0020A6AE1E66A020EFDD9E4
:101690008D9865D0B7EC06F0050A0FE0010A0DE061
:1016A000050A08E0030A06E0010A04E0030A07E16C
:1016B0008D9801D08D888D9A02D08D988D8A8EDF7D
:1016C0004ED0040EB16F32DA270EE3D9E66E0A0E61
:1016D00008D0090EB16F78EC06F0C1D9EF04E66EC0
:1016E0000B0EE66E96D8E552E5522AD0010EE66E54
:1016F0000C0EE66E0A0EE66E0B0E09D0060EB16FEA
:10170000B2C0E6FF0D0EE66E0F0EE66E0E0EE2D9CB
:101710008D8A8D888D96E66AE66A15D0070EB16FC0
:10172000B2C0E6FF0B0EE66E0C0EE66E100ED2D9BE
:10173000C6EC00F0030804E0C6EC00F0060805E182
:10174000E66A030EE66EEED90AD0E66AE66AEAD9E0
:101750008D8A8D8804D020D8E66A010E96D94BEF89
:101760000AF078D9BED902E0D1D915D0FE0EDBCF70
:101770009DF0FD0EDBCF9EF0FC0EDBCF9FF0A7C0EF
:10178000A3F0BAD9FB0EDBCFE6FFE66A15D8E55227
:10179000E5520A0E55D95AD1A4D903E1B1C0B0F02F
:1017A000120000010D0EADD9A6C0A3F0A5D97DD9B8
:1017B000CFEC06F020EF0DF0C5D9DB500CE099C05E
:1017C000E9FFEA6AE9BEEA68A60EE926000EEA2207
:1017D000EFCFA3F002D0A7C0A3F0FD0EDB5016E0C0
:1017E0000001AAC032F0ABC033F0AA2B000EAB232D
:1017F00055D90EE1355033180BE1AA6BAB6B9951FB
:1018000002E0000E01D0010E996F02D00001996B29
:101810001DD120D966D902E079D90FD0FE0EDBCFD9
:1018200032F00A0E322400016CD93FD9FD0EDBCF15
:10183000E6FFE66A6BDEE552E55208D183D9DB505C
:101840000001AC6FAD6B02D10001ACC032F0ADC095
:1018500033F0AC2B000EAD2332C0E6FF33C0E6FF01
:10186000BEEC06F042D9FBD82A0E13D9346E356A85
:10187000FBD80FE1355033180CE10001AC6BAD6BB8
:101880008EEC13F0ECD8020E04D903E10001030E34
:10189000B06F120026D904E039D9AC6BAD6B1200E1
:1018A00000010B0E2ED9AEEC0DF0CAD8A6C0A3F0E5
:1018B000120017D902E086EF0DF00001A3699F6BBB
:1018C0009FC09EF09FC09DF031D9F3CF32F0F4CF8E
:1018D00033F0F3CFE6FFF4CFE6FFAEEC0DF005D921
:1018E0000F013224E96E000E3320EA6EEF5020EF34
:1018F0000DF0F7D802E086EF0DF000019F6B9FC05E
:101900009EF0ABEC0DF0000906E00001160E9D6F95
:10191000E66A00D912D0010EE66EFCD807D9280E6F
:10192000B8D8326E336A180E3226000E3322070EF4
:10193000325E000E335A32C09DF0A6C0A3F0000103
:10194000996B1200D9D80001A8C032F0A9C033F0B9
:10195000A82B000EA923780EF66E350EEBD884D88E
:101960000AE13550331807E1A86BA96B996BA3699D
:10197000030EB06F120099D8D9D8340E8AD860D827
:101980000001B06B1200DED8DB504CE00001AEC0AD
:1019900032F0AFC033F0AE2B000EAF237FD80FE193
:1019A000355033180CE1AE6BAF6BCFD802E0000EB0
:1019B00001D0010EE66E3CD8E552E750EF6EFE0E08
:1019C000DB50050A28E0010A21E0070A13E0010ABA
:1019D00009E0030A2CE1B9D8E8B08D88E8B008D056
:1019E0008D9806D08D98B1D8E8B08D8AE8B01FD018
:1019F0008D9A1DD0AAD8E8B08D8AE8A08D9A8D5016
:101A0000200B02E08D8813D08D9811D09ED8E8B0BD
:101A10008D86E8A08D9699D8E8B08D84E8B007D07F
:101A20008D9405D005D8EF6A0001AE6BAF6B0ED078
:101A3000FD0EDB50EA6A9A0FE96E000EEA221200F0
:101A4000E66EE66A63DDE552E5521200E552E7CF45
:101A5000D9FF1200D9CFE6FFE1CFD9FF1200F3CFB3
:101A6000E9FFF4CFEAFF1200E80E3502F3CF35F0BC
:101A7000030E3402F3503526E80E3402F3CF34F06F
:101A8000F4503526F35032181200E66E4BD88D967E
:101A90001200E926000EEA22EF5012007A0EF66ECE
:101AA000350E48D8345032181200010EE66EE66E3C
:101AB00083DEE552E5521200EA6AA00FE96E000EDD
:101AC000EA221200DF50EA6A9D0FE96E000EEA2258
:101AD000EF501200E66E45DEE552E552E552E55262
:101AE0001200CFEC06F000091200E552E7CF33F008
:101AF000E552E7CF32F01200A7C0A4F0A7C0A5F0CE
:101B000012009D6F9F6B9FC09EF012000001080E97
:101B1000B06F1200D0EC10F0E552A1DF050EB9DF76
:101B200020EF0DF030DFE552E5521200BEEC06F07A
:101B30002FEF0DF0F76E0900F5CF34F00800F5CF68
:101B400035F0120087DFFE0E120072DFEF50120038
:101B500001011251120001011151120001010F5136
:101B60001200F3DA325C02E263DAEF2A91D2EDDAA4
:101B7000D880325402E25CDAEF068AD284DAFB0EB5
:101B8000DB5007E0FC0EDB50E824010F69DAE9DFE7
:101B900005D0FC0EDB50E82463DAE9DFE552E552BC
:101BA000E55276D2D9DAEBDAEFCF10F171D26BDAF7
:101BB000FC0EDB50F36EFD0EDB50F35C09E0FE0E15
:101BC000DBCFE6FFFC0EDBCFE6FF7EDA010E01D0B5
:101BD000000E5ED2C1DA38DA0101105D02E1000EBA
:101BE00001D0010E55D24FDAFC0EDBCFE6FF85DACD
:101BF000F1DFE552E552E55200090AE0FC0EDBCFC9
:101C0000E6FFDB50E76E14DAE7501EDAE66E5CDAC8
:101C10003FD261DA060E40DA040E64DA050EE66E93
:101C2000C0EC00F0E552030EE66ED5EC00F0E55294
:101C3000120029DA7FDA010B010840E1CCEC06F052
:101C4000000908E0CCEC06F0020838E173DA0F0B6B
:101C50000E0834E16FDA0F0B0E0A13E0090A08E0F0
:101C60000C0A27E138DA010E17DA01010F6B21D0D7
:101C700032DA070E11DA010E35DA0101010E126FA8
:101C800018D0CCEC06F0020808E10101115102E085
:101C9000000E01D0010E116F0CD0E66A64DA030861
:101CA00008E37ADAEF5005E02FDA03E031DA01E1F8
:101CB000B0DFBED9020E63DAEF6AB9D13BDA800B2E
:101CC000800801E0B4D136DA0F0B0E0A01E167D1CA
:101CD000090A01E1FED00C0A01E09ED148EC0AF0AD
:101CE000060A14E0070A07E0030A1DE1010ED4D931
:101CF00013DA79DF04D0020ECFD90EDA53DFE552C2
:101D0000E552E552E66A1EEC0CF00CD0DBEC00F07C
:101D1000030809E1F9D907E0FBD905E1030EE66EF6
:101D200044EC0AF0E552CCEC06F0050A01E1A9D03A
:101D3000010A01E18DD0060A4AE0030A3AE0010AED
:101D400001E06AD148EC0AF0040819E048EC0AF016
:101D5000090815E048EC0AF0020811E048EC0AF026
:101D600001080DE0CFEC00F0000909E1020E02DAF3
:101D7000010EE66EF8D9E66EA7EC06F0E55248ECE7
:101D80000AF0020801E148D148EC0AF0010801E13B
:101D900043D148EC0AF004083CE048EC0AF009089A
:101DA0006EE1F1D92F0E50D9E66E2F0E85D92F0E88
:101DB0004AD0D2EC00F0010801E02ED1020EDAD9AF
:101DC000030E6AD95DEC00F00101126B25D148ECDD
:101DD0000AF004081AE048EC0AF0090816E0D2EC10
:101DE00000F0010812E1E66A8AEC16F0E552E66AB4
:101DF000C5EC06F0E552ABEC06F09AEC08F0A0EC6E
:101E000008F0E66ABAEC06F0C8D048EC0AF004081C
:101E100008E1B9D9270E18D9E66E270E4DD9270E3D
:101E200012D048EC0AF009082AE178EC06F007D94C
:101E3000EF50E66E75EC06F0E8407F0B3DD975EC8F
:101E400006F0E8407F0BE66EB2DEE552E55216D0B2
:101E50005BD901E1E1D05CD901E0DED0E66AC5ECF6
:101E600006F0E552E66AD5EC00F0E552E66A39EC98
:101E70000AF0E552010EE66EC0EC00F0E552030EEA
:101E80003AD0E66AD2EC06F0E5527DD9320E77D927
:101E9000EF6A320EE66E000EE66E16D93DEC0AF0E1
:101EA000FBD8EBEC00F0070EE66EA1EC00F0E5527B
:101EB000010EE66ED6EC06F0E55211EC01F00408D6
:101EC00002E1040E02D011EC01F0E66EC0EC00F06D
:101ED00064D048EC0AF0060A54E00F0A46E00E0A05
:101EE0003AE0030A33E0060A2AE0030A08E0020A9D
:101EF00001E092D0040EE66E44EC0AF04ED0F8D821
:101F0000240EF66E330EF76E0800F550346E356A07
:101F1000640E266E276A34C02BF035C02CF077ECA7
:101F20001AF026C032F027C033F03206000E335AC2
:101F30003250E66E0F0EE66E010EE66E1ED0D8D859
:101F4000010EE66EE9D81ADEE55218D0730EF66E71
:101F5000330EF4D812D0010EE66EC9EC00F0E55253
:101F6000010EE66E39EC0AF018D0CCEC06F002084F
:101F700053E175EC06F0010F0AD9F3DDE552E552A5
:101F80000CD0DBEC00F0030847E1BED845E0C0D838
:101F900043E1010EE66ED5EC00F0E5523DD048EC91
:101FA0000AF0060A2CE00F0A1FE00A0A18E0070AE6
:101FB00011E0060A09E0030A2FE19AD8E66A0F0E3B
:101FC000E66E010EE66E17D093D8E66AA5D8D6DD88
:101FD000E55212D0720EF66E330EB0D80CD0090E48
:101FE000E66E44EC0AF017D0CCEC06F0020814E1DF
:101FF00075EC06F0CCD8BBDDE552E5520CD0DBEC3D
:1020000000F0030809E180D807E182D805E0020E5C
:10201000E66ED5EC00F0E552030EE66EE66AE66A7F
:102020006CD82EEC1AF0326E050EE15E325030D0D4
:10203000FD0EDBCFE9FFFE0EDBCFEAFF1200F3CF90
:10204000E9FFF4CFEAFF12009AD8EF501200F3CF65
:1020500032F0F4CF33F0F3CFE6FFF4CFE6FF120017
:1020600060D8FC0EDB50E76EFD0EDBCF32F0FE0ECB
:10207000DBCF33F0E7503226000E332232C0E6FFCA
:1020800033C0E6FF1200D9CFE6FFE1CFD9FF12003F
:10209000E552E7CFD9FF1200E66E44EC0AF0E552B4
:1020A0001200270E6CD8E9CF32F0EACF33F0E9CF37
:1020B000E6FFEACFE6FF1200E66EE66A5CEC14F09B
:1020C000E552E552E66E1200E66A71EC14F0E55254
:1020D000E552E552120048EC0AF0E66E40EC0AF0D8
:1020E000E552120047D8E66A39EC0AF0E5521200D0
:1020F000E66A1EEC0CF0E5521200FD0EDBCFE6FFA7
:10210000FE0EDBCFE6FF120047D8020E24EF10F0E0
:1021100043D8040E24EF10F00FC1E6FF34D827EFA8
:1021200010F0F76A240FF66E330EF7220800F55010
:10213000E66E12007DDF020E24EF10F0F76E08004D
:10214000F550E66E20D851EF10F09DDF71DFEFCF34
:1021500032F0FC0EDB50120096DFFC0EDB50E76E17
:1021600067DFE7501200D0EC10F0E55268DF050E93
:1021700024EF10F0E66EC5EC06F0E5521200E926F9
:10218000000EEA221200BEEC06F01FEF10F0C9DFCD
:1021900078EC06F027EF10F087EC13F01FEF10F04B
:1021A00069D9FE0EDB50060DF3CF32F0F4CF33F0D9
:1021B000B80E3226000E332232C0F3FF33C0F4FFD4
:1021C0005ED1E00EE66EEF0EE66E040EE66EEB0EEE
:1021D000E66E09EC19F0E552E552E552E5529280BF
:1021E000928292849286928A9988120043D9030E31
:1021F000E126FA0EDB50DF6E010EDB6A010EDB50CA
:10220000DF24FE0BE842E76E020EE7CFDBFFF90E9C
:10221000DB5006E0F9D837D905E34ED911E209D0F1
:102220004BD904E2020EDB50DF6E0CD0EDD82BD977
:1022300007E2020EDB50E76E010EE7CFDBFF02D0B4
:10224000020E06D0010EDB50DF5C0108D7E1010E63
:10225000DB50326E030EE15C02E2E16AE552E16EB0
:1022600032500DD1CAC0E6FF12D8E5520001CA2B88
:10227000030ECA5D01E1CA6BCA51F76A9A0FF66E86
:102280002B0EF4D8E66E48EC1AF0E5521200F2D8A4
:1022900019D9EF50EF2A326E400E325C12E22AEC6E
:1022A0001BF024EC1BF00009FCE11BEC1BF0F3CF4E
:1022B00032F0F4CF33F09CD83250EE263350ED227A
:1022C00096D096D802D9060ED89033323232E8042E
:1022D000FBE10AD98DD8EE6AED6AF4D8EF6AFE0EFA
:1022E000DB50020A01E183D0020A03E0010A01E0A7
:1022F0007ED0D0D8B5D803E2EDD8FB0E77D0EDD89C
:1023000003E2E8D8FA0E72D0C5D8AAD820E3C2D822
:10231000EECF34F0EFCF35F08CD8EECF38F0EFCFF2
:1023200039F092D8A3D8020D3850F324F66E395004
:10233000F420F76E0900F5CF36F00800F5CF37F03E
:102340003650345C3750355802E2A7D81DD0C5D876
:102350002AE3A0D8BAD86DD8EECF36F0EFCF37F059
:1023600073D8F722010EF626000E80D8020D3650E3
:10237000F324F66E3750F42097D885D814E28DD820
:10238000F722010EF626000E71D8020D3450F32408
:10239000F66E3550F420F76E0900F5CF32F00800E4
:1023A000F5CF33F0A1D8FE0EDB50F76A940FF66E2E
:1023B0002B0E5CD8E66EFE0EDB50F76A9D0FF66EB4
:1023C0002B0E54D8E66E35D8EECFE6FFEFCFE6FF02
:1023D00061D8EECFE6FFEFCFE6FF08DF326E060EE4
:1023E000E15E3250E66E76D8E552E750EF6E47D0A8
:1023F000FE0EDB50060DF3CFE9FFF4CFEAFFB80E77
:10240000E926000EEA221200FD0EDBCF32F0FE0EAE
:10241000DBCF33F0020E376ADB34FE0B3736366E15
:10242000FB0EDB503624F66EFC0EDB50372054EFEB
:1024300012F0FE0EEA6ADB34FE0BEA36E96EB40EE9
:10244000E926000EEA221200FE0EF76ADB34FE0BCC
:10245000F736F66E960EF6262B0E1200030E4AD0B5
:1024600034D80A0E325C000E33581200F7220800EE
:10247000F5501200D9CFE6FFE1CFD9FF1200E552A7
:10248000E7CFD9FF12003250345C33503558120078
:10249000050E30D0ADDF2EEF12F0CBDFEECF34F0F3
:1024A000EFCF35F024EF12F0F76E0900F5CF34F0DE
:1024B0000800F5CF35F01200A7DF3450325C3550FC
:1024C0003358120095DF020E15D0EECF32F0EFCF69
:1024D00033F012008DDF48EF12F0DCDFD40ED8802D
:1024E000EE54030EED541200D5DF32C0EEFF33C0C0
:0C24F000EDFF1200E926000EEA221200A7
:0424FC00030E39D8BA
:10250000EF5004E0D950E76EE128D96EE1503C6EFF
:10251000ED50E126ED50FA6EED50F96E1200030E0B
:1025200028D83C50E15CED6EFE50ED6EFD50ED6E36
:10253000EF8606001200060012003B6AA5EF12F0BB
:1025400012003B68A5EF12F012003A90030E11D86A
:102550003C50E15CED6EFE50ED6EFD50ED6EEF9681
:10256000EFA8EF9A3BB0EF8A1200000EB9EF12F01D
:1025700012003D24E96EEA6A1200D9CFE6FFE1CFEE
:10258000D9FFE652DF6AFE0EDB5002E0010EDF6E7D
:10259000ECDFEF9AEF98DFA011D0FE0EDB1EDB2AF6
:1025A0003DC0E9FF3EC0EAFF040EE926000EEA2224
:1025B000FE0EDBCFEFFFD9DFEF88EF86E552E55265
:1025C000E7CFD9FF1200F250C00BF29ED0BEF29CB2
:1025D0001200E8BEF28ED0BEE8AC01D0F28C120040
:1025E0003A9AC3DF3B5006E0EFA602D0EF980DD039
:1025F000EF8601D0EF96EF50100B06E1EF50200B65
:1026000003E0EF863A8A01D0060012003A6A190EFA
:10261000026E000E036E059C0A9C0F9C149C199C74
:102620001200000105A902D0094B05990AA902D0A0
:102630000E4B0A990FA902D0134B0F9914A902D07F
:10264000184B149919A902D01D4B19991200D9CF12
:10265000E6FFE1CFD9FF020EE1263A92050EDE6ECB
:10266000000EDD6E3B6A2FD8EF50400B15E1FE0ED9
:10267000DB8CDB8628D8EE52FC0EDBCFEEFFFD0EA6
:10268000DBCFEDFF20D8040E23D8030E21D8FE0E99
:10269000DBCFEFFF3A920DD0D9CFE9FFDACFEAFFD7
:1026A000050EEE26000EEF223B2A050E3B5CDBE317
:1026B0003A82020EE15C02E2E16AE552E16EE55225
:1026C000E7CFD9FF1200DECFE9FFDDCFEAFF12002E
:0C26D000E926000EEA22EF6A63EF13F027
:0426DC00938A9A8EB5
:1026E00094809A88938893829A8C9A8693809A840D
:1026F0009A821200E5C0F3FFE6C0F4FF1200C7D8CB
:10270000FD0EDBCFE5F0FE0EDBCFE6F0BCD0DE0E3B
:10271000326E000E32C0F3FFF46E1200DB0E326E2A
:10272000000E32C0F3FFF46E1200B1D8FD0EDBCF05
:10273000E6FFFE0EDB50E552E718A5D0F19E868A33
:10274000010EE66E8150200B01E0010E8FD80001D2
:10275000DE6F010EE66E8850800B01E0010E86D818
:102760000001DF6F010EE66E8250010B7FD8000181
:10277000E06F010EE66E8850100B01E0010E76D876
:102780000001E16F010EE66E8150020B01E0010EC7
:102790006DD80001E36F010EE46FE66E8850400BC8
:1027A00001E0010E63D80001E26FF18E869A1200FB
:1027B0006ED8020EE126F19E868A010E8114DF6E2C
:1027C0000E0E8814E76E010EE7CFDBFFF18E869ABE
:1027D000DB50DF260001DB5111E10F0EDF5C30E042
:1027E0004AD80A0E32182CE133502AE1DFCFDDF04F
:1027F000010EDB6FDC6FE76BE86B1ED00F0EDF5C4A
:102800000BE1DC5104E07E0EDD17800EDD27DB6B73
:10281000E76BE86BDC6B14D0DC5112E02CD8880E2F
:10282000325C130E33580CE3E76BE86BDC6B7E0E07
:10283000DD17DD2B010EDB6FE66EC3EC17F0E55202
:10284000020EE15C02E2E16AE552E16E1CD0CCECE2
:1028500006F0030809E0ACDFDB0EE66E000EE66E64
:1028600019EC0EF0E552E5529EEF13F0E66E5DDFD7
:10287000E552E5521200E7C032F0E8C033F0E72B32
:10288000000EE8231200E552E7CFD9FF1200D9CF9E
:08289000E6FFE1CFD9FF1200C1
:0828980077EC18F0BEEC06F02D
:1028A000F3CF32F0F4CF33F0F3CFE6FFF4CFE6FF0F
:1028B00041D8E552E5521200A2D86FD8010EE66E5B
:1028C00089EC18F0E552A10EA6D8B3EC18F0DF6E33
:1028D000010EE66EAAEC18F0E55299EC18F0DF5004
:1028E0007FD0D9CFE6FFE1CFD9FF57D8FC0EDBCFA1
:1028F000E6FFA2EC18F0E55299EC18F0590EF66ECE
:10290000340EF76E0800F550E66E9EEC1AF068D0B3
:1029100076D8DF6AFB0EDB50DF5C0BE2FE0EDB508D
:10292000DF2473D8E66EFC0EDBCFE9FFFD0E46D840
:10293000F1D756D064D80001FD5167D80001FE5D83
:102940000DE1FDC0E6FFFD0EDBCFE6FFFE0EDBCFA7
:10295000E6FFFFC0E6FFDCDFE5521BD0DF6A0001C7
:10296000FD51DF5C10E241D8DF50FF25E66EE66ADC
:10297000B8DFE552E552E55238D8FD0EDBCFE9FF6E
:10298000FE0E1CD8ECD7FEC0E6FFFD51E66EE66AEF
:10299000A8DFE552E552E55223D0E66A89EC18F04B
:1029A000E552A00E38D8FF0EE76EFD0EDBCF32F0F9
:1029B000E7503216336A32500BEF15F0DBCFEAFFE7
:1029C000E9CF32F0EACF33F0DF500F01E924E96EAE
:1029D000000EEA20EA6EE552E750EF6EDF2A1200A1
:1029E000E552E552E7CFD9FF1200DF50F76A240F16
:1029F000F66E340EF7220800F550E66E1200D9CFBD
:102A0000E6FFE1CFD9FFE6521200E66EE66A54DF38
:102A1000E552E5521200E66EA2EC18F0E552120003
:102A200015030C030203F802ED02E302D802CE0202
:102A3000C302B802AD02A10296028B027F027402A9
:102A400068025C02510245023A022E02220217027B
:102A50000B020002F501E901DE01D301C801BD014D
:102A6000B301A8019E0194018A01800176016C01E5
:102A700063015A01500148013F0136012E01260130
:102A80001E0116010E0107010001F900F200EB0022
:102A9000E400DE00D800D200CC00C600C100BB00BC
:102AA000B600B100AC00A700A2009E0099009500FE
:102AB00091008D008900850081007E007A007700FA
:102AC000730070006D006A006700640062005F00C0
:102AD0005C005A0057005500530051004E004C0056
:102AE0004A004800460045003B00470053005F0095
:102AF0006B00770083008F009B00A700B200BE0030
:102B0000CA00D500E100EC00F70003010E01190135
:102B100024012F013A01450150015B016601710159
:102B20007C01860191019C01A601B101BB01C50197
:102B3000D001DA01E401EF01F90103020D021702ED
:102B400021022B0235023E02480252025C0265025B
:102B50006F02780282028B0295029E02A702B102E6
:102B6000BA02C302CC02D502DE02E702F002F90289
:102B700002030B0314031C0325032E0336033F0338
:102B80004703500358036103690371037A03820307
:0F2B90008A0392030001005563009F8FE756648C
:102BA000DACFE4FFE2CFDAFFE9CFE4FFEACFE4FFD8
:102BB000F6CFE4FFF7CFE4FFF5CFE4FFF3CFE4FF78
:102BC000F4CFE4FFFACFE4FF00EE1EF0140EE804A9
:102BD00003E3EECFE4FFFBD700EE32F0080EE8048B
:102BE00003E3EECFE4FFFBD7E652F2A405D0480E94
:102BF000D66EF29411EC13F0F050020B0AE0F05094
:102C0000100B07E0F0920101010E156F132B000E5F
:102C10001423F050010B07E0F050080B04E0010111
:102C2000010E166FF0909E50020B12E09D50020BA9
:102C30000FE09E9209EC02F0F3CF3FF0F4CF40F0AA
:102C4000F3CFE6FFF4CFE6FF0BEC05F0E552E552DB
:102C5000E55200EE39F0080EE80403E3E5CFEDFF9E
:102C6000FBD700EE31F0140EE80403E3E5CFEDFFEF
:102C7000FBD7E5CFFAFFE5CFF4FFE5CFF3FFE5CFD4
:102C8000F5FFE5CFF7FFE5CFF6FFE5CFEAFFE5CFAC
:102C9000E9FFE5CFDAFF1100200EF26E840EF16E2F
:102CA000D80EF06ED08ED76AD66AC50ED56EF28E6B
:102CB000020EA26ECA6A9D6AA06A9F6E9384120079
:102CC00018D8DB500101136F146B19D013C1F3FF37
:102CD00014C1F4FF12000DD8DBCF15F110D00101A3
:102CE0001551120001011651120003D8DBCF16F165
:102CF00006D0D9CFE6FFE1CFD9FFFE0E1200E55294
:062D0000E7CFD9FF12002D
:0A2D060097948E94120092D8DBCF50
:102D1000EDF095D08ED8DBCFEAF091D00001EA51EA
:102D200012000001E95112000001010EE96FE850A4
:102D30001200000E0001EF6FF06BEE6FF36FF46B9B
:102D4000120048EC0AF0000901E11200EDDFCCECC2
:102D500006F0030802E18E9412000001EB51030A11
:102D600017E0010A0EE0030A01E01200EBC0ECF0EC
:102D7000E95102E1020E03D0EA5120E0030EEB6FAD
:102D80001200E95103E0ECC0EBF012008E94120047
:102D9000EBC0ECF0E95107E1020EEB6FE66A6BEC79
:102DA00016F0E55205D0EA5105E1010EEB6F8E9465
:102DB00099EF16F0EDC0E6FF02D8E552120039D8BF
:102DC000DB50080802E18E8433D0FE0EDB0402E102
:102DD0008E942ED06FEC16F0000928E00001F5511A
:102DE000010A1DE0010A24E1F3C032F0F4C033F01F
:102DF000F32B000EF423FE0EDBCFE6FF0A0EE552A6
:102E0000D880E754FF0FFF0F356AE850325C355029
:102E100033580EE3F36BF46B8E84F52B09D08E944C
:102E2000F56BE66A6BEC16F0E55202D00001F66B2A
:102E300006D0D9CFE6FFE1CFD9FFFE0E1200E55252
:062E4000E7CFD9FF1200EC
:0A2E46009B8CE1EC10F083EC16F019
:102E500024EC0AF044EC00F0C0EC17F0C4EC18F0DD
:102E60006EEC13F0E66860EC1AF0E5524CEC14F0EE
:102E70004CEF16F0E8DF06EC13F0EC0EE66E350EC4
:102E80007BD81A0EE66E350EE66E010EE66E6ED833
:102E9000D20EE66E350EE66E010EE66E67D8060EB1
:102EA000E66E360E69D8B80EE66E350E65D83A98DD
:102EB0003A86080E046E02C03DF003C03EF0190EC3
:102EC0003D5C000E3E5805E3050E3D6E000E3E6E65
:102ED00004D0050E3D26000E3E22B5EC12F0EF5058
:102EE000400B2AE0EF50800B27E1EF50070B3B6EC1
:102EF000D880045421E2EFB60DD07EEC12F03C50A5
:102F0000E15C04E03C50E16EE750D96E3AA6CFD7C1
:102F1000B5EC12F0EF50100B03E0EF50200B0CE07B
:102F2000EFA60AD03A883DC000F03EC001F0EF5055
:102F3000070B046EE85006E002503D18C0E1035054
:102F40003E18BDE13AA8B3D73A9600C03DF001C0A3
:102F50003EF000C002F001C003F0B5EC12F0EF50FB
:102F6000400BA5E0EF50800BA2E1C7D727EC13F090
:102F7000E552E552E5521200E66EE66AB6EF17F04A
:102F8000949A8B9A1200D9CFE6FFE1CFD9FFFE0EBB
:102F9000DBCFFCF0E552E7CFD9FF1200BEEC06F024
:102FA000F3CFE9FFF4CFEAFF290EE926000EEA226B
:102FB000EF5047E0CCEC06F0030843E00001FC5181
:102FC00011E08B7AFAC032F0FBC033F0FA2B000E1E
:102FD000FB234B0E321806E1335004E1FA6BFB6B16
:102FE0008B9AFC6BCCEC06F0050825E10001F95149
:102FF00002E0000E05D08B50200B200A01E0010EEC
:10300000E8B08B8AE8A08B9AF7C032F0F8C033F0B2
:10301000F72B000EF823F40E321819E1010E3318C5
:103020000FE1F76BF86BF95102E0000E01D0010ED1
:10303000F96F8B7A12000001FC5109E18B9AF96B50
:1030400012008B9A0001FC6BFA6BFB6BF96B1200A0
:103050000E0EF66E000EF76E000EF86E01010900FE
:10306000F550056F0900F550066F03E1056701D0C3
:103070003DD00900F550006F0900F550016F0900BF
:10308000F550026F09000900F550E96E0900F5508E
:10309000EA6E090009000900F550036F0900F550B8
:1030A000046F09000900F6CF07F1F7CF08F1F8CF58
:1030B00009F100C1F6FF01C1F7FF02C1F8FF0101EC
:1030C000035302E1045307E00900F550EE6E0307D5
:1030D000F8E20407F9D707C1F6FF08C1F7FF09C1F5
:0E30E000F8FF01010507000E065BBFD71200C6
:0230EE009488C4
:1030F0009486800EC76E280EC66EC56A270EC86EEF
:103100009E9612001F0EC514FDE1C750040BFAE194
:103110001200D9CFE6FFE1CFD9FFF4DFFE0EDB507E
:1031200004E1C580C5A004D0FDD7C582C5B2FED7D5
:1031300027D0C584C5B4FED71200C550400B01E0AE
:10314000010E120016D8C96EC6BE03D0C7B0FED796
:10315000D9DF16D00ED8E8B0C58AE8A0C59AC588D0
:10316000C5B8FED70DD0CEDFC586C7A0FED7C950E3
:103170001200D9CFE6FFE1CFD9FFFE0EDB501200DF
:08318000E552E7CFD9FF120070
:083188004EEC19F0959A8C8AB7
:10319000909A999A8A96939612008C8A00008C9A3B
:1031A0001200D9CFE6FFE1CFD9FFF7DFFD0EDBCF6D
:1031B000E6FF26D8E552E7CFD9FF1200D9CFE6FFC8
:1031C000E1CFD9FFE652E9DFDF6AFC0EDB50DF5CBE
:1031D00012E2336ADF34FE0B3336326EFD0EDB5003
:1031E0003224E96EFE0EDB503320EA6EEF50E66EBD
:1031F00007D8DF2AEAD7E552E552E7CFD9FF120018
:1032000059EC19F0E552030EE66E10EC1BF0E55296
:023210001200AA
:0E321200D9CFE6FFDACFE6FFE1CFD9FFE2CF5A
:10322000DAFFC098C26AC16AFC0EDB50400DF35051
:10323000C00B326EFC0EDB407F0B3C0B3210C26EBB
:10324000FD0EDB50040DF350380B336EFD0EDB38F2
:103250000F0B070B326EFD0EDB50800B321033105C
:10326000C16EC088FA0EDB50C16EFA0EDBCF32F0B1
:10327000FB0EDBCF33F033C032F0336A3250C26E14
:10328000C098FC0EDBAE03D09E9C9D8CF28CC2805D
:0C329000E552E5CFDAFFE7CFD9FF1200CE
:04329C00C00E6D6E85
:1032A000200E6C6E9598959C91909A908C9E959E10
:1032B0001200D9CFE6FFE1CFD9FFE6526F50DF6EA3
:1032C0009E96FE0EDB506F6E9EA6FED7E552E5522F
:1032D000E7CFD9FF1200D9CFE6FFE1CFD9FFE65201
:1032E000DF6ADFCF32F0080EE76E3218E8AE02D0A8
:1032F000E73402D0E750325C10E28C9EFE0EDBAE6B
:1033000002D0918001D091908C8EDBCFF3FFF39EA1
:10331000F346F3CFDBFFDF2AE4D7E552E552E7CFF0
:04332000D9FF1200BF
:0C3324000A63013C1C6400030A63013CC6
:103330001C6400000A63013C1C6400070A63013C32
:103340001C64000002020408057805780578012451
:1033500001240124010A010A010A062A062A062A72
:10336000010F01080108010801080108010801080E
:1033700001081E5A00020001083C013F013F013FC5
:08338000020A0108051412D82D
:08338800900F008F0F00900F61
:10339000008D0F00900F008F0F04900F008E0F060E
:1033A0008F0F03900F01900F03900F018E0F059068
:1033B0000F018E0F07900F01900F008F0F03900FDA
:1033C00000900F03900F008E0F05900F008E0F07D7
:1033D000900F018F0F00900F018D0F00900F018F44
:0833E0000F04900F018E0F068F
:0833E80026C030F026502B0234
:1033F000F4CF25F0F3CF24F027502C02F4CF27F0A0
:10340000F3CF26F02B02F3502526F4502622E86A4B
:10341000272230502C02F3502526F4502622E86A49
:043420002722000C53
:0C342400140348031E0A64001403480748
:103430001E1E640002031428280C06060502020F53
:1034400005050C04060203030203033201010F0603
:0B345000030302030A120000C880BB47
:04345C00FE0EE3CFAE
:10346000E9FFFF0EE3CFEAFFE9CFF3FFEACFF4FF76
:10347000FB0EE35003E1FC0EE35009E0FB0EE30614
:1034800002E2FC0EE306FD0EE350EE6EF1D71200F1
:10349000D9CFE6FFDACFE6FFE1CFD9FFE2CFDAFFFF
:1034A000C098C30EC214326EFD0EDB407F0B3C0B86
:1034B0003210C26EE552E5CFDAFFE7CFD9FF120036
:1034C000FF0EE350426EEF0E01D0F30EE76EE72ED3
:1034D00067EF1AF00C0E416EE76AE72E6DEF1AF0F7
:0E34E000412E6CEF1AF0422E65EF1AF012002A
:0234EE00236A4F
:1034F000226A100EE76ED8902636273622362336FB
:103500002B50225C2C50235805E32B50225E2C506C
:0A351000235A262AE72EF0D71200F6
:06351A0010EC0BF0A1EC27
:1035200016F0CEEC17F00400010EE66EBDEC12F0C2
:0C353000E5528FEC12F00000F0D7120002
:04353C00FF0EE3504B
:10354000426E480E01D04C0EE76EE72EFED7E76ABA
:0C355000E72EFED7422EF7D70000120035
:04355C00057D26645F
:103560005CC4846D04440C0E15868797C454840D86
:0C357000968E34FF640A01000500F4018F
:04357C00400EF36E9C
:1035800000EE00F00F0E01D81200EA6002D0EE6AE1
:0C359000FCD7F350E9601200EE6AFCD793
:04359C001EEE00F02F
:1035A0002EEE00F0F86A1F9C28EC18F02DEC1BF0B2
:0835B0003AEC17F0FBD7120002
:0835B80042EC02F00400010ED8
:1035C000E66EBDEC12F0E5528FEC12F00000F4D77D
:0235D0001200E7
:0E35D20072EC07F00400640EE66EBDEC12F021
:0C35E000E5528FEC12F00000F4D712004E
:0435EC0027EC14F0C4
:1035F0000400010EE66EBDEC12F0E5528FEC12F005
:063600000000F4D71200E7
:0A36060032EC11F00400010EE66E34
:10361000BDEC12F0E5528FEC12F00000F4D712006E
:10362000FF0EE350E84E1200000000D000D000D0A2
:06363000E82EFAD712009B
:0A363600C450356E346AC3503410DE
:08364000F36E35C0F4FF120027
:08364800C098C250020B01E022
:04365000010E120055
:06365400C098C2821200C2
:02365A0012005C
:04365C00000000006A
:02366000000068
:0E366200000000000000010000000000000059
:10367000000000000000000000000000000000004A
:10368000000000000000000000000000000000003A
:0B369000000000883300000000000074
:05369B0000000000002A
:0B36A00000000000000100005E0000C0
:0536AB0000000000001A
:0936B0000000000000E20000002F
:0736B900000000000000000A
:1036C000000000000000FBFF000000000000000000
:0436D00000000000F6
:0C36D400010001010200000000000000E5
:0236E0000000E8
:0E36E200E82A202A000000000000000000007E
:0936F000000000000000000000D1
:0436F90000000000CD
:0336FD00000000CA
:0137000000C8
:0337010035AA00E6
:020000040001F9
:01FFF800AD5B
:01FFF900F710
:01FFFA000501
:01FFFB00F80D
:01FFFC00F014
:01FFFD00FF04
:00000001FF
