:020000040000FA
:06000000FAEF04F012000B
:02082A000000CC
:04082C00D9CFE6FF3B
:10083000E1CFD9FF040EE126DE6ADD6ADECF02F0E9
:10084000DDCF03F0D890035004E6640E025C000E86
:1008500003581DE2020EDB6A030EDB6A020EDBCFD9
:1008600002F0030EDBCF03F0D890035004E6640ED1
:10087000025C000E035806E2020EDB2A030E01E3BF
:10088000DB2AECD7DF2A010E01E3DB2AD7D7040EDF
:10089000E15C02E2E16AE552E16EE552E7CFD9FFA1
:1008A00012000F0EC16E92809390956A8C6A939499
:1008B0008184819A9294809493929380949E08EC80
:1008C00005F0B4DF1AEC05F0010EE66EC4EC04F09E
:1008D000E55200016A6F6B6B800B01E06B6918ECED
:0A08E00005F06AC083FFEDD7120097
:0608EA002A0EF66E080E56
:1008F000F76E000EF86E00010900F550656F0900F3
:10090000F550666F03E1656701D03DD00900F550F1
:10091000606F0900F550616F0900F550626F0900C2
:100920000900F550E96E0900F550EA6E090009006A
:100930000900F550636F0900F550646F0900090064
:10094000F6CF67F0F7CF68F0F8CF69F060C0F6FF38
:1009500061C0F7FF62C0F8FF0001635302E1645316
:1009600007E00900F550EE6E6307F8E26407F9D777
:1009700067C0F6FF68C0F7FF69C0F8FF00016507B0
:08098000000E665BBFD71200F8
:08098800D9CFE6FFDACFE6FF4C
:10099000E1CFD9FFE2CFDAFFE652080EDF6EFD0E9F
:1009A000DBCF6EF0819E00016EBF818E00000000E3
:1009B000D89081B6D880818C6E370000000000008E
:1009C0000000000000000000000000000000000027
:1009D000819C819E00016EBF818EDF06DF50E8E1C1
:1009E00000016E5100D0E552E552E5CFDAFFE7CFC6
:0409F000D9FF120019
:0C09F40013EE00F023EE00F0F86A019C06
:100A000075EC04F01CEC05F051EC04F0FBD712007F
:100A100081848186819E819C93949386939E939CEE
:020A20001200C2
:0E0A220000EE00F00F0EEE6AEA62FDD7120041
:040A300081841200AB
:040A34008194120097
:020A38001200AA
:020000040030CA
:0100000024DB
:010001000EF0
:010002003FBE
:010003001EDE
:010005008179
:010006008178
:010008000FE8
:01000900C036
:01000A000FE6
:01000B00E014
:01000C000FE4
:01000D0040B2
:00000001FF
