:020000040000FA
:060000004EEF2AF0120091
:020006001027C1
:06000800A4EF23F012003A
:02000E000A00E6
:100010002B56000099000000350000002756000014
:1000200057010000040000002356000053010000A7
:10003000040000000C560000000100001700000042
:10004000FE550000360100000E000000D4550000EF
:10005000CE0000002A000000C55500002701000066
:100060000F000000B555000017010000100000004F
:100070007C5500006000000039000000765500004B
:08008000F8000000060000007A
:080088009090909299909992DA
:1000900090968D909996969090948D929994969230
:1000A0008F968F90989698968E9A8E9C979A979CFA
:1000B0008E9E8F98979E989812000001010E646F93
:1000C000666F696B676F656B1200D9CFE6FFE1CF92
:1000D000D9FFAAEC21F0F3CFE9FFF4CFEAFF060E37
:1000E000E926000EEA22EF502BE0000185C032F035
:1000F00086C033F0852B000E8623B80E321802E13D
:100100000B0E33181DE1FD0EDB50EA6A6A0FE96E33
:10011000000EEA22FE0EDBCFEFFF856B866BDB5015
:100120000DE0020E646F91C0E6FF92C0E6FF85EC21
:1001300007F0E552E552010E05D002D0000E02D0C4
:10014000000E00D0E552E7CFD9FF1200D9CFE6FF6D
:10015000E1CFD9FFFE0EDBCF71F0FD0EDBCF72F0E9
:10016000FC0EDBCF73F0FB0EDBCF74F0FA0EDBCFAF
:1001700075F0E552E7CFD9FF1200D9CFE6FFE1CF06
:10018000D9FFE652DF6AFE0EDB50DF5C09E2DF508A
:10019000EA6A6A0FE96E000EEA22EF6ADF2AF3D7F5
:1001A000E552E552E7CFD9FF1200D9CFE6FFE1CF04
:1001B000D9FFE652DF6AFC0EDB50DF5C09E2DF505C
:1001C000EA6A6A0FE96E000EEA22EF6ADF2AF3D7C5
:1001D000E552E552E7CFD9FF12006A0E326E000EEB
:1001E000336E32C0F3FF33C0F4FF00D01200D9CF1A
:1001F000E6FFE1CFD9FFFE0EDBCF64F0E552E7CF9B
:10020000D9FF12000001665100D01200D9CFE6FFDD
:10021000E1CFD9FFFE0EDBCF65F0E552E7CFD9FF86
:1002200012000001655100D012000001645100D09D
:100230001200D9CFE6FFE1CFD9FFFE0EDBCF68F089
:10024000E552E7CFD9FF12000001685100D012003B
:10025000D9CFE6FFE1CFD9FFFE0E336ADB34FE0BC8
:100260003336326E890E3226000E332232C0F3FF4F
:1002700033C0F4FF00D0E552E7CFD9FF1200D9CF49
:10028000E6FFE1CFD9FFE652DF6A040EDF5C19E238
:10029000020EE66EE66AE66A336ADF34FE0B333638
:1002A000326E890E3226000E332232C0E6FF33C092
:1002B000E6FFBCEC29F0346E050EE15E3450DF2A17
:1002C000E4D70E0EE66EE66AE66A7B0EE66E000E78
:1002D000E66EBCEC29F0326E050EE15E3250E5525E
:1002E000E552E7CFD9FF120000017A5100D0120089
:1002F000D9CFE6FFE1CFD9FFE652DF6AAAEC21F0C1
:10030000F3CFE9FFF4CFEAFF060EE926000EEA225A
:10031000EF5009E191C0E6FF92C0E6FF85EC07F0DF
:10032000E552E55270D100016951030A01E1FFD0A5
:10033000010A01E1E6D0030A3BE0010A01E063D1D2
:10034000FD0EDB5026E0FC0EDB50040822E061517C
:1003500004E1010EDF6E57D11CD091C0E6FF92C0C0
:10036000E6FF85EC07F0E552E552FE0EEA6ADB3463
:10037000FE0BEA36E96E890EE926000EEA22EF6AE4
:10038000A2EC06F000017B6B7C6B020E696F936B35
:100390003AD1FE0EDBCFE6FFE7EC07F0E552020EA6
:1003A0000001615D04E1A2EC06F00001692B2BD194
:1003B00091C0E6FF92C0E6FFABEC06F0E552E552D5
:1003C000FD0EDB501FE0FC0EDB5004081BE00001BB
:1003D000692B7D6B7E6BFE0EEA6ADB34FE0BEA3620
:1003E000E96E890EE926000EEA22EF6A91C0E6FF67
:1003F00092C0E6FF85EC07F0E552E5520001936BF1
:1004000002D12DD0FC0EDB50040829E1000187C089
:1004100032F088C033F0872B000E8823340E321858
:1004200002E1210E33181BE1876B886B56EC24F038
:10043000000905E0E66A5AEC24F0E55210D000010C
:100440007D6B7E6B692B91C0E6FF92C0E6FF85EC69
:1004500007F0E552E5520001010E936FD4D0000180
:100460007DC032F07EC033F07D2B000E7E2332C083
:10047000E6FF33C0E6FFF2EC11F0E552E7CF33F0D0
:10048000E552E7CF32F0F3CFE9FFF4CFEAFFE9CF4F
:1004900036F0EACF37F0FE0EDB50040D3650F32471
:1004A000E96E3750F420EA6EEE52EF50346E356A42
:1004B000E80E3502F3CF35F0030E3402F350352643
:1004C000E80E3402F3CF34F0F450352634503218AD
:1004D00002E13550331814E10001692BE66A5AEC49
:1004E00024F0E5520001876B886B91C0E6FF92C053
:1004F000E6FF85EC07F0E552E55200017D6B7E6B6F
:1005000082D0FE0EDB50060DF3CF32F0F4CF33F085
:10051000790E3226520E332232C0E6FF33C0E6FF98
:1005200085EC07F0E552E5520001692B6CD0FE0E18
:10053000DBCFE6FFFC0EDBCFE6FFFE0EDB50060D49
:10054000F3CF32F0F4CF33F0790E3226520E33224D
:1005500032C0E6FF33C0E6FFFDEC06F0E552E5529F
:10056000E552E55200094EE0FE0EDB50060DF3CFDA
:1005700032F0F4CF33F0790E3226520E332232C0ED
:10058000E6FF33C0E6FF85EC07F0E552E5520001D7
:10059000696BFD0EDB5004E0FC0EDB50040806E145
:1005A000FC0EDB50040804E1935102E1010EDF6E02
:1005B000FD0EDB5004E1FC0EDB50040806E1FC0EEE
:1005C000DB5004081FE193511DE0936B020EDF6EB8
:1005D000FE0EEA6ADB34FE0BEA36E96E890EE92686
:1005E000000EEA22010EEF6EFE0EEA6ADB34FE0B0D
:1005F000EA36E96E890EE926000EEA22EE52FC0E7A
:10060000DBCFEFFF00D0DF5000D0E552E552E7CF5F
:10061000D9FF120091C0F3FF92C0F4FF00D0120086
:10062000D9CFE6FFE1CFD9FFFC0EDBCFE6FFFD0E11
:10063000DBCFE6FFFE0EDBCFE6FF5ADEE552E552EA
:10064000E55200095AE0FE0EEA6ADB34FE0BEA3698
:10065000E96E890EE926000EEA22EF5045E0FA0E17
:10066000DBCFE9FFFB0EDBCFEAFFEFCF32F032C08A
:10067000E6FFF2EC11F0E552E7CF32F0F3CFE9FFFD
:10068000F4CFEAFFE9CF33F0EACF34F0FE0EDB50CF
:10069000040D3350F324E96E3450F420EA6E030E57
:1006A000E926000EEA22EF50325C0AE1FA0EDBCFB7
:1006B000E9FFFB0EDBCFEAFFEF6A030E20D01FD06D
:1006C000FA0EDBCFE9FFFB0EDBCFEAFFEF2AFE0ECF
:1006D000EA6ADB34FE0BEA36E96E890EE926000E83
:1006E000EA22EF6A020E0BD0FA0EDBCFE9FFFB0E17
:1006F000DBCFEAFFEF6A010E02D0000E00D0E55218
:10070000E7CFD9FF1200DEEC09F0000901E119D3AF
:1007100000016451030A01E149D1060A01E1C5D093
:10072000010A01E185D0050A56E0030A52E0020AF7
:1007300001E007D364C07AF06751020A27E0020A99
:1007400001E046D0610E916F520E926F010EE66E7F
:10075000AAEC21F0F3CFE9FFF4CFEAFFEF50E66E09
:10076000E66AC6DDE552E552E55200090EE00001F9
:10077000895104E0696B020E646F07D0696B020E49
:10078000676F6D0E916F520E926F22D0010EE66E62
:10079000AAEC21F0F3CFE9FFF4CFEAFF020EE9263D
:1007A000000EEA22EF50E66E020EE66EA1DDE55283
:1007B000E552E55200090BE000018D5104E0696B40
:1007C000020E646F04D0696B010E646F676F00D016
:1007D000B8D2656BB6D264C07AF065510DE0696B32
:1007E000030E646F070EE66ED3EC09F0E552010EBE
:1007F000E66EB9EC09F0E552E66AE66A010EE66ECD
:10080000E66AE66EA3DC326E050EE15E3250070E3C
:10081000E66EAAEC21F0F3CF32F0F4CF33F032C021
:10082000E6FF33C0E6FFC1DCE552E552E55289D26E
:1008300064C07AF0010EE66EB9EC09F0E5524EC1E3
:10084000E6FF78C0E9FF79C0EAFFEF50E66E3DDCD5
:10085000E552E552000906E00001856B866B020E49
:10086000646F6FD24FC1E6FF96EC21F0F3CFE9FF42
:10087000F4CFEAFFEF50E66E020EE66E39DDE55288
:10088000E552E552000910E00001856B866B8D5141
:1008900003E0020E646F08D0050E646F030E686FEC
:1008A000E66AB9EC09F0E5524CD264C07AF068050A
:1008B00039E1AAEC21F0F3CFE9FFF4CFEAFF040E0F
:1008C000E926000EEA22E9CF32F0EACF33F032C057
:1008D000E6FF33C0E6FF9CEC21F0E552E552000153
:1008E000040E646F550E916F520E926F0101030E4C
:1008F0004F6F010EE66EB9EC09F0E5520001696B2D
:10090000AAEC21F0F3CFE9FFF4CFEAFF020EE926CB
:10091000000EEA22E9CF78F0EACF79F00101020E69
:100920004E6F43D0020E685D38E1AAEC21F0F3CFA0
:10093000E9FFF4CFEAFF020EE926000EEA22E9CF32
:1009400032F0EACF33F032C0E6FF33C0E6FF9CEC72
:1009500021F0E552E5520001040E646F6D0E916FB7
:10096000520E926F0101010E4F6FE66EB9EC09F065
:10097000E5520001696BAAEC21F0F3CFE9FFF4CF57
:10098000EAFF040EE926000EEA22E9CF78F0EACF6A
:1009900079F00101040E4E6F08D0685103E1010E99
:1009A000646F03D0030E685D00E1CBD164C07AF0C0
:1009B0006751020A01E1F5D0020A35E0010A01E0BF
:1009C000BFD14F0E916F520E926F940EE66E000ED5
:1009D000E66E040EE66EAAEC21F0F3CFE9FFF4CF49
:1009E000EAFF050EE926000EEA22EF50E66E010E40
:1009F000E66E16DE326E050EE15E3250000A11E040
:100A0000010A08E0020A01E00DD00001020E646F45
:100A1000696B08D00001696B020E676F040E666F88
:100A200001D000D08DD16651030A01E1A5D0010AA1
:100A30004FE0030A01E0B4D0490E916F520E926F5D
:100A4000E66AAAEC21F0F3CFE9FFF4CFEAFFEF501A
:100A5000E66E65EC00F0E552E552000904E00001A5
:100A6000020E646F9DD0940EE66E000EE66E020ECE
:100A7000E66EAAEC21F0F3CFE9FFF4CFEAFFEE52E5
:100A8000EF50E66EE66ACCDD326E050EE15E325066
:100A9000000A1CE0020A13E0030A0AE0020A01E06D
:100AA00016D00001696B020E646F856B866B0FD0E8
:100AB0000001696B030E666F856B866B08D00001C1
:100AC000696B020E666F856B866B01D000D068D0B3
:100AD000610E916F520E926F010EE66EAAEC21F03C
:100AE000F3CFE9FFF4CFEAFFEE52EF50E66E65EC8C
:100AF00000F0E552E552000904E00001020E646FC7
:100B00004FD0950EE66E000EE66E010EE66EAAEC74
:100B100021F0F3CFE9FFF4CFEAFFEF50E66EE66A8B
:100B20007FDD326E050EE15E3250000A23E0020ADC
:100B30001AE0030A0AE0020A01E01DD00001696B15
:100B4000020E646F856B866B16D00001010E666F16
:100B5000696B965105E0020E676F966B050E666F26
:100B6000856B866B08D00001696B010E666F856B23
:100B7000866B01D000D014D083C032F084C033F033
:100B8000832B000E8423D00E321802E1070E331897
:100B900006E1836B846B020E666F010E966F00D0C8
:100BA000CFD06651050A5FE0010A01E0C8D0550EBA
:100BB000916F520E926F020EE66EAAEC21F0F3CF07
:100BC000E9FFF4CFEAFF020EE926000EEA22EF5019
:100BD000E66E65EC00F0E552E552000904E0000124
:100BE000020E646FACD0940EE66E000EE66E020E3E
:100BF000E66EAAEC21F0F3CFE9FFF4CFEAFF030E93
:100C0000E926000EEA22EF50E66E020EE66E08DDDF
:100C1000326E050EE15E3250000A23E0020A1AE04D
:100C2000030A0AE0020A01E01DD00001696B020E0E
:100C3000646F856B866B16D00001696B856B866B64
:100C4000975104E1676B010E666F03D0976B050E39
:100C5000666F08D00001696B050E666F856B866B49
:100C600001D000D06CD06D0E916F520E926F030EBA
:100C7000E66EAAEC21F0F3CFE9FFF4CFEAFF030E12
:100C8000E926000EEA22EF50E66E65EC00F0E55230
:100C9000E552000904E00001020E646F50D0950E89
:100CA000E66E000EE66E010EE66EAAEC21F0F3CFC2
:100CB000E9FFF4CFEAFF020EE926000EEA22EF5028
:100CC000E66E020EE66EACDC326E050EE15E325070
:100CD000000A33E0020A28E0030A0AE0020A01E0FF
:100CE0002DD00001696B020E646F856B866B26D078
:100CF0000001696B040E666F010E676F656B966B82
:100D0000E66AB9EC09F0E5520001010E646F0BECE4
:100D100012F0020805E1030EE66ED3EC09F0E5528D
:100D20000001856B866B0AD00001696B040E666F4B
:100D3000856B866B010E976F01D000D000D000D07C
:100D400000D012000001616B636BE66AE66A31D97C
:100D5000E552E5521200D9CFE6FFE1CFD9FFFD0EF3
:100D6000DBCFF6FFFE0EDBCFF7FF020EF626000EFE
:100D7000F7220800F550336E010E335204E0E846C6
:100D8000FE0B3306FCE1326EFD0EDBCFF6FFFE0EEE
:100D9000DBCFF7FF0900F5CFE9FF0800F5CFEAFF49
:100DA0003250EF12FD0EDBCFF6FFFE0EDBCFF7FF6A
:100DB000050EF626000EF7220800F550336E010EE0
:100DC000335204E0E846FE0B3306FCE1326EFD0EC2
:100DD000DBCFF6FFFE0EDBCFF7FF030EF626000E8D
:100DE000F7220900F5CFE9FF0800F5CFEAFF3250FE
:100DF000EF12E552E7CFD9FF1200D9CFE6FFE1CFDE
:100E0000D9FF00019851010A5EE0010A01E077D0A4
:100E1000FC0EDB50040803E1010E986F70D0FC0E4D
:100E2000DB040CE1FB0EDB50060DF3CF32F0F4CF08
:100E300033F0490E3226520E33220BD0FB0EDB501C
:100E4000060DF3CF32F0F4CF33F0610E3226520E9E
:100E5000332232C0E6FF33C0E6FF7DDFE552E552C4
:100E6000000181C032F082C033F0812B000E82235A
:100E70002D0E321801E1335025E1816B826B010E9A
:100E8000986FFC0EDB040CE1FB0EDB50060DF3CF7C
:100E900032F0F4CF33F0490E3226520E33220BD00B
:100EA000FB0EDB50060DF3CF32F0F4CF33F0610EC2
:100EB0003226520E332232C0E6FF33C0E6FF25D879
:100EC000E552E5521CD0FD0EDBCFE6FFFE0EDBCF78
:100ED000E6FF41DFE552E55200017FC032F080C0FD
:100EE00033F07F2B000E8023320E321801E1335095
:100EF00005E17F6B806B986B010E03D000D0000E74
:100F000000D0E552E7CFD9FF1200D9CFE6FFE1CFFD
:100F1000D9FFFD0EDBCFF6FFFE0EDBCFF7FF020E93
:100F2000F626000EF7220800F550336E010E3352FC
:100F300004E0E846FE0B3306FCE1E81C326EFD0ED1
:100F4000DBCFF6FFFE0EDBCFF7FF0900F5CFE9FFA1
:100F50000800F5CFEAFF3250EF16FD0EDBCFF6FFAB
:100F6000FE0EDBCFF7FF050EF626000EF722080077
:100F7000F550336E010E335204E0E846FE0B3306A3
:100F8000FCE1E81C326EFD0EDBCFF6FFFE0EDBCF80
:100F9000F7FF030EF626000EF7220900F5CFE9FF52
:100FA0000800F5CFEAFF3250EF16E552E7CFD9FF40
:100FB0001200D9CFE6FFE1CFD9FFFE0EDB50CA6E9B
:100FC000FD0EDB509D6EE552E7CFD9FF1200D9CF61
:100FD000E6FFE1CFD9FF020EE12600016151010ACF
:100FE00001E199D0010A01E0BAD0F2EC11F0F3CF9F
:100FF000E9FFF4CFEAFFE9CF32F0EACF33F0FE0E9B
:10100000DB50040D3250F324E96E3350F420EA6EC5
:10101000020EE926000EEA22EF50DE6EDD6AD9CF1D
:10102000E9FFDACFEAFF640EEE1801E1ED5005E1C9
:101030000001020E616F93D06DD0DECF32F0DDCFB4
:1010400033F0D89033323232D8903332323232C029
:1010500060F0DECF32F0DDCF33F0640ED880325650
:10106000000E3356D89033323232D8903332323287
:1010700032C050F1F2EC11F0F3CFE9FFF4CFEAFF08
:10108000E9CF32F0EACF33F0FE0EDB50040D3250E0
:10109000F324E96E3350F420EA6EEF50DE6EDD6A21
:1010A000010150510EE10A0E266E276ADECF2BF0A9
:1010B000DDCF2CF080EC29F024C051F125C052F195
:1010C0001ED05051346E356ADECF32F0DDCF33F0B2
:1010D0000A0E3302F3CF33F03202F3CF32F0F45082
:1010E000332632C026F033C027F034C02BF035C091
:1010F0002CF005EC2AF026C051F127C052F1000176
:10110000612B60C062F0020EE66E0D0EE66E51DFDE
:10111000E552E55224D001015051000818E20001C7
:101120007BC032F07CC033F07B2B000E7C230101AE
:101130005151325C5251335802E211D007D00001B4
:101140007B6B7C6B010150070001602B07D0E66AC6
:10115000E66A2FDFE552E5520001612B00D0020E56
:10116000E15C02E2E16AE552E16EE552E7CFD9FFC8
:101170001200D9CFE6FFE1CFD9FFAAEC21F0F3CFDF
:10118000E9FFF4CFEAFF060EE926000EEA22EF504F
:1011900001E17ED0FD0EDBCFF6FFFE0EDBCFF7FFC9
:1011A000050EF626000EF7220800F550336E010EEC
:1011B000335204E0E846FE0B3306FCE1326EFD0ECE
:1011C000DBCFF6FFFE0EDBCFF7FF030EF626000E99
:1011D000F7220900F5CFE9FF0800F5CFEAFF32500A
:1011E000EF1200016351632B326E190E325C4CE238
:1011F000625125E1FD0EDBCFF6FFFE0EDBCFF7FFE0
:10120000020EF626000EF7220800F550336E010E8E
:10121000335204E0E846FE0B3306FCE1E81C326E74
:10122000FD0EDBCFF6FFFE0EDBCFF7FF0900F5CF9B
:10123000E9FF0800F5CFEAFF3250EF1624D062072D
:10124000FD0EDBCFF6FFFE0EDBCFF7FF020EF6261C
:10125000000EF7220800F550336E010E335204E001
:10126000E846FE0B3306FCE1326EFD0EDBCFF6FFE7
:10127000FE0EDBCFF7FF0900F5CFE9FF0800F5CF41
:10128000EAFF3250EF1203D060C062F0636B4CD0C3
:10129000FD0EDBCFF6FFFE0EDBCFF7FF020EF626CC
:1012A000000EF7220800F550336E010E335204E0B1
:1012B000E846FE0B3306FCE1E81C326EFD0EDBCF88
:1012C000F6FFFE0EDBCFF7FF0900F5CFE9FF0800C0
:1012D000F5CFEAFF3250EF16FD0EDBCFF6FFFE0E24
:1012E000DBCFF7FF050EF626000EF7220800F550BB
:1012F000336E010E335204E0E846FE0B3306FCE188
:10130000E81C326EFD0EDBCFF6FFFE0EDBCFF7FFE3
:10131000030EF626000EF7220900F5CFE9FF0800BC
:10132000F5CFEAFF3250EF16E552E7CFD9FF1200B2
:101330008D8C969C8D8E969E8C8095908C829592AD
:101340008C8495948C869596969A96989696969473
:101350008D9A8D988D968D94DDC0D9F0DDC0DAF030
:10136000DDC0DBF0E9C0E5F0E9C0E6F0E9C0E7F098
:101370001200D9CFE6FFE1CFD9FFFE0EDBCFF4F0AC
:10138000E552E7CFD9FF12000001F35100D012005F
:10139000D9CFE6FFE1CFD9FFFE0EDBCFF3F0E55268
:1013A000E7CFD9FF1200D9CFE6FFE1CFD9FFFE0E7C
:1013B000DBCFF2F0E552E7CFD9FF12000001F25186
:1013C00000D01200C00E8D120F0E8C120001F751CA
:1013D0000C0DF3CFE9FFF4CFEAFFD20EE926000EA1
:1013E000EA22070EE926000EEA22E9CF37F0EACF1B
:1013F00038F0F5510F013724E96E000E3820EA6EFF
:10140000EFCF36F00001F7510C0DF3CFE9FFF4CF29
:10141000EAFFD20EE926000EEA22040EE926000EAB
:10142000EA22E9CF34F0EACF35F0F5510F01342448
:10143000E96E000E3520EA6EEF50326E336A00011D
:10144000F751E96EEA6AD890E936EA36CE0EE92617
:10145000000EEA223250EE24F66E3350EE20F76E84
:101460000800F5503614E66ECBEC28F0E55200018A
:10147000F651050A15E0010A11E0070A0DE0010A1C
:1014800009E0030A05E0010A01E00BD08D9C09D0B8
:101490008D9E07D08C9005D08C9203D08C9401D077
:1014A0008C96F62BF52B030EF55D07E1F56BF72B0C
:1014B000020EF75D02E1F76BF66B1200D9CFE6FF83
:1014C000E1CFD9FF020EE126DF6A700EF66E530EF1
:1014D000F76E0800010EF5CFDBFFFC0EDB500C0DA4
:1014E000F3CFE9FFF4CFEAFFD20EE926000EEA229D
:1014F000EF503CE0FC0EDB500C0DF3CFE9FFF4CFD6
:10150000EAFFD20EE926000EEA22040EE926000EBA
:10151000EA22020EE926000EEA22190EEF6EFC0EF8
:10152000DB500C0DF3CFE9FFF4CFEAFFD20EE92632
:10153000000EEA22040EE926000EEA22010EE92638
:10154000000EEA22190EEF6EFC0EDB500C0DF3CFED
:10155000E9FFF4CFEAFFD20EE926000EEA22040EDC
:10156000E926000EEA22190EEF6E22D1FC0EDB50A6
:101570000C0DF3CFE9FFF4CFEAFFD20EE926000EFF
:10158000EA22040EE926000EEA22020EE926000EE7
:10159000EA22EF6AFC0EDB500C0DF3CFE9FFF4CF2B
:1015A000EAFFD20EE926000EEA22040EE926000E1A
:1015B000EA22010EE926000EEA22EF6AFC0EDB5059
:1015C0000C0DF3CFE9FFF4CFEAFFD20EE926000EAF
:1015D000EA22040EE926000EEA22EF6E030EDF5C1B
:1015E00001E39AD0FC0EDB500C0DF3CFE9FFF4CFF2
:1015F000EAFFD20EE926000EEA22EE52E9CF34F0DD
:10160000EACF35F0DF500F013424E96E000E3520AB
:10161000EA6EEFCF32F0336A32BE33680A0E325CC4
:10162000000E335835E3FC0EDB500C0DF3CFE9FF11
:10163000F4CFEAFFD20EE926000EEA22EE52E9CFFD
:1016400034F0EACF35F0DF503424E96E000E352057
:10165000EA6EEF50E66EFC0EDB500C0DF3CFE9FFA7
:10166000F4CFEAFFD20EE926000EEA22040EE926A4
:10167000000EEA22E9CF32F0EACF33F0DF50322415
:10168000E96E000E3320EA6EE552E750EF6E38D077
:10169000FD0EDBCF32F0FE0EDBCF33F0010EDB5060
:1016A000346E356A3450325C3550335829E3010EBC
:1016B000DB50326E336AD950FD0FE96EFF0EDA202F
:1016C000EA6E3250EE5E3350ED5AFC0EDB500C0DDC
:1016D000F3CFE9FFF4CFEAFFD20EE926000EEA22AB
:1016E000040EE926000EEA22E9CF32F0EACF33F009
:1016F000DF503224E96E000E3320EA6EEF2AC8D79D
:10170000DF2ADF50F76A700FF66E530EF7220800DB
:10171000010EF5CFDBFF62D7FC0EDB500C0DF3CFD3
:10172000E9FFF4CFEAFFD20EE926000EEA22040E0A
:10173000E926000EEA22EF503BE1FC0EDB500C0DD7
:10174000F3CFE9FFF4CFEAFFD20EE926000EEA223A
:10175000040EE926000EEA22190EEF6EFC0EDB5095
:101760000C0DF3CFE9FFF4CFEAFFD20EE926000E0D
:10177000EA22040EE926000EEA22010EE926000EF6
:10178000EA22EF5015E1FC0EDB500C0DF3CFE9FF20
:10179000F4CFEAFFD20EE926000EEA22040EE92673
:1017A000000EEA22010EE926000EEA22190EEF6E63
:1017B000020EE15C02E2E16AE552E16EE552E7CF3A
:1017C000D9FF1200E3EC11F0040A0FE0050A0BE068
:1017D000020A09E0010A07E0070A05E0050A01E03C
:1017E00017D08D9615D08D8613D07FEC11F0010A9D
:1017F0000CE0010A01E00BD0010EE66E040EE66E6D
:10180000D7EC10F0E552E55202D08D8600D000D022
:1018100012000001F251080A01E159D1020A01E166
:1018200036D10D0A01E1FDD0010A01E1D2D0030A4F
:1018300001E1B8D00C0A01E19ED00D0A01E180D08F
:10184000070A4FE0010A2FE0030A0FE0010A01E056
:1018500047D17EEC10F08D9A8D988D96E66AE66AF7
:10186000D7EC10F0E552E5523BD1010EF36FE66A7A
:10187000030EE66ED7EC10F0E552E5528D96E66A5F
:10188000010EE66EE66E2DDAE552E552E552010EE6
:10189000E66EE66AE66E25DAE552E552E5525ADB77
:1018A0007FDB12DB1DD1020EF36FE66A030EE66EDC
:1018B000D7EC10F0E552E5528D96E66AE66A010E25
:1018C000E66E0FDAE552E552E552010EE66EE66E7F
:1018D000E66A07DAE552E552E5523CDB61DBF4DA11
:1018E000FFD0030EF36F92DB0BEC12F0020A0DE057
:1018F000020A01E024D0E66A020EE66ED7EC10F090
:10190000E552E5528D968D981AD0E3EC11F0050A58
:1019100011E0010A0FE0050A0AE0030A08E0010AE3
:1019200006E0030A01E009D08D988D9A06D08D88D3
:101930008D9A03D08D988D8A00D044DF00D0D0D00E
:10194000040EF36FF2EC11F0F3CFE9FFF4CFEAFFEE
:10195000270EE926000EEA22EF50E66E0A0EE66E2A
:1019600079DAE552E552E66A030EE66ED7EC10F03E
:10197000E552E552B5D0090EF36F79EC11F0F3CFD3
:10198000E9FFF4CFEAFFEF04E66E0B0EE66E62DAD3
:10199000E552E552E66A030EE66ED7EC10F0E5522A
:1019A000E5529ED0E66A010EE66E0C0EE66E0A0E59
:1019B000E66E0B0EE66E96D8326E050EE15E325084
:1019C0008D8A8D888D96E66AE66AF1DBE552E552EE
:1019D00087D0060EF36FE66AF4C0E6FF0D0EE66EE2
:1019E0000F0EE66E0E0EE66E7DD8326E050EE15ECF
:1019F0003250010EE66EF4C0E6FF180EE66E170ECA
:101A0000E66E0E0EE66E6ED8326E050EE15E325058
:101A10008D8A8D888D96E66AE66AC9DBE552E552C5
:101A20005FD0070EF36FE66AF4C0E6FF0B0EE66EBA
:101A30000C0EE66E100EE66E55D8326E050EE15EA7
:101A40003250010EE66EF4C0E6FF0D0EE66E0C0E8F
:101A5000E66E150EE66E46D8326E050EE15E325029
:101A600002EC01F0030804E002EC01F0060807E1D3
:101A7000E66A030EE66E9BDBE552E55207D0E66AA6
:101A8000E66A95DBE552E5528D8A8D8829D00A0EEB
:101A9000F36FE66AF4C0E6FF170EE66E100EE66E10
:101AA0000A0EE66E1FD8326E050EE15E3250010E50
:101AB000E66EF4C0E6FF0D0EE66E0F0EE66E0E0E3D
:101AC000E66E10D8326E050EE15E325009D0E3D8D2
:101AD000E66A010EE66E6BDBE552E5528D9600D0AC
:101AE000E2EF09F0D9CFE6FFE1CFD9FFE6520FECE4
:101AF00012F0000904E00001080EF26FC7D0FA0EE0
:101B0000DB500C0DF3CFE9FFF4CFEAFFD20EE9264C
:101B1000000EEA22EE52FE0EDBCFEFFFFA0EDB5094
:101B20000C0DF3CFE9FFF4CFEAFFD20EE926000E49
:101B3000EA22EE52010EE926000EEA22FD0EDBCF6C
:101B4000EFFFFA0EDB500C0DF3CFE9FFF4CFEAFF05
:101B5000D20EE926000EEA22EE52020EE926000E0F
:101B6000EA22FC0EDBCFEFFFFA0EDB500C0DF3CFB9
:101B7000E9FFF4CFEAFFD20EE926000EEA220A0EB0
:101B8000E926000EEA22010EE926000EEA22EF50B5
:101B9000E66EFA0EDB500C0DF3CFE9FFF4CFEAFF4F
:101BA000D20EE926000EEA22070EE926000EEA22EE
:101BB000E552E750EF6EFA0EDB500C0DF3CFE9FF64
:101BC000F4CFEAFFD20EE926000EEA220A0EE92639
:101BD000000EEA22010EE926000EEA22EF50E66E20
:101BE000FA0EDB500C0DF3CFE9FFF4CFEAFFD20E73
:101BF000E926000EEA22070EE926000EEA22010E6F
:101C0000E926000EEA22E552E750EF6EFA0EDB50AD
:101C10000C0DF3CFE9FFF4CFEAFFD20EE926000E58
:101C2000EA220A0EE926000EEA22010EE926000E3B
:101C3000EA22EF50E66EFA0EDB500C0DF3CFE9FF0F
:101C4000F4CFEAFFD20EE926000EEA22070EE926BB
:101C5000000EEA22020EE926000EEA22E552E750C3
:101C6000EF6EFA0EDBCFE6FFFB0EDBCFE6FFE66A98
:101C700038D8E552E552E552FA0EDBCFE6FF0A0E00
:101C8000E66EE66A1BDCE552E552E552E552E552A6
:101C9000E7CFD9FF12000FEC12F0000903E1F3C007
:101CA000F2F01ED000010D0ED36FD56BD5C0D4F06D
:101CB000DCC0D9F0DDC0DAF0DDC0DBF0E66A010E91
:101CC000E66EE66E0ED8E552E552E552E66A0FEC96
:101CD00012F0E66EE66A5EEC0AF0E552E552E55275
:101CE0001200D9CFE6FFE1CFD9FFFE0EDB503EE078
:101CF000FC0EDB500C0DF3CFE9FFF4CFEAFFD20E60
:101D0000E926000EEA220A0EE926000EEA22E9CFB1
:101D100032F0EACF33F0FC0EDB500C0DF3CFE9FFCD
:101D2000F4CFEAFFD20EE926000EEA22EFCF34F01C
:101D3000356A34BE356832503424E96E335035206C
:101D4000EA6EEF50E66EFC0EDB500C0DF3CFE9FFB0
:101D5000F4CFEAFFD20EE926000EEA22070EE926AA
:101D6000000EEA22E552E750EF6E27D0FC0EDB5062
:101D70000C0DF3CFE9FFF4CFEAFFD20EE926000EF7
:101D8000EA220A0EE926000EEA22010EE926000EDA
:101D9000EA22EF50E66EFC0EDB500C0DF3CFE9FFAC
:101DA000F4CFEAFFD20EE926000EEA22070EE9265A
:101DB000000EEA22E552E750EF6EFD0EDB503AE0EE
:101DC0000001ECC032F0EDC033F0EC2B000EED233F
:101DD000760EF66E530EF76E0900F5CF34F008005C
:101DE000F5CF35F03450321802E13550331821E187
:101DF000EC6BED6BFC0EDB500C0DF3CFE9FFF4CF79
:101E0000EAFFD20EE926000EEA22EF5002E0000EB1
:101E100001D0010EE66EFC0EDB500C0DF3CFE9FF96
:101E2000F4CFEAFFD20EE926000EEA22E552E7508F
:101E3000EF6E0CD0FC0EDB500C0DF3CFE9FFF4CFAE
:101E4000EAFFD20EE926000EEA22EF6AE552E7CF5A
:101E5000D9FF1200D9CFE6FFE1CFD9FF0FEC12F086
:101E6000000904E00001080EF26F1DD0FE0EDBCF6A
:101E700032F00A0E32240001DF6FE16BE1C0E0F0C6
:101E8000010EE66EE66EE66E2CDFE552E552E55297
:101E9000010EE66EFD0EDBCFE6FFE66A5EEC0AF0B1
:101EA000E552E552E552E552E7CFD9FF1200D9CF0E
:101EB000E6FFE1CFD9FFFE0EDB500001EE6FEF6BC6
:101EC000E552E7CFD9FF12000001EEC032F0EFC0BB
:101ED00033F0EE2B000EEF2332C0E6FF33C0E6FFF7
:101EE000F2EC11F0E552E7CF33F0E552E7CF32F0F4
:101EF000F3CFE9FFF4CFEAFF2A0EE926000EEA222B
:101F0000EF50346E356AE80E3502F3CF35F0030E2C
:101F10003402F3503526E80E3402F3CF34F0F45097
:101F200035263450321802E13550331812E10001E1
:101F3000EE6BEF6BB4EC21F0F3CFE9FFF4CFEAFFE7
:101F4000020EE926000EEA22EF5003E10001030E23
:101F5000F26F12000FEC12F0000906E00001080E0B
:101F6000F26FEE6BEF6B1BD000010B0ED36FD56BD6
:101F7000D5C0D4F0E66A5BEC17F0E66EE66A5EEC7C
:101F80000AF0E552E552E552D2C0E9FFEA6AE9BE3D
:101F9000EA68DC0EE926000EEA22EFCFD9F0120043
:101FA0000FEC12F0000904E00001080EF26F2DD0D2
:101FB0000001E569E16BE1C0E0F0E1C0DFF0010E96
:101FC000E66EF2EC11F0F3CFE9FFF4CFEAFFE9CFD0
:101FD00032F0EACF33F032C0E6FF33C0E6FF5BEC0D
:101FE00017F0E552E7CF33F0E552E7CF32F00F01BB
:101FF0003224E96E000E3320EA6EEF50E66EE66A98
:102000005EEC0AF0E552E552E55212000FEC12F0D8
:10201000000904E00001080EF26F6FD00001D56BDB
:10202000D5C0D4F057EC17F0000919E00001160EE6
:10203000D36FE66AE66ADDEC1CF0E552F3CFE9FF08
:10204000F4CFEAFF050EE926000EEA22EF50E66E15
:10205000E66A5EEC0AF0E552E552E5522DD0E66AFA
:10206000010EE66EDDEC1CF0E552F3CFE9FFF4CF94
:10207000EAFF050EE926000EEA22EF50E66EE66A58
:102080005EEC0AF0E552E552E552F2EC11F0F3CFC6
:10209000E9FFF4CFEAFF280EE926000EEA22EF500E
:1020A000326E336A1A0E3226000E3322090E325E69
:1020B000000E335A32C0D3F0DCC0E5F0DCC0D9F0FA
:1020C0000001DE6BDEC0D2F0140EDF6FE16BE1C009
:1020D000E0F0010EE66EF2EC11F0F3CFE9FFF4CF81
:1020E000EAFF270EE926000EEA22EF50E66EE66AC6
:1020F0005EEC0AF0E552E552E55212000001EAC03A
:1021000032F0EBC033F0EA2B000EEB23740EF66EC8
:10211000530EF76E0900F5CF34F00800F5CF35F017
:10212000E80E3502F3CF35F0030E3402F3503526B6
:10213000E80E3402F3CF34F0F45035263450321820
:1021400002E13550331807E1EA6BEB6BD26BD969CA
:10215000030EF26F2BD0E66A010EE66EE66EC1DD6D
:10216000E552E552E552E66AF2EC11F0F3CFE9FFF1
:10217000F4CFEAFF340EE926000EEA22EF50E66EB5
:10218000E66A5EEC0AF0E552E552E552010EE66EB3
:10219000E66A0F0EE66E150EE66E100EE66EA2DC17
:1021A000326E050EE15E32500001F26B1200D9CFA3
:1021B000E6FFE1CFD9FFFE0EDB5001E187D0000141
:1021C000F0C032F0F1C033F0F02B000EF123760EA8
:1021D000F66E530EF76E0900F5CF34F00800F5CF18
:1021E00035F03450321802E13550331819E1F06BF4
:1021F000F16BFD0EDB50EA6A3D0FE96E0F0EEA222D
:10220000EF5002E0000E01D0010EE66EFD0EDB5035
:10221000EA6A3D0FE96E0F0EEA22E552E750EF6ED3
:10222000FE0EDB50050A44E0010A36E0070A21E011
:10223000010A11E0030A01E048D0FD0EDB50EA6A12
:102240003D0FE96E0F0EEA22EF50E8B08D88E8A04E
:102250008D988D9A3AD08D98FD0EDB50EA6A3D0F2D
:10226000E96E0F0EEA22EF50E8B08D8AE8A08D9A51
:102270002CD0FD0EDB50EA6A3D0FE96E0F0EEA220C
:10228000EF50E8B08D8AE8A08D9A8D50200B02E0C7
:102290008D8801D08D9819D0FD0EDB50EA6A3D0F74
:1022A000E96E0F0EEA22EF50E8B08D86E8A08D9619
:1022B000FD0EDB50EA6A3D0FE96E0F0EEA22EF5089
:1022C000E8B08D84E8A08D9400D00BD0FD0EDB50DB
:1022D000EA6A3D0FE96E0F0EEA22EF6A0001F06B29
:0A22E000F16BE552E7CFD9FF1200C1
:0622EA000101245100D0A7
:1022F000120025C1F3FF26C1F4FF00D01200010136
:10230000235100D01200020E01011A5D03E0050EF8
:102310001A5D3DE115EC01F0010837E101011FC133
:1023200032F020C133F01F2B000E2023500E325C00
:10233000460E335828E31F6B206B010EE66EDDEC72
:102340001CF0E552F3CFE9FFF4CFEAFF050EE926D2
:10235000000EEA22EFCF32F00F010051325C03E2AF
:10236000010E19D018D0010EE66EDDEC1CF0E5521E
:10237000F3CFE9FFF4CFEAFF050EE926000EEA22CB
:10238000EFCF00FF08D0000E06D0000E04D01F6B68
:10239000206B000E00D01200D9CFE6FFE1CFD9FFAD
:1023A000FE0EDBCF00FFE552E7CFD9FF1200000E93
:1023B0000F01386F396B01011F6F206B1D6F1E6B92
:1023C0001B6F1C6B120001011A5100D01200D9CFF3
:1023D000E6FFE1CFD9FFFE0EDBCF1AF1E552E7CFE2
:1023E000D9FF1200010E326E0F0E336E32C0F3FFB2
:1023F00033C0F4FF00D01200D9CFE6FFE1CFD9FF00
:10240000FE0EDBCF17F1E552E7CFD9FF1200010135
:10241000195100D012000101175100D01200010122
:10242000185100D01200D9CFE6FFE1CFD9FFFE0E40
:10243000DBCF18F1E552E7CFD9FF1200D9CFE6FF85
:10244000E1CFD9FFFE0EDBCF21F1E552E7CFD9FF77
:10245000120015EC01F0010827E101011DC132F065
:102460001EC133F01D2B000E1E23700E321802E128
:10247000170E331819E11D6B1E6BE66ADDEC1CF0BC
:10248000E552F3CFE9FFF4CFEAFF050EE926000E8F
:10249000EA22EFCF32F0060E325C06E20101216B38
:1024A000E66A33EC25F0E55212000F01335101E0EA
:1024B00024D10101215102E1100E21D1E66ADDECA7
:1024C0001CF0E552F3CFE9FFF4CFEAFF050EE92651
:1024D000000EEA22EF50FA0802E1010E10D1E66A7E
:1024E000DDEC1CF0E552F3CFE9FFF4CFEAFF050E77
:1024F000E926000EEA22EF50FB0802E1020EFFD0AF
:10250000010EE66EDDEC1CF0E552F3CFE9FFF4CFEF
:10251000EAFF050EE926000EEA22EF50FA0802E172
:10252000030EEDD0010EE66EDDEC1CF0E552F3CFAC
:10253000E9FFF4CFEAFF050EE926000EEA22EF508C
:10254000FB0802E1040EDBD0010EE66E28EC01F080
:10255000E552F3CFE9FFF4CFEAFFEF500FE0010EB1
:10256000E66E28EC01F0E552F3CFE9FFF4CFEAFF85
:10257000EE52EF50040802E10F0EC1D0E66A28ECDB
:1025800001F0E552F3CFE9FFF4CFEAFFEF501BE093
:10259000E66A28EC01F0E552F3CFE9FFF4CFEAFF59
:1025A000EE52EF0402E1050EAAD0E66A28EC01F033
:1025B000E552F3CFE9FFF4CFEAFFEE52EF50020805
:1025C00002E1060E9CD0020EE66E28EC01F0E55208
:1025D000F3CFE9FFF4CFEAFFEF502CE0020EE66EF6
:1025E00028EC01F0E552F3CFE9FFF4CFEAFFEE5219
:1025F000EF0402E1070E83D0020EE66E28EC01F034
:10260000E552F3CFE9FFF4CFEAFFEE52EF500208B4
:1026100002E1080E74D0020EE66E28EC01F0E552DD
:10262000F3CFE9FFF4CFEAFFEE52EF50030802E1E7
:10263000090E65D0EDEC00F0F3CFE9FFF4CFEAFF2F
:10264000EF5002E00A0E5BD0EDEC00F0F3CFE9FFB3
:10265000F4CFEAFF010EE926000EEA22EF5002E075
:102660000B0E4DD0EDEC00F0F3CFE9FFF4CFEAFF15
:10267000020EE926000EEA22EF5002E00C0E3FD0D7
:10268000EDEC00F0F3CFE9FFF4CFEAFF030EE9260B
:10269000000EEA22EF5002E00D0E31D0EDEC00F01A
:1026A000F3CFE9FFF4CFEAFF040EE926000EEA2299
:1026B000EF5002E00E0E23D0AAEC21F0F3CFE9FF99
:1026C000F4CFEAFF070EE926000EEA22EF5002E0FF
:1026D000130E15D0E66A320EE66EE66A4BEC20F079
:1026E000E552E552E66E320EE66EFAEC17F0E55270
:1026F000E552E552000E03D002D0335100D0120053
:10270000DEEC09F0000901E126D0030E0101175D9E
:1027100003E0CBDE0101186F1751050A1AE0010A28
:1027200014E0070A10E0010A0AE0030A06E0010AC1
:1027300001E011D0196B35D80ED04ED80CD0020E56
:10274000196F7BD808D046DA06D0040E196F67DA05
:1027500002D07ADA00D01200D9CFE6FFE1CFD9FF5C
:10276000AAEC21F0F3CFE9FFF4CFEAFF060EE92649
:10277000000EEA22EF5011E1DEEC09F0E66EC8EC43
:1027800009F0E552050EE66ED3EC09F0E552FE0EB7
:10279000DBCF19F10101030E176FE552E7CFD9FF27
:1027A00012000101300E256F0F0E266F5E0E246F92
:1027B000E66AD2DFE552010118510DE0050E176FF0
:1027C000320EE66EE66A18C1E6FF84EC20F0E552B0
:1027D000E552E55200D01200010EE66EBDDFE55273
:1027E000E66A33EC25F0E552010118510FE0010EC5
:1027F000196F050E176F320EE66EE66A18C1E6FF16
:1028000084EC20F0E552E552E55216D015EC01F0CB
:10281000010812E1020E0101195D06E019050CE143
:1028200053EC17F0000908E10101020E176F030EC7
:10283000E66ED3EC09F0E5521200D9CFE6FFE1CF06
:10284000D9FF020EE126E66E87DFE552010118513D
:1028500013E0ADDD0101050E176F320EE66EE66A7C
:1028600018C1E6FF84EC20F0E552E552E552E66A35
:1028700033EC25F0E552A4D146DD000909E0E66A13
:1028800033EC25F0E5520101176B1A6B90DD98D1FE
:102890000101010E216F210501E092D11A51050AB3
:1028A00001E141D1010A01E128D1070A01E1D0D0BB
:1028B000010A74E0030A1FE0010A01E080D10F0160
:1028C0002951EA6A2C0FE96E0F0EEA22EF50366F9B
:1028D000376BE80E3703F3CF37FF030E3603F350A1
:1028E0003727E80E3603F3CF36FFF45037270101C0
:1028F000010E1A6F64D1010EE66EDDEC1CF0E5529C
:10290000F3CFE9FFF4CFEAFF050EE926000EEA2235
:10291000EFCF32F00F012951EA6A1F0FE96E0F0E57
:10292000EA22EF50285D325C17E2A1D9000913E0DA
:102930000101020E1A6F010EE66EDDEC1CF0E5528D
:10294000F3CFE9FFF4CFEAFF050EE926000EEA22F5
:10295000EFCF00FF80D921D00101030E1A6F7BD980
:102960000F0129510101256F266B220E25270F0E1D
:1029700026230F012951E824420F0101246F25C1AC
:10298000E9FF26C1EAFFEF50E66E28EC25F0E5529C
:10299000010EE66E33EC25F0E55211D1010EE66E24
:1029A000DDEC1CF0E552F3CFE9FFF4CFEAFF050EB2
:1029B000E926000EEA22EFCF32F00F012951EA6A30
:1029C0001F0FE96E0F0EEA22EF50285D325C1DE208
:1029D000010EE66E33EC25F0E55201011BC132F029
:1029E0001CC133F01B2B000E1C230F013651325C2F
:1029F0003751335809E301011B6B1C6B010E176F34
:102A0000E66E06EC01F0E55222D00101030E1A6FCA
:102A1000E66ED3EC09F0E55201011B6B1C6B0F0154
:102A200029510101256F266B220E25270F0E262323
:102A30000F012951E824420F0101246F25C1E9FF4C
:102A400026C1EAFFEF50E66E28EC25F0E552B7D03C
:102A5000010EE66EDDEC1CF0E552F3CFE9FFF4CF9A
:102A6000EAFF050EE926000EEA22EFCF32F00F0151
:102A70002851325C11E30101040E1A6F0F01295134
:102A80000101256F266B250E25270F0E2623E66AEA
:102A900033EC25F0E55230D0010EE66EDDEC1CF093
:102AA000E552F3CFE9FFF4CFEAFF050EE926000E69
:102AB000EA22EFCF32F00F012951EA6A1F0FE96EC7
:102AC0000F0EEA22EF50285D325C16E20101020E81
:102AD0001A6F36CF1BF137CF1CF1300E256F0F0E5A
:102AE000266F5E0E246F25C1E9FF26C1EAFFEF5075
:102AF000E66E28EC25F0E55262D03AD9000912E0E2
:102B00000101050E1A6F010EE66EDDEC1CF0E552B8
:102B1000F3CFE9FFF4CFEAFF050EE926000EEA2223
:102B2000EFCF00FF4CD0010EE66EDDEC1CF0E5525D
:102B3000F3CFE9FFF4CFEAFF050EE926000EEA2203
:102B4000EFCF32F00F012851325C0AE30101040E8D
:102B50001A6F1B6B1C6BE66A33EC25F0E5522ED026
:102B6000010EE66E33EC25F0E5520F01295101010B
:102B7000256F266B250E25270F0E262325C1E9FF7D
:102B800026C1EAFFEF50E66E28EC25F0E552010180
:102B90001BC132F01CC133F01B2B000E1C230F0194
:102BA0003651325C3751335809E301011B6B1C6B02
:102BB000010E176FE66E06EC01F0E55200D000D072
:102BC000020EE15C02E2E16AE552E16EE552E7CF16
:102BD000D9FF1200AAEC21F0F3CFE9FFF4CFEAFF0E
:102BE000060EE926000EEA22EF5008E019C117F19F
:102BF000C4EC09F0E66ED3EC09F0E552010118517E
:102C00000DE0050E176F320EE66EE66A18C1E6FF9C
:102C100084EC20F0E552E552E55200D01200040E9B
:102C2000E66E9ADDE552010118510DE0050E176FB1
:102C3000320EE66EE66A18C1E6FF84EC20F0E5523B
:102C4000E552E55200D012000101185103E119C10B
:102C500017F100D012000101226B0F01386B396BA4
:102C600012000101236B0F01386B396B1200D9CFB1
:102C7000E6FFE1CFD9FFE65201012251010A3DE012
:102C8000010A01E06ED00F011151125D010FDF6EDC
:102C9000DF50346E356A2951EA6A1C0FE96E0F0E57
:102CA000EA22EF50640DF3CF32F0F4CF33F032C0AC
:102CB00026F033C027F034C02BF035C02CF005ECE3
:102CC0002AF026C03BFF27C03CFF0101110E256FF3
:102CD0000F0E266F25C1E9FF26C1EAFFEFCF3AFFAD
:102CE0003ACFE6FF28EC25F0E552010EE66E33EC14
:102CF00025F0E5520101222B34D00F0138CF32F0FC
:102D000039CF33F0382B000E39233B51321802E112
:102D10003C51331825E1386B396B3A513A2B125D2F
:102D200015E10101226B300E256F0F0E266F25C1B4
:102D3000E9FF26C1EAFFEF50E66E28EC25F0E552E8
:102D400001015E0E246F010E0ED00AD001013A0E71
:102D5000256F0F0E266F3ACFE6FF28EC25F0E552DF
:102D600000D0000E00D0E552E552E7CFD9FF1200A7
:102D7000010EE66EDDEC1CF0E552F3CFE9FFF4CF77
:102D8000EAFF050EE926000EEA22EFCF32F00F012E
:102D90002951EA6A190FE96E0F0EEA22EF50285DF9
:102DA000D88032540CE30101236B36CF1BF137CFAF
:102DB0001CF10F01386B396B010E74D073D0010117
:102DC0002351010A4AE0010A01E06AD00F0138CF1D
:102DD00032F039CF33F0382B000E39232951EA6A0B
:102DE000160FE96E0F0EEA22EF50346E356AE80EC8
:102DF0003502F3CF35F0030E3402F3503526E80EDA
:102E00003402F3CF34F0F45035263450321802E156
:102E10003550331821E1386B396B0101010E236FF6
:102E2000E66E33EC25F0E5520F0129510101256FC3
:102E3000266B250E25270F0E262325C1E9FF26C167
:102E4000EAFFEF50E66E28EC25F0E5520F0129511C
:102E5000E824480F0101246F23D00F0138CF32F04E
:102E600039CF33F0382B000E39232951EA6A130F7A
:102E7000E96E0F0EEA22EF500A0DF3CF34F0F4CFD3
:102E800035F03450321802E13550331808E1386B10
:102E9000396B0101236BE66A33EC25F0E55200D073
:062EA000000E00D012003C
:0A2EA6000101565100D01200010195
:102EB000555100D012000101535100D01200D9CF5A
:102EC000E6FFE1CFD9FFFD0EDBCFE9FFFE0EDBCF42
:102ED000EAFFEFCF32F0FC0EDB50325C07E2FD0E72
:102EE000DBCFE9FFFE0EDBCFEAFFEF2AE552E7CFAB
:102EF000D9FF1200D9CFE6FFE1CFD9FFFD0EDBCF1E
:102F0000E9FFFE0EDBCFEAFFEFCF32F0FC0EDB5025
:102F1000D880325407E2FD0EDBCFE9FFFE0EDBCF97
:102F2000EAFFEF06E552E7CFD9FF1200D9CFE6FF5F
:102F3000E1CFD9FFFB0EDB5022E0FC0EDB50E82492
:102F4000010FF76AE40FF66E510EF7220800F550F4
:102F5000E66EFC0EDB50E76EFD0EDBCF32F0FE0EB0
:102F6000DBCF33F0E7503226000E332232C0E6FFCB
:102F700033C0E6FFA4DFE552E552E55220D0FC0E57
:102F8000DB50E824F76AE40FF66E510EF7220800D2
:102F9000F550E66EFC0EDB50E76EFD0EDBCF32F037
:102FA000FE0EDBCF33F0E7503226000E332232C064
:102FB000E6FF33C0E6FF9EDFE552E552E552E552FB
:102FC000E7CFD9FF1200D9CFE6FFE1CFD9FFFC0E42
:102FD000DB50E76EFD0EDBCFE9FFFE0EDBCFEAFF35
:102FE000E750E926000EEA22EFCF54F1E552E7CF91
:102FF000D9FF1200D9CFE6FFE1CFD9FFFC0EDB509D
:10300000F36EFD0EDB50F35C0FE0FE0EDBCFE6FF50
:10301000E66AFC0EDBCFE6FF84EC20F0E552E552D9
:10302000E552010E03D002D0000E00D0E552E7CFEA
:10303000D9FF1200D9CFE6FFE1CFD9FFFC0EDB505C
:10304000E76EFD0EDBCFE9FFFE0EDBCFEAFFE750B8
:10305000E926000EEA22EF500101545D02E1000E64
:1030600001D0010E00D0E552E7CFD9FF1200D9CF31
:10307000E6FFE1CFD9FFE652FC0EDBCFE6FFFD0E07
:10308000DBCFE6FFFE0EDBCFE6FFD4DFE552E552F5
:10309000E55200092EE0FC0EDBCFE6FFE66ADB50CE
:1030A000E76EFD0EDBCFE9FFFE0EDBCFEAFFE75058
:1030B000E926000EEA22EF50E66E84EC20F0E5529D
:1030C000E552E552350EE66EE66AE66EFD0EDBCFA2
:1030D000E6FFFE0EDBCFE6FFE66855EC29F0E55291
:1030E000E552E552E552E66E84EC20F0E552E552F9
:1030F000E552E552E552E7CFD9FF1200DEEC09F0C8
:10310000E66EC8EC09F0E552060EE66ED3EC09F067
:10311000E552040EE66EFCEC11F0E552E66AB9ECFD
:1031200009F0E552050EE66EF7EC00F0E552030EED
:10313000E66E19EC01F0E5521200D9CFE6FFE1CFBF
:10314000D9FFDEEC09F0000902E1D9EF1CF0FD0E19
:10315000DBCFE9FFFE0EDBCFEAFF020EE926000E11
:10316000EA22EF50010B010801E0A8D00BEC12F0AD
:10317000000914E00BEC12F0020801E09FD0FD0EF4
:10318000DBCFE9FFFE0EDBCFEAFF020EE926000EE1
:10319000EA22EF501E0B0E0801E090D0FD0EDBCFAF
:1031A000E9FFFE0EDBCFEAFF020EE926000EEA225F
:1031B000EF501E0B0E0A39E0180A1FE00C0A0FE050
:1031C000060A01E06FD0DEEC09F0E66EC8EC09F00B
:1031D000E5520A0EE66ED3EC09F0E55263D0DEEC60
:1031E00009F0E66EC8EC09F0E552010EE66ED3EC8C
:1031F00009F0E5520101536B55D0DEEC09F0E66EA3
:10320000C8EC09F0E552070EE66ED3EC09F0E55282
:10321000010EE66EFCEC11F0E552E66AB9EC09F03D
:10322000E5520101010E566F3DD00BEC12F0020881
:1032300008E10101555102E0000E01D0010E556F69
:1032400030D0E66ADDEC1CF0E552F3CFE9FFF4CFB5
:10325000EAFF050EE926000EEA22EF50050821E3F9
:10326000AAEC21F0F3CFE9FFF4CFEAFFEF5019E029
:10327000AAEC21F0F3CFE9FFF4CFEAFF020EE92632
:10328000000EEA22EF500DE0AAEC21F0F3CFE9FFA7
:10329000F4CFEAFF040EE926000EEA22EF5001E126
:1032A0002DDF00D0FD0EDBCFE9FFFE0EDBCFEAFF06
:1032B000020EE926000EEA22EF6A7BD3FD0EDBCF79
:1032C000E9FFFE0EDBCFEAFF020EE926000EEA223E
:1032D000EF50800B800801E06CD3FD0EDBCFE9FFDF
:1032E000FE0EDBCFEAFF020EE926000EEA22EF50C7
:1032F0001E0B1C0A01E132D3120A01E18ED2180A18
:1033000001E1D5D10C0A01E044D3DEEC09F0060A54
:1033100041E0070A21E0030A01E05ED0010EE66EFB
:10332000D3EC09F0E55253C1E6FFF2EC11F0F3CF14
:10333000E9FFF4CFEAFFE9CF32F0EACF33F032C051
:10334000E6FF33C0E6FF93DEE552E552E552E66A5A
:1033500057EC0FF0E55240D0020EE66ED3EC09F0C8
:10336000E55253C1E6FFF2EC11F0F3CFE9FFF4CFE1
:10337000EAFFE9CF32F0EACF33F032C0E6FF33C0E4
:10338000E6FF21DEE552E552E552E66A57EC0FF022
:10339000E55222D024EC01F003081DE1AAEC21F053
:1033A000F3CFE9FFF4CFEAFF020EE926000EEA228E
:1033B000EF5011E0AAEC21F0F3CFE9FFF4CFEAFFE0
:1033C000040EE926000EEA22EF5005E1030EE66E38
:1033D000D3EC09F0E55200D00BEC12F0050A01E144
:1033E0002AD1010A01E1F8D0060A01E191D0030ACD
:1033F00001E17BD0010A01E059D1DEEC09F00408BB
:1034000027E0DEEC09F0090823E0DEEC09F0020811
:103410001FE0DEEC09F001081BE011EC01F00009EF
:1034200017E1020EE66EFCEC11F0E552010EE66EBD
:10343000DDEC1CF0E552F3CFE9FFF4CFEAFF050E17
:10344000E926000EEA22EF50E66ECCEC11F0E552D0
:10345000DEEC09F0020804E0DEEC09F0010802E10C
:1034600025D142D0DEEC09F004081BE1F2EC11F0AA
:10347000F3CFE9FFF4CFEAFF270EE926000EEA2298
:10348000EF50E66E270EE66EE66A4BEC20F0E55252
:10349000E552E66E270EE66EADDDE552E552E552E9
:1034A0001ED0DEEC09F009081AE1F2EC11F0F3CFBE
:1034B000E9FFF4CFEAFF2F0EE926000EEA22EF50D3
:1034C000E66E2F0EE66EE66A4BEC20F0E552E55212
:1034D000E66E2F0EE66E8EDDE552E552E552030EE6
:1034E000E66ED3EC09F0E552E1D015EC01F00108ED
:1034F0000EE1020EE66EFCEC11F0E552030EE66EF4
:10350000D3EC09F0E5525DEC00F00101566BCED032
:10351000DEEC09F004081BE0DEEC09F0090817E016
:1035200015EC01F0010813E1E66A33EC25F0E552F1
:10353000E66AFCEC11F0E552D7EC11F02BEC16F03A
:1035400031EC16F0E66AE7EC11F0E55244D0DEEC1F
:1035500009F004081BE1F2EC11F0F3CFE9FFF4CF1E
:10356000EAFF270EE926000EEA22EF50E66E270E4C
:10357000E66EE66A4BEC20F0E552E552E66E270E69
:10358000E66E38DDE552E552E55220D0DEEC09F07A
:1035900009081CE179EC11F0F3CFE9FFF4CFEAFF61
:1035A000EF50E66E75EC11F0E8407F0BE66EE66AD0
:1035B0004BEC20F0E552E552E66E75EC11F0E84078
:1035C0007F0BE66E17DDE552E552E552030EE66E1F
:1035D000D3EC09F0E5526AD0AAEC21F0F3CFE9FF71
:1035E000F4CFEAFF020EE926000EEA22EF5022E0B5
:1035F000AAEC21F0F3CFE9FFF4CFEAFF040EE926AD
:10360000000EEA22EF5016E1E66AFCEC11F0E552FA
:10361000E66A19EC01F0E552E66AB9EC09F0E55208
:10362000010EE66EF7EC00F0E552030EE66ED3EC09
:1036300009F0E5523BD0E66A13EC12F0E552F2ECE9
:1036400011F0F3CFE9FFF4CFEAFF320EE926000EC6
:10365000EA22EF6A320EE66EE66AE66A84EC20F051
:10366000E552E552E552C4EC09F0E66ED3EC09F000
:10367000E5523FEC01F0070EE66EBDEC00F0E552BE
:10368000010EE66E1EEC12F0E55274EC01F0040837
:1036900006E1040EE66EF7EC00F0E55206D074EC9D
:1036A00001F0E66EF7EC00F0E55200D072D1DEECEE
:1036B00009F0060A01E18ED00F0A6DE00E0A60E003
:1036C000030A3FE0060A20E0030A09E0020A01E0DB
:1036D000A3D0040EE66ED3EC09F0E5529DD0E66A65
:1036E00057EC0FF0E552480EF66E520EF76E0800DA
:1036F000F550E66E530EE66E010EE66E5FEC17F0C7
:10370000E552E552E55288D0E66A57EC0FF0E552F3
:10371000010EE66E53C1E6FFF2EC11F0F3CFE9FFC4
:10372000F4CFEAFFE9CF32F0EACF33F032C0E6FF60
:1037300033C0E6FF96EC17F0E552E552E552E5524C
:103740006BD0330EF66E520EF76E0800F550E66E33
:10375000F2EC11F0F3CFE9FFF4CFEAFF270EE926F0
:10376000000EEA22E9CF32F0EACF33F032C0E6FFB2
:1037700033C0E6FF5FEC17F0E552E552E5524CD05E
:10378000010EE66E06EC01F0E552010EE66EB9ECB4
:1037900009F0E55241D00BEC12F002081AE175EC89
:1037A00011F0010FF76AE40FF66E510EF7220800D0
:1037B000F550E66E79EC11F0F3CF32F0F4CF33F040
:1037C00032C0E6FF33C0E6FF5FEC17F0E552E5528A
:1037D000E55222D024EC01F003081DE1AAEC21F00F
:1037E000F3CFE9FFF4CFEAFF020EE926000EEA224A
:1037F000EF5011E0AAEC21F0F3CFE9FFF4CFEAFF9C
:10380000040EE926000EEA22EF5005E1010EE66EF5
:1038100019EC01F0E55200D0BCD0DEEC09F0060A4C
:1038200001E179D00F0A59E00A0A51E0070A30E0B5
:10383000060A12E0030A01E090D0E66A57EC0FF0A6
:10384000E552E66A530EE66E010EE66E7AEC17F06C
:10385000E552E552E55281D0E66A57EC0FF0E552A9
:10386000E66A53C1E6FFF2EC11F0F3CFE9FFF4CFC3
:10387000EAFFE9CF32F0EACF33F032C0E6FF33C0DF
:10388000E6FF96EC17F0E552E552E552E55265D0B9
:10389000320EF66E520EF76E0800F550E66EF2EC40
:1038A00011F0F3CFE9FFF4CFEAFF270EE926000E6F
:1038B000EA22E9CF32F0EACF33F032C0E6FF33C07C
:1038C000E6FF7AEC17F0E552E552E55246D0090ED4
:1038D000E66ED3EC09F0E55240D00BEC12F0020892
:1038E00019E175EC11F0F76AE40FF66E510EF7224C
:1038F0000800F550E66E79EC11F0F3CF32F0F4CF1A
:1039000033F032C0E6FF33C0E6FF7AEC17F0E55241
:10391000E552E55222D024EC01F003081DE1AAECA7
:1039200021F0F3CFE9FFF4CFEAFF020EE926000E03
:10393000EA22EF5011E1AAEC21F0F3CFE9FFF4CF36
:10394000EAFF040EE926000EEA22EF5005E0020E1F
:10395000E66E19EC01F0E55200D01BD0DEEC09F068
:10396000020A0DE0030A01E014D0E66A57EC0FF0FA
:10397000E552030EE66ED3EC09F0E5520AD0E66A92
:1039800057EC0FF0E552030EE66ED3EC09F0E5526A
:1039900000D0030EE66EE66AE66AFD0EDBCFE6FFB8
:1039A000FE0EDBCFE6FFBCEC29F0326E050EE15EC9
:0A39B0003250E552E7CFD9FF1200B4
:0639BA00D9CFE6FFE1CFCA
:1039C000D9FFFE0EDB50060DF3CF32F0F4CF33F00B
:1039D000040E3226010E332232C0F3FF33C0F4FF4F
:1039E00000D0E552E7CFD9FF1200E00EE66EEF0EF1
:1039F000E66E040EE66EEB0EE66E69EC28F0E5521C
:103A0000E552E552E5529280928292849286928AA1
:103A100099881200D9CFE6FFE1CFD9FF030EE12646
:103A2000FA0EDB50DF6E010EDB6A010EDB50DF2485
:103A3000FE0BE842E76E020EE7CFDBFFF90EDB502C
:103A40004DE0FD0EDBCF32F0FE0EDBCF33F0020E89
:103A5000376ADB34FE0B3736366EFB0EDB5036240E
:103A6000F66EFC0EDB503720F76E0900F5CF34F010
:103A70000800F5CF35F03250345C3350355804E24D
:103A8000020EDB50DF6E29D0FD0EDBCF32F0FE0ED2
:103A9000DBCF33F0020E376ADB34FE0B3736366E7F
:103AA000FB0EDB503624F66EFC0EDB503720F76E33
:103AB0000900F5CF34F00800F5CF35F03450325C12
:103AC0003550335807E2020EDB50E76E010EE7CFA8
:103AD000DBFF03D0020EDB5056D04CD0FD0EDBCF07
:103AE00032F0FE0EDBCF33F0020E376ADB34FE0B12
:103AF0003736366EFB0EDB503624F66EFC0EDB508E
:103B00003720F76E0900F5CF34F00800F5CF35F017
:103B10003450325C3550335804E2020EDB50DF6E15
:103B200029D0FD0EDBCF32F0FE0EDBCF33F0020EDC
:103B3000376ADB34FE0B3736366EFB0EDB5036242D
:103B4000F66EFC0EDB503720F76E0900F5CF34F02F
:103B50000800F5CF35F03250345C3350355807E269
:103B6000020EDB50E76E010EE7CFDBFF03D0020E43
:103B7000DB5009D0010EDB50DF5C010803E1010ED0
:103B8000DB5001D052D7326E030EE15C02E2E16AF3
:103B9000E552E16E3250E552E7CFD9FF120016C16F
:103BA000E6FF14D8E5520101162B030E165D01E164
:103BB000166B1651F76A440FF66E4A0EF72208008C
:103BC000F550E66ED6EC29F0E5521200D9CFE6FFAB
:103BD000E1CFD9FFFE0EDB50060DF3CFE9FFF4CFA6
:103BE000EAFF040EE926010EEA22020EE926000E83
:103BF000EA22EF50EF2A326E400E325C1DE2B5EC45
:103C00002AF0AFEC2AF0000901E0FBD7A6EC2AF07D
:103C1000F3CF32F0F4CF33F0FE0EDB50060DF3CFCE
:103C2000E9FFF4CFEAFF040EE926010EEA22325042
:103C3000EE263350ED221BD2FE0EDB50060DF3CFE5
:103C4000E9FFF4CFEAFF040EE926010EEA22EECFE7
:103C500032F0EFCF33F0060ED89033323232E80430
:103C6000FBE1FE0EDB50060DF3CFE9FFF4CFEAFFD8
:103C7000040EE926010EEA22030EE926000EEA22CE
:103C800032C0EEFF33C0EDFFFE0EDB50060DF3CF6A
:103C9000E9FFF4CFEAFF040EE926010EEA22EE6AFC
:103CA000ED6AFE0EDB50060DF3CFE9FFF4CFEAFF1D
:103CB000040EE926010EEA22020EE926000EEA228F
:103CC000EF6AFE0EDB50020A01E1D0D1020A03E0E6
:103CD000010A01E0CCD1FE0EDB50060DF3CFE9FF67
:103CE000F4CFEAFF040EE926010EEA22030EE926CC
:103CF000000EEA22EECF32F0EFCF33F00A0E325C44
:103D0000000E335813E2FE0EDB50060DF3CFE9FF31
:103D1000F4CFEAFF040EE926010EEA22050EE92699
:103D2000000EEA22FB0EEF6EA2D152D1FE0EDB5046
:103D3000060DF3CFE9FFF4CFEAFF040EE926010EEA
:103D4000EA22030EE926000EEA22D40ED880EE54B1
:103D5000030EED5413E2FE0EDB50060DF3CFE9FF28
:103D6000F4CFEAFF040EE926010EEA22050EE92649
:103D7000000EEA22FA0EEF6E7AD12AD1FE0EDB5047
:103D8000060DF3CFE9FFF4CFEAFF040EE926010E9A
:103D9000EA22030EE926000EEA22EECF32F0EFCF40
:103DA00033F00A0E325C000E335801E27AD0FE0E78
:103DB000DB50060DF3CFE9FFF4CFEAFF040EE9264E
:103DC000010EEA22030EE926000EEA22EECF34F0BD
:103DD000EFCF35F0FE0EEA6ADB34FE0BEA36E96E11
:103DE000000EE926010EEA22EECF38F0EFCF39F0CF
:103DF000FE0EF76ADB34FE0BF736F66E400EF62643
:103E00004A0EF7220800F550020D3850F324F66EE2
:103E10003950F420F76E0900F5CF36F00800F5CFE1
:103E200037F03650345C375035583BE2FE0EEA6AC4
:103E3000DB34FE0BEA36E96E000EE926010EEA22BB
:103E4000EECF34F0EFCF35F0FE0EF76ADB34FE0B29
:103E5000F736F66E400EF6264A0EF7220800F550A9
:103E6000020D3450F324F66E3550F420F76E09003D
:103E7000F5CF32F00800F5CF33F0FE0EDB50060D23
:103E8000F3CFE9FFF4CFEAFF040EE926010EEA22A0
:103E9000030EE926000EEA2232C0EEFF33C0EDFF2A
:103EA00097D0FE0EDB50060DF3CFE9FFF4CFEAFF0B
:103EB000040EE926010EEA22030EE926000EEA228C
:103EC000D40ED880EE54030EED5401E281D0FE0EE4
:103ED000DB50060DF3CFE9FFF4CFEAFF040EE9262D
:103EE000010EEA22030EE926000EEA22EECF32F09E
:103EF000EFCF33F0FE0EEA6ADB34FE0BEA36E96EF2
:103F0000000EE926010EEA22EECF36F0EFCF37F0B1
:103F1000FE0EF76ADB34FE0BF736F66E400EF62621
:103F20004A0EF722010EF626000EF7220800F55081
:103F3000020D3650F324F66E3750F420F76E090068
:103F4000F5CF34F00800F5CF35F03250345C335003
:103F500035583EE2FE0EEA6ADB34FE0BEA36E96EC5
:103F6000000EE926010EEA22EECF34F0EFCF35F055
:103F7000FE0EF76ADB34FE0BF736F66E400EF626C1
:103F80004A0EF722010EF626000EF7220800F55021
:103F9000020D3450F324F66E3550F420F76E09000C
:103FA000F5CF32F00800F5CF33F0FE0EDB50060DF2
:103FB000F3CFE9FFF4CFEAFF040EE926010EEA226F
:103FC000030EE926000EEA2232C0EEFF33C0EDFFF9
:103FD000FE0EDB50F76A3E0FF66E4A0EF72208001F
:103FE000F550E66EFE0EDB50F76A470FF66E4A0E8E
:103FF000F7220800F550E66EFE0EEA6ADB34FE0B8F
:10400000EA36E96E000EE926010EEA22EECFE6FF5F
:10401000EFCFE6FFFE0EDB50060DF3CFE9FFF4CF46
:10402000EAFF040EE926010EEA22030EE926000E3D
:10403000EA22EECFE6FFEFCFE6FFECDC326E060EB3
:10404000E15E3250E66EFE0EDB50060DF3CFE9FF67
:10405000F4CFEAFF040EE926010EEA22050EE92656
:10406000000EEA22E552E750EF6E01D000D0E55293
:06407000E7CFD9FF1200AA
:0A40760078EC27F0F2EC11F0F3CF24
:1040800032F0F4CF33F032C0E6FF33C0E6FF9DD804
:10409000E552E5521200D9CFE6FFE1CFD9FFE65253
:1040A000E66A8BEC27F0E552A00EE66EA8EC27F04E
:1040B000E552FF0EE76EFD0EDBCF32F0FE0EDBCFDA
:1040C00033F0E7503216336A3250E66EA8EC27F030
:1040D000E552010EE66E8BEC27F0E552A10EE66E7E
:1040E000A8EC27F0E552C9EC27F0DF6E010EE66E72
:1040F000B8EC27F0E5529EEC27F0DF5000D0E552F7
:10410000E552E7CFD9FF1200D9CFE6FFE1CFD9FFC3
:10411000E66A8BEC27F0E552A00EE66EA8EC27F0DD
:10412000E552FF0EE76EFC0EDBCF32F0FD0EDBCF6B
:1041300033F0E7503216336A3250E66EA8EC27F0BF
:10414000E552FE0EDBCFE6FFA8EC27F0E5529EEC31
:1041500027F0700EF66E550EF76E0800F550E66EFD
:104160002EEC2AF0E552E552E7CFD9FF1200D9CF65
:10417000E6FFE1CFD9FFE652DF6AFB0EDB50DF5CE2
:104180001FE2FE0EDB50DF24E66EE66A84DFE552B6
:10419000E552E66EFC0EDBCFE9FFFD0EDBCFEAFF5A
:1041A000E9CF32F0EACF33F0DF500F013224E96E6D
:1041B000000E3320EA6EE552E750EF6EDF2ADDD7BE
:1041C000E552E552E7CFD9FF1200D9CFE6FFE1CFA4
:1041D000D9FF030EE126350EDF6EDF28E66EE66AB4
:1041E0005ADFE552E552326E730EF66E550EF76EDB
:1041F0000800F550325C6FE0DFCFE6FF990EE66E07
:10420000000EE66EE66855EC29F0E552E552E552FF
:10421000E552E76E020EE7CFDBFF010EDB6ADF50EF
:10422000F36E010EDBCFF4FFF350F45C3BE2010EC2
:10423000DBCFE6FF720EF66E550EF76E0800F550F6
:10424000E552E724E66EE66A010EDB50EA6A990F52
:10425000E96E000EEA22EF50E66E56DFE552E552B7
:10426000E552010EDB50EA6A990FE96E000EEA2270
:10427000EF50E66EFD0EDBCFE9FFFE0EDBCFEAFF6F
:10428000E9CF32F0EACF33F0010EDB500F013224D8
:10429000E96E000E3320EA6EE552E750EF6E010E34
:1042A000DB2ABDD7DFCFE6FFE66A020EDBCFE6FFF3
:1042B0002BDFE552E552E552DF28E66EE66A730E23
:1042C000F66E550EF76E0800F550E66E1DDFE552EE
:1042D000E552E55214D0DFCFE6FFFD0EDBCFE6FF5F
:1042E000FE0EDBCFE6FF720EF66E550EF76E08007F
:1042F000F550E66E3CDFE552E552E552E552030E1D
:10430000E15C02E2E16AE552E16EE552E7CFD9FFF6
:02431000120099
:0E431200938A9A8E94809A88938893829A8CCC
:1043200094829A8693809A849A82120032C1F3FF13
:1043300033C1F4FF00D01200D9CFE6FFE1CFD9FF9F
:10434000FD0EDBCF32F1FE0EDBCF33F1E552E7CFCE
:10435000D9FF12002A0E326E010E336E32C0F3FF07
:1043600033C0F4FF00D01200270E326E010E336E00
:1043700032C0F3FF33C0F4FF00D01200D9CFE6FF04
:10438000E1CFD9FFFD0EDBCFE6FFFE0EDB50E5529D
:10439000E71800D0E552E7CFD9FF1200F19E868AD8
:1043A000010EE66E8150200B01E0010EE66EE6DFA5
:1043B000E552E55201012A6F010EE66E8850800B2E
:1043C00001E0010EE66EDADFE552E55201012B6FE6
:1043D000010EE66E8250010BE66ED0DFE552E5522B
:1043E00001012C6F010EE66E8850100B01E0010EEA
:1043F000E66EC4DFE552E55201012D6F010EE66E57
:104400008150020B01E0010EE66EB8DFE552E55285
:1044100001012F6F010EE66E8150100B01E0010EBD
:10442000E66EACDFE552E5520101306F010EE66E3B
:104430008850400B01E0010EE66EA0DFE552E55228
:1044400001012E6FF18E869A010EE66E8250020BEC
:1044500001E0010EE66E92DFE552E5520101316F97
:104460001200D9CFE6FFE1CFD9FF020EE126F19E7F
:10447000868A010E8114DF6E0E0E8814E76E010E1F
:10448000E7CFDBFFF18E869ADB50DF26DF9EDF462B
:10449000010127511BE11E0EDF5C17E034C132F031
:1044A00035C133F0342B000E35230A0E321801E1EA
:1044B00033500BE1DFCF29F1010E276F286F346BEA
:1044C000356BE66E13EC27F0E55228D01E0EDF5C4C
:1044D0000BE1285104E07E0E2917800E2927276B57
:1044E000346B356B286B1AD0285118E034C132F088
:1044F00035C133F0342B000E3523880E325C130E99
:1045000033580CE3346B356B286B7E0E2917292B3F
:10451000010E276FE66E13EC27F0E552020EE15C08
:1045200002E2E16AE552E16EE552E7CFD9FF1200FF
:104530000BEC12F0030809E094DF270EE66E010E83
:0E454000E66E9DEC18F0E552E552CEEF21F04C
:02454E00030E5A
:1045500039D8EF5004E0D950E76EE128D96EE15028
:104560003C6EED50E126ED50FA6EED50F96E120002
:10457000030E28D83C50E15CED6EFE50ED6EFD5010
:10458000ED6EEF8606001200060012003B6ACEEFC9
:1045900022F012003B68CEEF22F012003A90030E98
:1045A00011D83C50E15CED6EFE50ED6EFD50ED6EAD
:1045B000EF96EFA8EF9A3BB0EF8A1200000EE2EF01
:1045C00022F012003D24E96EEA6A1200D9CFE6FF1C
:1045D000E1CFD9FFE652DF6AFE0EDB5002E0010EAA
:1045E000DF6EECDFEF9AEF98DFA011D0FE0EDB1E3E
:1045F000DB2A3DC0E9FF3EC0EAFF040EE926000EBB
:10460000EA22FE0EDBCFEFFFD9DFEF88EF86E5521F
:10461000E552E7CFD9FF1200F250C00BF29ED0BE98
:10462000F29C1200E8BEF28ED0BEE8AC01D0F28C53
:1046300012003A9AC3DF3B5006E0EFA602D0EF9893
:104640000DD0EF8601D0EF96EF50100B06E1EF5042
:10465000200B03E0EF863A8A01D0060012003A6A86
:10466000190E026E000E036E059C0A9C0F9C149C92
:10467000199C1200000105A902D0094B05990AA94D
:1046800002D00E4B0A990FA902D0134B0F9914A90F
:1046900002D0184B149919A902D01D4B1999120078
:1046A000D9CFE6FFE1CFD9FF020EE1263A92050EFF
:1046B000DE6E000EDD6E3B6ADECFE9FFDDCFEAFF86
:1046C000EF50400B29E1FE0EDB8CDB86DECFE9FFED
:1046D000DDCFEAFFEE52FC0EDBCFEEFFFD0EDBCFAF
:1046E000EDFFDECFE9FFDDCFEAFF040EE926000E85
:1046F000EA22EF6ADECFE9FFDDCFEAFF030EE9260B
:10470000000EEA22EF6ADECFE9FFDDCFEAFFFE0E00
:10471000DBCFEFFF3A920ED0D9CFE9FFDACFEAFF35
:10472000050EEE26000EEF223B2A050E3B5CC4E38D
:104730003A8200D0020EE15C02E2E16AE552E16EEB
:08474000E552E7CFD9FF12009A
:08474800DACFE4FFE2CFDAFF53
:10475000E9CFE4FFEACFE4FFF6CFE4FFF7CFE4FFD1
:10476000F5CFE4FFF3CFE4FFF4CFE4FFFACFE4FFAB
:1047700000EE1EF0140EE80403E3EECFE4FFFBD7D7
:1047800000EE32F0080EE80403E3EECFE4FFFBD7BF
:10479000E652F2A405D0480ED66EF2943AEC23F01D
:1047A000F050020B0AE0F050100B07E0F09201010C
:1047B000010E596F572B000E5823F050010B07E0E4
:1047C000F050080B04E00101010E5A6FF0909E506A
:1047D000020B12E09D50020B0FE09E920AEC03F0D8
:1047E000F3CF3FF0F4CF40F03FC0E6FF40C0E6FF1C
:1047F000B9EC08F0E552E552E55200EE39F0080E4A
:10480000E80403E3E5CFEDFFFBD700EE31F0140E33
:10481000E80403E3E5CFEDFFFBD7E5CFFAFFE5CFF3
:10482000F4FFE5CFF3FFE5CFF5FFE5CFF7FFE5CFE9
:10483000F6FFE5CFEAFFE5CFE9FFE5CFDAFF1100AC
:10484000200EF26E840EF16ED80EF06ED08ED76A06
:10485000D66AC50ED56EF28E020EA26ECA6A9D6A27
:10486000A06A9F6E93841200D9CFE6FFE1CFD9FFF3
:10487000FE0EDB500101576F586BE552E7CFD9FFB1
:10488000120057C1F3FF58C1F4FF00D01200D9CF76
:10489000E6FFE1CFD9FFFE0EDBCF59F1E552E7CFBE
:1048A000D9FF12000101595100D0120001015A51E3
:1048B00000D01200D9CFE6FFE1CFD9FFFE0EDBCF4B
:0A48C0005AF1E552E7CFD9FF1200CC
:0648CA0015030C030203BC
:1048D000F802ED02E302D802CE02C302B802AD0232
:1048E000A10296028B027F02740268025C025102EE
:1048F00045023A022E02220217020B020002F501C3
:10490000E901DE01D301C801BD01B301A8019E0187
:1049100094018A01800176016C0163015A01500102
:1049200048013F0136012E0126011E0116010E012C
:1049300007010001F900F200EB00E400DE00D800FE
:10494000D200CC00C600C100BB00B600B100AC0074
:10495000A700A2009E009900950091008D0089009B
:10496000850081007E007A007700730070006D0082
:104970006A006700640062005F005C005A00570034
:104980005500530051004E004C004A0048004600BC
:1049900045003B00470053005F006B007700830039
:1049A0008F009B00A700B200BE00CA00D500E10046
:1049B000EC00F70003010E01190124012F013A0157
:1049C000450150015B01660171017C018601910185
:1049D0009C01A601B101BB01C501D001DA01E401CE
:1049E000EF01F90103020D02170221022B02350229
:1049F0003E02480252025C0265026F0278028202A5
:104A00008B0295029E02A702B102BA02C302CC0237
:104A1000D502DE02E702F002F90202030B031403DF
:104A20001C0325032E0336033F034703500358039B
:104A30006103690371037A0382038A03920300010D
:094A4000005563009F8FE75664E6
:064A4A0097948E94120007
:104A5000D9CFE6FFE1CFD9FFFE0EDBCF3AF1E55229
:104A6000E7CFD9FF1200D9CFE6FFE1CFD9FFFE0E85
:104A7000DBCF37F1E552E7CFD9FF12000101375103
:104A800000D012000101365100D012000101010EC8
:104A9000366F365100D01200000E01013C6F3D6BA5
:104AA0003B6F406F416B1200DEEC09F0000901E141
:104AB0003BD0ECDF0BEC12F0030802E18E9434D013
:104AC00001013851030A18E0010A0FE0030A01E06E
:104AD0002BD038C139F1365103E1020E386F04D0C2
:104AE000375102E0030E386F1FD0365103E039C151
:104AF00038F101D08E9418D038C139F1365108E11F
:104B0000020E386FE66A47EC24F0E552C5DF0BD0A1
:104B1000375105E1010E386F8E94BEDF04D03AC1E3
:104B2000E6FF03D8E55200D01200D9CFE6FFE1CF6F
:104B3000D9FFFE0EDB50080802E18E8438D0FE0E4D
:104B4000DB0402E18E9433D052EC24F000092DE016
:104B500001014251010A21E0010A01E025D040C1D2
:104B600032F041C133F0402B000E4123FE0EDBCF6B
:104B7000E6FF0A0EE552D880E754FF0FFF0F346EB0
:104B8000356A3450325C3550335802E20DD004D0CF
:104B9000406B416B8E84422B07D08E94426BE66A49
:104BA00047EC24F0E55200D002D00101436BE552FE
:064BB000E7CFD9FF12005F
:0A4BB6009B8CF5EC1CF025EC25F0BB
:104BC00044EC00F010EC27F09BEC2AF01FEC28F0EE
:104BD00089EC21F0E668EEEC29F0E55298EC09F05A
:104BE0003BEC20F020EF24F0E6DF2FEC23F0EC0E7E
:104BF000E66E540EE66EE66A50EC23F0E552E5529E
:104C0000E552360EE66E540EE66E010EE66E50EC80
:104C100023F0E552E552E552D20EE66E540EE66EF2
:104C2000010EE66E50EC23F0E552E552E552060E19
:104C3000E66E550EE66EE66A50EC23F0E552E5525C
:104C4000E552B80EE66E540EE66EE66A50EC23F0BE
:104C5000E552E552E5523A983A86080E046E02C0D3
:104C60003DF003C03EF0190E3D5C000E3E5805E3DA
:104C7000050E3D6E000E3E6E04D0050E3D26000E64
:104C80003E22DEEC22F0EF50400B03E0EF50800BB1
:104C900001E02AD0EF50070B3B6ED880045401E3AB
:104CA00023D0EFB60DD0A7EC22F03C50E15C04E03D
:104CB0003C50E16EE750D96E3AA630D0DEEC22F0DF
:104CC000EF50100B04E0EF50200B01E10DD0EFA6E8
:104CD0000BD03A883DC000F03EC001F0EF50070B0A
:104CE000046E045001E106D002503D1802E1035069
:104CF0003E18B9E13AA812D03A9600C03DF001C082
:104D00003EF000C002F001C003F0DEEC22F0EF50F4
:104D1000400B04E0EF50800B01E1C5D79CD7120097
:104D200000858F0A9B1E1491B3363CB928ADA7228B
:104D3000E3666CE978FDF77250D5DF5ACB4E44C17B
:104D400043C6CC49D85D57D2F0757FFA6BEEE4616B
:104D5000A0252FAA3BBEB43113969C19880D07825B
:104D60008603098C1D98921735B0BA3FAE2B21A44B
:104D700065E0EA6FFE7B71F4D65359DC4DC8C2473B
:104D8000C5404ACF5EDBD15476F3F97CED6862E72B
:104D900026A3A92CBD3832B795101A9F0E8B81041B
:104DA000890C068312979D183ABFB530A1242EAB0B
:104DB0006AEFE560F1747EFBD95C56D342C7CD48FB
:104DC000CA4F45C051D4DE5B79FCF673E2676DE8EB
:104DD00029ACA623B2373DB89A1F159001848E0BDB
:104DE0000F8A800594111B9EBC3933B627A2A82DCB
:104DF000EC6963E677F2F87D5FDAD055C4414BCEBB
:104E00004CC9C346D75258DDFF7A70F564E1EB6EAA
:104E1000AF2A20A534B1BB3E1C9993168702088D9A
:104E2000949A8B9A1200D9CFE6FFE1CFD9FFFE0EFC
:104E3000DBCFFDF0E552E7CFD9FF1200F2EC11F025
:104E4000F3CFE9FFF4CFEAFF290EE926000EEA22AC
:104E5000EF5047E00BEC12F0030843E00001FD5176
:104E600011E08B7AFBC032F0FCC033F0FB2B000E5C
:104E7000FC234B0E321801E1335004E1FB6BFC6B59
:104E80008B9AFD6B0BEC12F0050825E10001FA513D
:104E900002E0000E05D08B50200B200A01E0010E2D
:104EA000E8B08B8AE8A08B9AF8C032F0F9C033F0F2
:104EB000F82B000EF923F40E321802E1010E33181C
:104EC00009E1F86BF96BFA5102E0000E01D0010E16
:104ED000FA6F8B7A05D00001FD5102E18B9AFA6BD3
:104EE00006D08B9A0001FD6BFB6BFC6BFA6B12001A
:104EF00094889486800EC76E280EC66EC56A270EEB
:104F0000C86E9E9612001F0EC51403E1C750040B15
:104F100001E0F9D71200D9CFE6FFE1CFD9FFF3DFE7
:104F2000FE0EDB5004E1C580C5B0FED703D0C582BC
:104F3000C5B2FED7E552E7CFD9FF1200C584C5B48C
:104F4000FED71200C550400B01E0010E00D0120048
:104F5000D9CFE6FFE1CFD9FFFE0EDB50C96EC6BE4A
:104F600003D0C7B0FED7CFDFE552E7CFD9FF12009D
:104F7000D9CFE6FFE1CFD9FFFE0EDB50E8B0C58AFE
:104F8000E8A0C59AC588C5B8FED7E552E7CFD9FFD6
:104F90001200B9DFC586C7A0FED7C95000D01200E5
:104FA0000E0EF66E000EF76E000EF86E010109008F
:104FB000F550496F0900F5504A6F03E1496701D088
:104FC0003DD00900F550446F0900F550456F0900C8
:104FD000F550466F09000900F550E96E0900F550DB
:104FE000EA6E090009000900F550476F0900F55005
:104FF000486F09000900F6CF4BF1F7CF4CF1F8CF1D
:105000004DF144C1F6FF45C1F7FF46C1F8FF01016C
:10501000475302E1485307E00900F550EE6E470799
:10502000F8E24807F9D74BC1F6FF4CC1F7FF4DC175
:0E503000F8FF01014907000E4A5BBFD71200CE
:02503E00AEECD6
:1050400028F0959A8C8A909A999A8A96939612004B
:105050008C8A00008C9A1200D9CFE6FFE1CFD9FFED
:10506000F7DFFD0EDBCFE6FFB9EC28F0E552030ECB
:10507000E66E90EC2AF0E552E552E7CFD9FF120038
:10508000D9CFE6FFE1CFD9FFE652E2DFDF6AFC0EBF
:10509000DB50DF5C19E2336ADF34FE0B3336326EED
:1050A000FD0EDB503224E96EFE0EDB503320EA6E3B
:1050B000EF50E66EB9EC28F0E552030EE66E90EC88
:1050C0002AF0E552DF2AE3D7E552E552E7CFD9FFD0
:0250D0001200CC
:0E50D200D9CFE6FFDACFE6FFE1CFD9FFE2CF7C
:1050E000DAFFC098C26AC16AFC0EDB50400DF35073
:1050F000C00B326EFC0EDB407F0B3C0B3210C26EDD
:10510000FD0EDB50040DF350380B336EFD0EDB3813
:105110000F0B070B326EFD0EDB50800B321033107D
:10512000C16EC088FA0EDB50C16EFA0EDBCF32F0D2
:10513000FB0EDBCF33F033C032F0336A3250C26E35
:10514000C098FC0EDBAE03D09E9C9D8CF28CC2807E
:0C515000E552E5CFDAFFE7CFD9FF1200EF
:04515C00C00E6D6EA6
:10516000200E6C6E9598959C91909A908C9E959E31
:105170001200D9CFE6FFE1CFD9FFE6526F50DF6EC4
:105180009E96FE0EDB506F6E9EA6FED7E552E55250
:10519000E7CFD9FF1200D9CFE6FFE1CFD9FFE65222
:1051A000DF6ADFCF32F0080EE76E3218E8AE02D0C9
:1051B000E73402D0E750325C10E28C9EFE0EDBAE8C
:1051C00002D0918001D091908C8EDBCFF3FFF39EC3
:1051D000F346F3CFDBFFDF2AE4D7E552E552E7CF12
:0451E000D9FF1200E1
:0C51E4000A63013C1C6400030A63013CE8
:1051F0001C6400000A63013C1C6400070A63013C54
:105200001C64000002020408057805780578012472
:1052100001240124010A010A010A062A062A062A93
:10522000010F01080108010801080108010801082F
:1052300001081E5A00020001083C013F013F013FE6
:09524000020A0108051412D8311C
:07524900900F008F0F009091
:105250000F008D0F00900F008E0F06900F008F0F24
:10526000048F0F03900F01900F03900F018E0F0515
:10527000900F018E0F07900F01900F008F0F03907A
:105280000F00900F03900F008E0F05900F008E0FF0
:1052900007900F018F0F00900F018D0F00900F01ED
:0952A0008F0F04900F018E0F0620
:0652AA00D9CFE6FFE1CFC1
:1052B000D9FFFB0EDBCFF3FFDB06F350000919E04B
:1052C000FE0EDBCFE6FFFC0EDBCFE9FFDB2AFD0E97
:1052D000DBCFEAFF01E3DB2AEF50E552E718F76A7C
:1052E000200FF66E4D0EF7220800FE0EF5CFDBFF05
:1052F000E0D7FE0EDB5000D0E552E7CFD9FF120019
:1053000026C030F026502B02F4CF25F0F3CF24F046
:1053100027502C02F4CF27F0F3CF26F02B02F350C6
:105320002526F4502622E86A272230502C02F3501A
:0C5330002526F4502622E86A2722000CF3
:04533C00057D266461
:105340005CC4846D04440C0E15868797C454840D88
:10535000968E341C7DFF44E72C25871514670405C1
:10536000060EC41C5CDC158514469C1EA486E7FF53
:08537000640A01000500F401CC
:08537800FE0EE3CFE9FFFF0E7A
:10538000E3CFEAFFE9CFF3FFEACFF4FFFB0EE350F0
:1053900003E1FC0EE35009E0FB0EE30602E2FC0E23
:0C53A000E306FD0EE350EE6EF1D71200A4
:0453AC00D9CFE6FF70
:1053B000DACFE6FFE1CFD9FFE2CFDAFFC098C30E24
:1053C000C214326EFD0EDB407F0B3C0B3210C26EFE
:0C53D000E552E5CFDAFFE7CFD9FF12006D
:0453DC00FF0EE3508D
:1053E000426EEF0E01D0F30EE76EE72EF5EF29F0D7
:1053F0000C0E416EE76AE72EFBEF29F0412EFAEF23
:0A54000029F0422EF3EF29F012000C
:06540A00236A226A100E65
:10541000E76ED89026362736223623362B50225C6C
:105420002C50235805E32B50225E2C50235A262A59
:06543000E72EF0D7120088
:0A54360009EC0CF054EC25F01EEC1C
:1054400027F09EEC2AF00400010EE66EE6EC22F056
:0C545000E552B8EC22F00000EED712008C
:04545C00FF0EE3500C
:10546000426E480E01D04C0EE76EE72EFED7E76A7B
:0C547000E72EFED7422EF7D700001200F6
:04547C00400EF36E7D
:1054800000EE00F00F0E01D81200EA6002D0EE6AC2
:0C549000FCD7F350E9601200EE6AFCD774
:04549C001EEE00F010
:1054A0002EEE00F0F86A1F9CD0EC27F0BAEC2AF040
:0854B000F4EC25F0FBD712001B
:0854B80083EC03F00400010E77
:1054C000E66EE6EC22F0E552B8EC22F00000F4D7EC
:0254D0001200C8
:0E54D20080EC13F00400640EE66EE6EC22F0AF
:0C54E000E552B8EC22F00000F4D71200F6
:0454EC0098EC22F026
:1054F0000400010EE66EE6EC22F0E552B8EC22F074
:065500000000F4D71200C8
:0A550600CFEC1DF00400010EE66E6C
:10551000E6EC22F0E552B8EC22F00000F4D71200DD
:10552000FF0EE350E84E1200000000D000D000D083
:06553000E82EFAD712007C
:0A553600999C909C1200E3EC11F028
:0C554000040802E1908C01D0909C120045
:04554C00C450356EA4
:0E555000346AC3503410F36E35C0F4FF1200FD
:02555E00C098F3
:0A556000C250020B01E0010E120020
:06556A00C098C28212008D
:0455700080BB00BB41
:02557400120023
:065576000000000000002F
:04557C00000000002B
:10558000000001000000000000000000000000001A
:10559000000000000000000000000000000000000B
:1055A0000000000000000000000000000049520060
:0555B0000000000000F6
:0B55B5000000000000000000000001EA
:0555C00000005E000088
:0B55C5000000000000000000000000DB
:0455D0002E010000A8
:0C55D4003C535653000000000000000093
:1055E0000000FBFF00000000000000000000FBFFC7
:0E55F0000000000000000000000000000000AD
:0255FE000100AA
:0C5600000101020000000000000000009A
:04560C009249CA48AD
:10561000000000000000000000000000000000008A
:0356200000000087
:045623000000000083
:04562700000000007F
:05562B00140348031EFA
:105630000A6400140348071E1E640002031428288D
:105640000C06060502020F05050C04060203030200
:1056500003033201010F06030302030A120000C80C
:020000040001F9
:01FFF800AD5B
:01FFF900F710
:01FFFA000501
:01FFFB00F80D
:01FFFC00F014
:01FFFD00FF04
:00000001FF
